:020000040800F2
:1000000000B40020411300086104000863040008E4
:10001000670400086B0400086F040008000000007B
:100020000000000000000000000000007304000851
:100030007504000800000000770400087904000837
:100040005B1300085B1300085B1300085B130008D8
:100050005B1300085B1300085B1300085B130008C8
:100060005B1300085B1300085B1300085B130008B8
:100070005B1300085B1300085B1300085B130008A8
:100080005B1300085B1300085B1300085B13000898
:100090005B1300085B1300085B1300085B13000888
:1000A0005B1300085B1300085B1300085B13000878
:1000B0005B130008FF0D0008810E00085B130008A9
:1000C0005B1300085B1300085B1300085B13000858
:1000D0005B130008BF0F00085B1300088B100008BB
:1000E0005B1300085B1300085B1300085B13000838
:1000F0005B1300085B1300085B1300085B13000828
:100100005B1300085B1300085B1300085B13000817
:10011000731100085B1200085B1300085B130008F2
:100120005B1300085B1300085B1300085B130008F7
:1001300000F002F800F03AF80AA090E8000C8244BF
:100140008344AAF10107DA4501D100F02FF8AFF29C
:10015000090EBAE80F0013F0010F18BFFB1A43F0A5
:10016000010318477836000098360000103A24BF83
:1001700078C878C1FAD8520724BF30C830C144BF0C
:1001800004680C607047000000230024002500264E
:10019000103A28BF78C1FBD8520728BF30C148BFEA
:1001A0000B6070471FB51FBD10B510BD03F0D2FA2C
:1001B0001146FFF7F7FF00F01DF803F004FB03B44E
:1001C000FFF7F2FF03BC00F0EBFE000030BF72B699
:1001D00062B680F308887047002106E00C2100BF5A
:1001E0000A00A1F1010399B2FAD10200A0F10100C5
:1001F000F4D170470024002500F062FE00F0C0FD3D
:1002000000F0C8FE03F0BEF84FF4165000F0F1FE07
:100210004FF4165001F034F84FF4E13000F0D1FF04
:1002200041F61F4141F2873000F0BCFD41F61F410D
:1002300041F2873000F0FBFD41F2883000F07DFE96
:100240003BA23C21502000F0B9FA41A250210846BF
:1002500000F0B4FA46A003F017FA50A003F014FA25
:1002600041F2883000F069FE41F2883000F065FE0E
:1002700041F2883000F061FE50A003F005FA58A06A
:1002800003F002FA3AA003F0FFF941F2883000F0DF
:1002900054FE4BE01AE003F073F9082816D101224E
:1002A00040F22551574801F034FD012456A2502157
:1002B000084600F083FA5CA003F0E6F901216248E9
:1002C00002F082FDFF21614800F05EFA604800887C
:1002D000142801DA002CDED02CB15E4803F076F849
:1002E0000024012522E0002201215B4802F087FD65
:1002F00000220121544802F082FD64223C2150205A
:1003000000F003FC64225021084600F0FEFB4F4839
:1003100000F0A4F9552801D0012D04D100254D4845
:1003200003F016F902E04D4803F012F9B2E70000BD
:10033000D4B6B3CCB9CCBCFEC9FDBCB62020626F2C
:100340006F746C6F616465722056342E300000004B
:10035000B5C8B4FDC9FDBCB6C3FCC1EEA3AC313019
:10036000C3EBBAF3BDF8C8EB4150502E2E2E00005F
:100370002A2A2A2A2A2A2A2A2A2A2A2A2A2A2A2ADD
:100380002A2A2A2A2A2A2A2A2A2A2A2A2A2A2A2ACD
:100390002A2A2A2A2A2A2A0D0A000000D6D8C6F4B8
:1003A000B3C9B9A6A3ACBDF8C8EB426F6F746C6F4C
:1003B000616465722E2E2E0D0A000000B5C8B4FDD2
:1003C000C9FDBCB6C3FCC1EEA3AC3230C3EBBAF37B
:1003D000BDF8C8EB4150502E2E2E0D0A0000000033
:1003E000C7EBB4F2BFAAC9CFCEBBBBFAA3ACD7BC94
:1003F000B1B8B8FCD0C2B3CCD0F2202E2E2E0D0A4C
:1004000000000000004C0040CAD5B5BDC9FDBCB617
:10041000C3FCC1EEA3ACB5C8B4FDB9CCBCFEB3CC33
:10042000D0F22E2E2E000000CAD5B5BDC9FDBCB637
:10043000C3FCC1EEA3ACB5C8B4FDB9CCBCFEB3CC13
:10044000D0F20D0A0000000000080040F0FC000897
:10045000160000200000010800040040000003080E
:10046000704700BFFEE700BFFEE700BFFEE700BF2A
:10047000FEE7704770477047704700000CB50020DA
:10048000019000906C48006840F480306A49086030
:1004900000BF6948006800F4003000900198401CDB
:1004A0000190009818B90198B0F5A06FF1D1624899
:1004B000006800F4003010B10120009001E000203D
:1004C00000900098012843D15C48006840F010007B
:1004D0005A4908600846006820F003000860084692
:1004E000006840F002000860534840685249486084
:1004F0000846406848600846406840F480604860AC
:100500000846406820F47C1048600846406840F483
:10051000E81048600846006840F08070086000BF3E
:100520004548006800F000700028F9D04248406853
:1005300020F00300404948600846406840F002004F
:10054000486000BF3C48406800F00C000828F9D122
:100550000CBD10B5FFF792FF10BD10B5364800680E
:1005600040F00100344908600846406834490840BA
:100570003149486008460068324908402E49086001
:100580000846006820F4802008600846406820F48F
:10059000FE0048604FF41F008860FFF7DAFF4FF05D
:1005A00000602949086010BD10B50021002000221C
:1005B000214B5B6803F00C0121B1042906D0082906
:1005C00028D107E0214B224C236027E01F4B204C11
:1005D000236023E0184B5B6803F47010164B5B68D4
:1005E00003F48032022303EB904022B9194B4343BA
:1005F000174C23600DE0104B5B6803F4003323B10C
:10060000144B4343124C236003E0104B4343104C04
:10061000236003E00D4B0E4C236000BF00BF064B70
:100620005B68C3F303130C4CE15C094B1B68CB40C4
:10063000074C236010BD0000001002400020024063
:100640000000FFF8FFFFF6FE08ED00E000127A0060
:100650000000002000093D00040000200146088839
:1006600070472DE9F04105460E461746002407E085
:1006700036F81410284601F0DCFDAD1C601C84B275
:10068000BC42F5DBBDE8F08130B503460C461546AB
:10069000002207E01846FFF7E1FF24F812009B1C38
:1006A000501C82B2AA42F5DB30BD2DE9F05F8046D6
:1006B0008A461746B8F1006F02D33748804501D308
:1006C000BDE8F09F01F06DFCA8F1006B4FEADB255F
:1006D000CBF34909C9F58064A74200DC3C464DE0F4
:1006E0004FF0006101EBC5204A142C49FFF7CCFF05
:1006F00000260BE009EB0600284931F810004FF600
:10070000FF71884200D003E0701C86B2A642F1DB84
:1007100000BFA6421BDA4FF0006101EBC52001F0DB
:1007200085FC002608E03AF8160006EB09011B4A92
:1007300022F81100701C86B2A642F4DB4FF0006173
:1007400001EBC5204A141549FFF78BFF04E0224650
:1007500051464046FFF785FFA74200D10FE06D1CD0
:100760004FF000090AEB440AA044381B87B2B7F5E2
:10077000806F02DD4FF4806400E03C46B0E700BFCC
:1007800001F01BFC00BF9BE713B50446012201A941
:100790002046FFF78AFF1CBD00000408440000202B
:1007A00010B504462146FB4801F014FB00BF802130
:1007B000F84801F07DFB0028F9D010BD70B5054662
:1007C0000E461446F448007801283AD1AA20FFF7D3
:1007D000E7FF9820FFF7E4FF280AFFF7E1FFE8B200
:1007E000FFF7DEFF300AFFF7DBFFF0B2FFF7D8FFBD
:1007F0002020FFF7D5FF9020FFF7D2FF0320FFF75F
:10080000CFFF0020FFF7CCFF0020FFF7C9FF00203B
:10081000FFF7C6FF0020FFF7C3FF03E014F8010B4A
:10082000FFF7BEFF20780028F8D1CC20FFF7B8FFF3
:100830003320FFF7B5FFC320FFF7B2FF3C20FFF7DF
:10084000AFFF70BD70B505460E461446D24800781D
:1008500001283AD1AA20FFF7A3FF9820FFF7A0FFB5
:10086000280AFFF79DFFE8B2FFF79AFF300AFFF76B
:1008700097FFF0B2FFF794FF2320FFF791FF90203E
:10088000FFF78EFF0320FFF78BFF0020FFF788FFA5
:100890000020FFF785FF0020FFF782FF0020FFF711
:1008A0007FFF03E014F8010BFFF77AFF20780028A0
:1008B000F8D1CC20FFF774FF3320FFF771FFC3207E
:1008C000FFF76EFF3C20FFF76BFF70BD70B505466C
:1008D0000E461446B048007801283AD1AA20FFF706
:1008E0005FFF9820FFF75CFF280AFFF759FFE8B287
:1008F000FFF756FF300AFFF753FFF0B2FFF750FF44
:100900002020FFF74DFF9020FFF74AFF0320FFF75D
:1009100047FFFF20FFF744FFFF20FFF741FF0020C4
:10092000FFF73EFF0020FFF73BFF03E014F8010B49
:10093000FFF736FF20780028F8D1CC20FFF730FFF2
:100940003320FFF72DFFC320FFF72AFF3C20FFF7DE
:1009500027FF70BD2DE9F04104460D4617461E469F
:100960008D48007801283CD1AA20FFF719FF982074
:10097000FFF716FF200AFFF713FFE0B2FFF710FFA3
:10098000280AFFF70DFFE8B2FFF70AFF2020FFF764
:1009900007FF9020FFF704FF0320FFF701FF00206F
:1009A000FFF7FEFE0020FFF7FBFE0020FFF7F8FE3A
:1009B0000020FFF7F5FE03E016F8010BFFF7F0FE4D
:1009C0003800A7F10101CFB2F6D1CC20FFF7E8FE45
:1009D0003320FFF7E5FEC320FFF7E2FE3C20FFF7E0
:1009E000DFFEBDE8F0812DE9F04104460D461746D3
:1009F0001E466948007801283CD1AA20FFF7D0FEA6
:100A00009820FFF7CDFE200AFFF7CAFEE0B2FFF7FD
:100A1000C7FE280AFFF7C4FEE8B2FFF7C1FE232095
:100A2000FFF7BEFE9020FFF7BBFE0320FFF7B8FEE6
:100A30000020FFF7B5FE0020FFF7B2FE0020FFF711
:100A4000AFFE0020FFF7ACFE03E016F8010BFFF746
:100A5000A7FE3800A7F10101CFB2F6D1CC20FFF7F5
:100A60009FFE3320FFF79CFEC320FFF799FE3C203A
:100A7000FFF796FEBDE8F0812DE9F04104460D46F2
:100A800017461E464448007801283CD1AA20FFF7AB
:100A900087FE9820FFF784FE200AFFF781FEE0B270
:100AA000FFF77EFE280AFFF77BFEE8B2FFF778FE2D
:100AB0002020FFF775FE9020FFF772FE0320FFF75E
:100AC0006FFEFF20FFF76CFEFF20FFF769FE00209E
:100AD000FFF766FE0020FFF763FE03E016F8010B48
:100AE000FFF75EFE3800A7F10101CFB2F6D1CC20AE
:100AF000FFF756FE3320FFF753FEC320FFF750FEEB
:100B00003C20FFF74DFEBDE8F08170B504460D4670
:100B100016462148007801283BD1AA20FFF740FE65
:100B20009820FFF73DFE200AFFF73AFEE0B2FFF7FC
:100B300037FE280AFFF734FEE8B2FFF731FE202027
:100B4000FFF72EFE9020FFF72BFE0320FFF728FE75
:100B50000020FFF725FE0020FFF722FE0020FFF710
:100B60001FFE0020FFF71CFE02E02020FFF718FE0A
:100B70003000A6F10101CEB2F7D1CC20FFF710FE74
:100B80003320FFF70DFEC320FFF70AFE3C20FFF7DE
:100B900007FE70BD005000401400002070B50446F0
:100BA0000D4616462C48007801283BD1AA20FFF7B5
:100BB000F7FD9820FFF7F4FD200AFFF7F1FDE0B202
:100BC000FFF7EEFD280AFFF7EBFDE8B2FFF7E8FDBF
:100BD0002320FFF7E5FD9020FFF7E2FD0320FFF75C
:100BE000DFFD0020FFF7DCFD0020FFF7D9FD00202E
:100BF000FFF7D6FD0020FFF7D3FD02E02020FFF72E
:100C0000CFFD3000A6F10101CEB2F7D1CC20FFF725
:100C1000C7FD3320FFF7C4FDC320FFF7C1FD3C2013
:100C2000FFF7BEFD70BD10B50B480078012811D14B
:100C3000AA20FFF7B5FD5220FFF7B2FDCC20FFF749
:100C4000AFFD3320FFF7ACFDC320FFF7A9FD3C202B
:100C5000FFF7A6FD10BD00001400002008B501211B
:100C6000052000F017FF0121092000F013FF0121EA
:100C7000102000F00FFF0121212000F00BFF0121C7
:100C8000402000F007FF0120ADF8000003208DF8A0
:100C9000020010208DF8030069463F4800F03EFC3A
:100CA0008020ADF8000003208DF8020010208DF8A0
:100CB00003006946394800F031FC4FF4E040ADF8DC
:100CC000000004208DF803006946354800F026FC3A
:100CD0004FF48050ADF8000018208DF803006946ED
:100CE0002E4800F01BFC0120ADF8000010208DF80C
:100CF000030069462A4800F011FC1020ADF80000FE
:100D000003208DF8020004208DF803006946244872
:100D100000F004FC2020ADF8000003208DF8020054
:100D200004208DF8030069461D4800F0F7FB4020C1
:100D3000ADF8000003208DF8020004208DF80300B8
:100D40006946174800F0EAFB8020ADF80000032058
:100D50008DF8020004208DF803006946104800F069
:100D6000DDFB4FF40040ADF8000003208DF80200D9
:100D700010208DF803006946094800F0CFFB08BD3C
:100D800010B5FFF76BFF012005491031086010BD59
:100D90007047704770470000001801400010014084
:100DA000001401407FB505460C460121022000F0E9
:100DB0007EFEADF80850ADF804400020ADF80A0002
:100DC000ADF8060001A9394801F0A2FC0122114644
:100DD000364802F014F81D208DF8000005208DF82B
:100DE000010003208DF8020001208DF80300684601
:100DF00000F0CBFA01212D4801F0E6FF7FBD10B5D0
:100E000001212A4802F0A9FA80B10121274802F005
:100E1000B5FA27480088401C254908802548006805
:100E200008B9012000E000202249086010BD7FB50C
:100E300005460C460121042000F039FEADF80850AB
:100E4000ADF804400020ADF80A00ADF8060001A995
:100E5000194801F05DFC01221146174801F0CFFF4F
:100E60001E208DF8000006208DF8010003208DF86B
:100E7000020001208DF80300684600F086FA7FBD6D
:100E800010B501210C4802F068FA70B101210A483E
:100E900002F074FA09480088401C08490880084696
:100EA0000088782801DD02F0D5FB10BD0004004069
:100EB0001600002080012342000800401800002096
:100EC00010B56FF0040000F0AAFA2E4800682E4911
:100ED000B0FBF1F02D4908700846007800EB4001A6
:100EE000C1EBC0104FF6FF7101EAC000284908802D
:100EF00010BD0146254A12784A434FF0E0235A615B
:100F000000229A611A46126942F001021A6100BF7A
:100F10004FF0E022106900F001021AB100F48032B3
:100F2000002AF5D04FF0E022126922F001024FF0C2
:100F3000E0231A6100229A6170470146144A128820
:100F40004A434FF0E0235A6100229A611A4612691F
:100F500042F001021A6100BF4FF0E022106900F078
:100F600001021AB100F48032002AF5D04FF0E022DD
:100F7000126922F001024FF0E0231A6100229A6107
:100F8000704700000000002000127A001A000020C4
:100F90001C00002010B54FF4A06000F0F1F910BD66
:100FA000014600BF704700BFD84A128802F04002D5
:100FB000002AF9D0C2B2D54B1B1D1A80704710B55C
:100FC00040F22551D14800F089FF88B1CF4800F0A8
:100FD00005FFC4B2CE480088B0F5204F08DACD48EE
:100FE000CB4909884454CA480088401CC849088035
:100FF00010BD10B586B00446012144F2040000F093
:1010000049FD4FF40070ADF8140003208DF8160070
:1010100018208DF8170005A9BF4800F07FFA4FF49B
:101020008060ADF8140004208DF8170005A9BA48B7
:1010300000F074FA01940020ADF80800ADF80A0041
:10104000ADF80C00ADF810000C20ADF80E0001A9B1
:10105000AE4800F0C6FD25208DF8000003208DF875
:1010600001008DF8020001208DF80300684600F0B1
:101070008CF9012240F22551A44800F04AFE0121DA
:10108000A24800F03AFE06B010BD10B5002440F2B0
:101090002551A24800F00CFFF0B1A04800F09EFEE0
:1010A000C4B29F480088B0F5816F0FDA9C48008871
:1010B00000F40040B0F5004F08D09948018800883E
:1010C000401C974A10809748445405E09448008893
:1010D00040F400409249088010BD10B586B0044627
:1010E0000121914800F0E3FC4FF48060ADF814005A
:1010F00003208DF8160018208DF8170005A98B48DD
:1011000000F00CFA4FF40060ADF8140004208DF8E4
:10111000170005A9854800F001FA01940020ADF8F8
:101120000800ADF80A00ADF80C00ADF810000C2076
:10113000ADF80E0001A9794800F053FD27208DF885
:10114000000000208DF8010003208DF8020001202E
:101150008DF80300684600F018F9002240F225518E
:101160006E4800F0D6FD01216C4800F0C6FD06B0C7
:1011700010BD10B5002440F225516D4800F098FED6
:10118000F0B16B4800F02AFEC4B265480088B0F5A3
:10119000816F0FDA6248008800F40040B0F5004F1C
:1011A00008D05F4801880088401C5D4A10805D4877
:1011B000445405E05A48008840F4004058490880EB
:1011C00010BD10B586B0044601215A4800F06FFCEE
:1011D0004FF48060ADF8140003208DF8160018203D
:1011E0008DF8170005A9544800F098F94FF40060F5
:1011F000ADF8140004208DF8170005A94E4800F042
:101200008DF901940020ADF80800ADF80A00ADF8A2
:101210000C00ADF810000C20ADF80E0001A94448F8
:1012200000F0DFFC34208DF8000001208DF8010073
:1012300003208DF8020001208DF80300684600F0BD
:10124000A4F8002240F22551394800F062FD012146
:10125000374800F052FD06B010BD10B540F22661CF
:10126000364800F03BFE50B140F22661334800F0B2
:101270005FFE002240F22661304800F04AFD10BDBA
:1012800010B586B0044601214FF0101000F00FFC9D
:101290004FF48050ADF8140003208DF8160018208C
:1012A0008DF8170005A9244800F038F901940020B2
:1012B000ADF80800ADF80A00ADF80C00ADF810006C
:1012C0000C20ADF80E0001A91C4800F08AFC352066
:1012D0008DF8000004208DF8010003208DF8020035
:1012E00001208DF80300684600F04FF8012240F21B
:1012F0002551124800F00DFD0121104800F0FDFCC1
:1013000040210E4800F0E1FD06B010BD003801405C
:101310002600002000100020000801400048004086
:10132000400000204408002008000400000C014098
:10133000004C004010000800001001400050004028
:101340000948804709480047FEE7FEE7FEE7FEE759
:10135000FEE7FEE7FEE7FEE7FEE7FEE70448054995
:10136000054A064B704700005B0500083101000884
:10137000B00C002000B40020B00E002000B000200F
:1013800031490143314A1160704770B50021002393
:101390000F22C47804B32D4C246804F4E064C4F52F
:1013A000E064210AC1F10403CA40447804FA03F15D
:1013B0008478144021430901254C0678A15504780E
:1013C00004F01F050124AC4005786D11AD0005F156
:1013D000E025C5F8004109E0047804F01F05012468
:1013E000AC401C4D0678761145F8264070BD1A4A6F
:1013F0000A400243154B1B1F1A60704739B1134A4C
:10140000121D12680243114B1B1D1A6006E00F4AA1
:10141000121D126882430D4B1B1D1A607047042871
:1014200008D14FF0E021096941F004014FF0E022BA
:10143000116107E04FF0E021096921F004014FF04C
:10144000E0221161704700000000FA050CED00E099
:1014500000E400E080E100E080FFFF1F10B50446DB
:10146000CC48844208D10121042000F02DFB00214A
:10147000042000F029FB46E0C748844208D101213E
:10148000082000F021FB0021082000F01DFB3AE0BD
:10149000C248844208D10121102000F015FB002130
:1014A000102000F011FB2EE0BD48844208D101213C
:1014B000202000F009FB0021202000F005FB22E0A5
:1014C000B848844208D10121402000F0FDFA0021F3
:1014D000402000F0F9FA16E0B348844208D1012117
:1014E000802000F0F1FA0021802000F0EDFA0AE0FF
:1014F000AE48844207D10121801500F0E5FA0021B1
:10150000A01500F0E1FA10BD10B50121084600F069
:10151000DBFA0021012000F0D7FA10BD2DE9F041DF
:10152000024600250026002000230024002791F811
:1015300003C00CF00F0591F803C00CF0100CBCF1C7
:10154000000F03D091F802C04CEA050591F800C0E5
:10155000BCF1000F31D0146800202BE04FF0010CDB
:101560000CFA00F3B1F800C00CEA03069E4220D149
:1015700083004FF00F0C0CFA03F7BC4305FA03FC91
:101580004CEA040491F803C0BCF1280F06D14FF0D7
:10159000010C0CFA00FCC2F814C00AE091F803C078
:1015A000BCF1480F05D14FF0010C0CFA00FCC2F859
:1015B00010C0401C0828D1D31460B1F800C0BCF1A1
:1015C000FF0F34DD546800202EE000F1080C4FF0CE
:1015D000010808FA0CF3B1F800C00CEA03069E42B9
:1015E00021D183004FF00F0C0CFA03F7BC4305FA2E
:1015F00003FC4CEA040491F803C0BCF1280F05D1A8
:1016000000F1080C08FA0CF8C2F8148091F803C035
:10161000BCF1480F07D100F1080C4FF0010808FA9F
:101620000CF8C2F81080401C0828CED35460BDE8E6
:10163000F0814FF6FF710180022181700421C17099
:1016400070470246002093680B400BB1012000E078
:10165000002070470146886880B27047024600202B
:10166000D3680B400BB1012000E000207047014619
:10167000C86880B2704701617047416170470AB124
:10168000016100E041617047C16070474FF48032F2
:101690000A43826181618261826982697047024680
:1016A0000020434B18684FF68073184040EA021040
:1016B00008433F4B186070473E49C8617047F0B51A
:1016C0000A46002300240021002500F00046B6F160
:1016D000004F02D1364EF16901E0354E7168C0F31A
:1016E000034583B200F44016B6F5401F08D121F03F
:1016F00070612F4E766826F070662D4F7E6012E086
:1017000000F48016B6F5801F06D1032606FA05F40C
:10171000A14341F0706106E0460D360103FA06F67A
:10172000B14341F0706122B1460D360103FA06F66D
:10173000314300F00046B6F1004F02D11C4EF1617A
:1017400001E01B4E7160F0BD30B500228B071C0F0D
:101750000F2303FA04F2164B08338C1053F824308D
:101760009343134C08348D1044F8253023468C10D5
:1017700053F824308C07240F00FA04F423430C4C54
:1017800008348D1044F8253030BD0A49DC3108603A
:101790007047000000080140000C014000100140AB
:1017A0000014014000180140001C014000200140CD
:1017B0000000014000002042DF48006840F00100C6
:1017C000DD49086008464068DC490840DA4948605D
:1017D00008460068DA490840D749086008460068AA
:1017E00020F4802008600846406820F4FE0048602D
:1017F0004FF41F0088607047CF49096821F4803199
:10180000CD4A11601146096821F480211160B0F5BC
:10181000803F03D0B0F5802F0ED106E0C64909689D
:1018200041F48031C44A116007E0C349096841F4BA
:10183000A021C14A116000E000BF00BF704710B591
:1018400001460022002300204A11012A02D1BA4C8D
:10185000236806E0022A02D1B74C236A01E0B64CA5
:10186000636A01F01F02012494401C400CB1012066
:1018700000E0002010BD38B50020009000240025B5
:1018800000BF3120FFF7DBFF05460098401C0090A9
:101890000098B0F5A06F01D0002DF2D03120FFF7F5
:1018A000CEFF08B1012400E00024204638BD0146E7
:1018B0000020A14A106820F0F80040EAC100106042
:1018C0007047A04908607047024600209A4B58684C
:1018D00020F47C1042EA01031843974B586070478C
:1018E00098490866704701460020934A506820F0E6
:1018F00003000843506070478F48406800F00C00B8
:101900007047014600208C4A506820F0F0000843E0
:101910005060704701460020874A506820F4E0601C
:1019200008435060704701460020834A506820F405
:10193000605040EAC1005060704729B17E4A527A37
:1019400002437D4B5A7204E07B4A527A82437A4BBF
:101950005A7270477B49D8310860704701460020B1
:10196000754A506820F44040084350607047002199
:10197000714A20321170704A82F82010012802D07A
:1019800004280AD104E001216B4A2032117005E0DD
:101990000521694A2032117000E000BF00BF704786
:1019A0006949086070476449096A0143624A1162E3
:1019B0007047654944390860704730B500210022FE
:1019C000002400235C4D6D6805F00C0121B1042951
:1019D00005D0082923D105E05C4D056022E05B4D70
:1019E00005601FE0544D6D6805F47012524D6D682E
:1019F00005F48034022505EB92421CB9544D554341
:101A000005600BE04C4D6D6805F400351DB1504D7F
:101A10005543056002E04D4D5543056002E04B4DD6
:101A2000056000BF00BF444D6D6805F0F001090975
:101A3000484D6B5C0568DD4045603F4D6D6805F4C1
:101A4000E061090A434D6B5C4568DD4085603A4DB5
:101A50006D6805F46051C90A3E4D6B5C4568DD4018
:101A6000C560354D6D6805F44041890B3A4D6B5C9E
:101A7000C568B5FBF3F5056130BD29B12E4A526941
:101A800002432D4B5A6104E02B4A526982432A4B90
:101A90005A61704729B1284A92690243264B9A61DC
:101AA00004E0254A92698243234B9A61704729B129
:101AB000214AD2690243204BDA6104E01E4AD2690E
:101AC00082431D4BDA61704729B11B4AD268024339
:101AD000194BDA6004E0184AD2688243164BDA6088
:101AE000704729B1144A12690243134B1A6104E08A
:101AF000114A12698243104B1A61704712494039EA
:101B0000086070470F49C86470470B49C871704737
:101B10000948406A40F080700749486270470146B2
:101B20000020054A92680A400AB1012000E0002026
:101B30007047014988727047001002400000FFF8AA
:101B4000FFFFF6FE000042428004424200127A008B
:101B500000093D00280000203800002010B5044690
:101B6000FB48844209D101218803FFF7ADFF002122
:101B70004FF48040FFF7A8FF32E0F648844209D1D5
:101B800001214804FFF7ADFF00214FF40030FFF7BB
:101B9000A8FF25E0F048844209D101218804FFF71D
:101BA000A0FF00214FF48020FFF79BFF18E0EB48D7
:101BB000844209D10121C804FFF793FF00214FF4AB
:101BC0000020FFF78EFF0BE0E548844208D1012199
:101BD0000805FFF786FF00214FF48010FFF781FF13
:101BE00010BD2DE9F04786B005460E460024A246FA
:101BF00000BFA1460027B08900B100BF2F462C8A44
:101C00004CF6FF700440F08804432C82AC894EF6F9
:101C1000F3100440B08831890843718908430443B4
:101C2000AC81AC8A4FF6FF400440B0890443AC82DB
:101C300001A8FFF7C2FEC648874202D1DDF810A016
:101C400001E0DDF80CA0A88900F4004040B10AEBE7
:101C5000CA0000EB0A1031684900B0FBF1F807E058
:101C60000AEBCA0000EB0A1031688900B0FBF1F8FA
:101C70006420B8FBF0F004012009642101FB108905
:101C8000A88900F4004040B1322000EBC900B0FB4D
:101C9000F1F000F00700044308E0322000EB0910E7
:101CA0006421B0FBF1F000F00F0004432C8106B07A
:101CB000BDE8F0874FF41651016000218180C1809A
:101CC00001810C21418100218181704710B50246BC
:101CD0000020108A4FF2FF0318400B884C882343E2
:101CE0008C882343CC8823431843108210BD0021E5
:101CF000018041808180C180704721B1828942F496
:101D00000052828104E082894DF6FF731A4082817D
:101D10007047F0B50346002400260025002040F659
:101D20006A17B94200D100BF1846C1F3421401F04E
:101D30001F06012707FA06F5012C01D10C3004E03B
:101D4000022C01D1103000E014301AB107682F4383
:101D5000076002E00768AF430760F0BD1AB1838AED
:101D60000B43838202E0838A8B4383827047028A1B
:101D70004FF6F0731A400282028A0A4302827047C9
:101D800082894FF2FF731A40828182890A438281DD
:101D9000704721B1828942F00202828104E0828987
:101DA0004FF6FD731A4082817047028A4FF6DF7347
:101DB0001A400282028A0A430282704721B1028AD3
:101DC00042F48042028204E0028A4BF6FF731A401A
:101DD00002827047C1F308028280704701468888FA
:101DE000C0F308007047818941F00101818170478B
:101DF000028BD2B20283028B42EA01220283704735
:101E0000028B02F47F420283028B0A4302837047F3
:101E100021B1828A42F02002828204E0828A4FF657
:101E2000DF731A408282704721B1828A42F0100229
:101E3000828204E0828A4FF6EF731A4082827047F2
:101E400021B1828A42F00802828204E0828A4FF63F
:101E5000F7731A408282704721B1828942F40042AE
:101E6000828103E08289C2F30E028281704721B130
:101E7000828A42F40062828204E0828A4FF2FF7317
:101E80001A4082827047828A4FF6FB731A40828220
:101E9000828A0A438282704721B1828A42F002021A
:101EA000828204E0828A4FF6FD731A408282704774
:101EB00002460020B1F5007F00D100BF13880B401F
:101EC0000BB1012000E00020704701F40072B2F570
:101ED000007F00D100BFCA430280704770B5024640
:101EE000002400230025002040F66A16B14200D1EC
:101EF00000BFC1F3421501F01F03012606FA03F3E8
:101F0000012D02D19689334006E0022D02D1168AB6
:101F1000334001E0968A33400C12012606FA04F49D
:101F20001688344013B10CB1012000E0002070BDD0
:101F300010B50022002340F66A14A14200D100BF70
:101F40000A1201249440A3B2DC43048010BD0000B7
:101F5000003801400044004000480040004C004070
:101F60000050004001460020FE4A106800F0380092
:101F7000084310607047FB49096821F00801F94ADD
:101F8000116011460968014311607047F5490968FD
:101F900021F01001F34A11601146096801431160F4
:101FA0007047F148EF494860F04848607047EE4894
:101FB000EC494860ED4848607047EA48006940F0E5
:101FC0008000E84908617047E648006940F08000F9
:101FD000E449086170470420E249C96801F0010141
:101FE00009B101200EE0DF49C96801F0040109B11F
:101FF000022007E0DB49C96801F0100109B10320A4
:1020000000E00420704700B502460423FFF7E3FF19
:10201000034603E0FFF7DFFF0346521E012B01D109
:10202000002AF7D102B90523184600BD30B5044691
:1020300004254FF43020FFF7E6FF0546042D17D1A5
:10204000C848006940F00200C6490861084644617A
:10205000006940F0400008614FF43020FFF7D3FFE3
:102060000546C048006941F6FD710840BD49086158
:10207000284630BD10B504244FF43020FFF7C3FFCD
:102080000446042C16D1B748006940F00400B54955
:1020900008610846006940F0400008614FF43020B4
:1020A000FFF7B1FF0446AF48006941F6FB710840F5
:1020B000AC490861204610BD00B502460423FFF775
:1020C0008AFF034603E0FFF786FF0346521E012BFB
:1020D00001D1002AF7D102B90523184600BD10B579
:1020E00004244FF43020FFF7E7FF0446042C16D1F8
:1020F0009C48006940F004009A490861084600695C
:1021000040F0400008614FF43020FFF7D5FF04464F
:102110009448006941F6FB710840924908612046E5
:1021200010BD00208F49C96901F0020109B10120E9
:1021300000E00020704730B5A5250424FFF7F1FF2B
:1021400000B100254FF43020FFF75DFF0446042C5A
:102150003AD1854883498860844888600846006988
:1021600040F0200008610846006940F04000086126
:102170004FF43020FFF747FF0446042C1BD1794869
:10218000006941F6DF710840764908610846006938
:1021900040F01000086176480580E002FFF733FF49
:1021A0000446052C10D06F48006941F6EF710840D5
:1021B0006C49086108E0052C06D06A48006941F6C0
:1021C000EF71084067490861204630BD78B5064682
:1021D0000C46042500200090E802FFF714FF054696
:1021E000042D24D15F48006940F001005D49086179
:1021F0003480E802FFF707FF0546042D10D1B01C1C
:102200000090200C00990880E802FFF7FCFE0546CC
:102210005448006941F6FE7108405249086106E0E1
:102220005048006941F6FE7108404E490861284651
:1022300078BD70B504460D460426F002FFF7E3FEB4
:102240000646042E11D14748006940F00100454977
:1022500008612580F002FFF7D6FE06464148006976
:1022600041F6FE7108403F490861304670BD70B5C7
:1022700005460E460424E002FFF7C5FE0446042C82
:1022800017D139483749886038488860084600695E
:1022900040F0100008612E80E002FFF7B4FE044613
:1022A000052C06D02F48006941F6EF7108402D49F2
:1022B0000861204670BD2DE9F04304464FF6FF76D5
:1022C0003746B046B1460425E443E6B2C4F30727D7
:1022D000C4F307484FEA1469E802FFF794FE054685
:1022E000042D49D120481F4988602048886008464D
:1022F000006940F010000861FF2E06D01C4808302D
:102300000680E802FFF77FFE0546042D08D1FF2F67
:1023100006D017480A300780E802FFF774FE05462A
:10232000042D0AD1B8F1FF0F07D011480C30A0F8E6
:102330000080E802FFF767FE0546042D0AD1B9F1D7
:10234000FF0F07D00A480E30A0F80090E802FFF710
:102350005AFE0546052D0FD00248006941F6EF717F
:10236000084007E00020024023016745AB89EFCD1C
:1023700000F8FF1F664908612846BDE8F08330B5C4
:10238000054604244FF43020FFF73DFE0446042C9C
:1023900041D160485E4988605F48886008460069AE
:1023A00040F0200008610846006940F040000861E4
:1023B0004FF43020FFF727FE0446042C22D1544866
:1023C000006941F6DF71084051490861084600691B
:1023D00040F0100008611DB100205049088002E063
:1023E000A5204E4908804FF43020FFF70CFE04462C
:1023F000052C10D04648006941F6EF710840444969
:10240000086108E0052C06D04148006941F6DF71FB
:1024100008403F490861204630BDF0B505460E46EC
:10242000174604243B483A4988603B488860E002EC
:10243000FFF7E9FD0446042C19D13548006940F046
:1024400010003349086147F0F8003043284333490E
:10245000891C0880E002FFF7D6FD0446052C06D053
:102460002B48006941F6EF71084029490861204670
:10247000F0BD2748C069800870472548006A70474A
:1024800000202349096801F0200109B1012000E082
:102490000020704729B11E4A126902431C4B1A6181
:1024A00004E01B4A12698243194B1A6170470146C6
:1024B0000020012908D1164AD26902F001020AB1AE
:1024C000012008E0002006E0114AD2680A400AB163
:1024D000012000E0002070470D49C86070470420CB
:1024E0000B49C96801F0010109B101200EE008495A
:1024F000C96801F0040109B1022007E00449C96874
:1025000001F0100109B1032000E004207047000031
:102510000020024023016745AB89EFCD00F8FF1F83
:10252000012010498860704701460E48016000682C
:10253000704710B502460B46002100BF04E052F878
:102540002100084C2060491C9942F8D305480068D6
:1025500010BD04480068704702490871704701487F
:10256000007970470030024010B50446FE488442AE
:1025700008D10121C014FFF7A7FA0021E014FFF7EA
:10258000A3FAC4E0B4F1804F08D101210846FFF757
:10259000A8FA00210120FFF7A4FAB8E0F34884422A
:1025A00008D101210220FFF79CFA00210220FFF749
:1025B00098FAACE0EE48844208D101210420FFF7EC
:1025C00090FA00210420FFF78CFAA0E0E948844249
:1025D00008D101210820FFF784FA00210820FFF725
:1025E00080FA94E0E448844208D101211020FFF7EA
:1025F00078FA00211020FFF774FA88E0DF4884425F
:1026000008D101212020FFF76CFA00212020FFF7DC
:1026100068FA7CE0DA48844208D101214014FFF7CF
:1026200053FA00216014FFF74FFA70E0D548844256
:1026300009D10121C804FFF747FA00214FF4002017
:10264000FFF742FA63E0D048844209D1012108052E
:10265000FFF73AFA00214FF48010FFF735FA56E001
:10266000CA48844209D101214805FFF72DFA00210B
:102670004FF40010FFF728FA49E0C548844208D11A
:1026800001214020FFF72DFA00214020FFF729FA11
:102690003DE0C048844208D101218020FFF721FAA3
:1026A00000218020FFF71DFA31E0BB48844208D1A9
:1026B00001218015FFF715FA0021A015FFF711FA87
:1026C00025E0B648844209D101210804FFF7FCF94E
:1026D00000214FF48030FFF7F7F918E0B04884424A
:1026E00009D101214804FFF7EFF900214FF4003030
:1026F000FFF7EAF90BE0AB48844208D101218804D6
:10270000FFF7E2F900214FF48020FFF7DDF910BD5B
:1027100000220288944B98420ED0994B98420BD0DD
:10272000B0F1804F08D0914B984205D0904B984221
:1027300002D0904B984204D14FF68F731A404B88C9
:102740001A438D4B984207D08C4B984204D04FF6D9
:10275000FF431A40CB881A4302808B8883850B88FD
:102760000385814B98420BD0854B984208D08B4B08
:10277000984205D08A4B984202D08A4B984201D1A8
:102780000B7A038601238382704770B500240022F0
:102790000023058C4FF6FE7635400584028C838835
:1027A000048B4FF68F752C40B51E2C400D882C43A2
:1027B000751E2A400D892A434D882A436A4DA84236
:1027C0000BD06F4DA84208D0744DA84205D0744D6F
:1027D000A84202D0734DA84213D14FF6F7752A4094
:1027E0004D892A434FF6FB752A408D882A434FF6C0
:1027F000FF652B404FF6FF552B408D892B43CD892C
:102800002B4383800483CD888586028470BD70B598
:10281000002400220023058C4FF6EF763540058416
:10282000028C8388048B48F6FF752C404FF6FF45D9
:102830002C400D884FF6FF7606EA05252C434FF60F
:10284000DF752A400D8906EA05152A434D8806EAF8
:1028500005152A43444DA84202D0494DA8421DD136
:102860004FF67F752A404D894FF6FF7606EA05152B
:102870002A434FF6BF752A408D8806EA05152A437C
:102880004FF6FF352B404FF2FF752B408D8906EA3E
:1028900085052B43CD8906EA85052B438380048378
:1028A000CD880587028470BD70B500240022002306
:1028B000058C4FF6FF6635400584028C8388848B37
:1028C0004FF68F752C404FF6FC752C400D882C432D
:1028D0004FF6FF552A400D894FF6FF7606EA05258B
:1028E0002A434D8806EA05252A431F4DA84202D0F7
:1028F000234DA8421DD14FF2FF752A404D894FF656
:10290000FF7606EA05252A434FF6FF352A408D88D3
:1029100006EA05252A434EF6FF752B404DF6FF7556
:102920002B408D8906EA05152B43CD8906EA05154E
:102930002B4383808483CD888587028470BD70B5E6
:10294000002200230024058C4EF6FF7635400584D6
:10295000038C8488828B48F6FF752A404FF6FF452A
:102960002A400D8820E00000002C014000040040B7
:1029700000080040000C004000100040001400401F
:1029800000340140004C014000500140005401401F
:1029900000180040001C00400020004000400140A2
:1029A00000440140004801404FF6FF7606EA052545
:1029B0002A434DF6FF752B400D8906EA05352B435A
:1029C0004D8806EA05352B43FA4DA84202D0FA4D50
:1029D000A84208D14BF6FF752C408D894FF6FF7643
:1029E00006EA85152C4384808283CD88A0F8405068
:1029F000038470BD828B4FF2FF331A408283828B37
:102A00004FF6FF7303EA01231A4382837047F0B540
:102A10000C461546002200210026078C4EF6FF7C4E
:102A200007EA0C070784828B018C4FF6FF7707EAD1
:102A3000043640F6FF473A404FF6FF7707EA05278E
:102A40003A434FF6FF7707EA03373A43D94FB84284
:102A50000ED0D94FB8420BD0B0F1804F08D0D74F2D
:102A6000B84205D0D64FB84202D0D64FB84206D1B0
:102A70004DF6FF77394046F48057394305E047F675
:102A8000FF57394044F48057394382830184F0BDB5
:102A9000828B4FF6F3731A408283828B0A438283C0
:102AA0007047F0B50C461546002200210026078C21
:102AB0004FF6FF6C07EA0C070784828B018C4FF6F8
:102AC000FF7707EA04264FF60C773A404FF6FF7778
:102AD00007EA03172F433A43B64FB8420ED0B64F1A
:102AE000B8420BD0B0F1804F08D0B44FB84205D0F7
:102AF000B34FB84202D0B34FB84206D14FF6FF579A
:102B0000394046F48077394305E04FF2FF573940AA
:102B100044F48077394382830184F0BD028B4FF205
:102B2000FF331A400283028B4FF6FF7303EA01233F
:102B30001A4302837047F0B50C4615460022002167
:102B40000026078C4FF6EF7C07EA0C070784028B00
:102B5000018C4FF6FF7707EA041640F6FF473A402C
:102B60004FF6FF7707EA03373A434FF6FF7707EA56
:102B700005273A438F4FB8420ED08F4FB8420BD043
:102B8000B0F1804F08D08D4FB84205D08C4FB8427D
:102B900002D08C4FB84206D14FF6DF77394046F06D
:102BA0001007394305E04FF65F77394044F01007CE
:102BB000394302830184F0BD028B4FF6F3731A4050
:102BC0000283028B0A4302837047F0B50C46154618
:102BD00000220021068C4FF6FE773E400684028BD1
:102BE000018C4FF60C7632407E1C06EA03162E430B
:102BF0003243704EB0420ED06F4EB0420BD0B0F1A7
:102C0000804F08D06D4EB04205D06D4EB04202D01C
:102C10006C4EB04206D14FF6FD76314044F00106CD
:102C2000314305E04FF6F576314044F0010631437B
:102C300002830184F0BD70B505460C465D488542AF
:102C40000ED05D4885420BD0B5F1804F08D05B486F
:102C5000854205D05A48854202D05A48854200D163
:102C600000E000BF208850B92389A28861882846E7
:102C7000FFF7ABFFE1882846FFF79EFF25E020889D
:102C800004280AD12389A28861882846FFF753FFC8
:102C9000E1882846FFF742FF17E0208808280AD17C
:102CA0002389A28861882846FFF7FBFEE188284631
:102CB000FFF7EEFE09E02389A28861882846FFF726
:102CC000A6FEE1882846FFF795FE70BD2DE9F0418C
:102CD00005460C4600260127608808B9022600E058
:102CE0000026A088012801D1022700E001272088C2
:102CF000A0B92389A28861882846FFF766FFE1888A
:102D00002846FFF759FF23893A4631462846FFF700
:102D100012FFE1882846FFF701FF13E02389A2880C
:102D200061882846FFF707FFE1882846FFF7F6FE8F
:102D300023893A4631462846FFF747FFE18828466F
:102D4000FFF73AFFBDE8F0810A884B881A438B8869
:102D50001A43CB881A430B891A434B891A438B8930
:102D60001A43A0F8442070474FF6FF71818000217C
:102D70000180C18041800172704700210180418043
:102D80008180C180018141818181C18170470021A1
:102D900001804180012181800021C1800181704733
:102DA0000021018041808180C18001814181818138
:102DB00070470000002C0140003401400004004036
:102DC00000080040000C004021B1028842F00102DE
:102DD000028004E002884FF6FE731A4002807047BA
:102DE00031B1B0F8442042F40042A0F8442005E09C
:102DF000B0F84420C2F30E02A0F8442070471AB184
:102E000083890B43838102E083898B4383817047ED
:102E10008182704741EA0203A0F8483070471AB136
:102E200083890B43838102E083898B4383817047CD
:102E300001894FF6F8721140018170470A4600215E
:102E400001894FF68F73194011430181704730B5E6
:102E500004460D4629462046FFF7F0FF208940F042
:102E60000700208130BD2DE9F04104460D4616468D
:102E70001F46602D06D13B46012231462046FFF712
:102E80005AFE05E03B46012231462046FFF79DFEF3
:102E900029462046FFF7D2FF208940F00700208115
:102EA000BDE8F08130B50C4600210189C9B24FF66A
:102EB000FF7505EA0325154325432943018130BDEC
:102EC0002DE9F04105460E46174698460024434634
:102ED0003A4631462846FFF7E5FF2C894FF6F87051
:102EE000044044F007044FF68F70044044F070042F
:102EF0002C81BDE8F081F0B504460D4616461F460C
:102F00003B46324629462046FFF7CCFF208940F455
:102F100080402081F0BD0185828270470A460021F1
:102F200001884FF68F731940114301807047F0B547
:102F30000C4615461E460021002200230189028B03
:102F4000038C4FF6F877394021434FF6FC473A405F
:102F500040F201173A434FF6DD773B404FF6FF77DB
:102F600007EA06172F433B43018102830384F0BD28
:102F70000A460021018B4FF68F73194011430183DC
:102F800070470A460021018B48F6FF7319404FF63F
:102F9000FF7303EA02231943018370470A460021A5
:102FA000818B4FF68F7319401143818370470A4616
:102FB0000021818B48F6FF7319404FF6FF7303EA37
:102FC000022319438183704721B1028842F08002B5
:102FD000028004E002884FF67F731A400280704737
:102FE00021B1828842F00402828004E082884FF698
:102FF000FB731A408280704721B1828842F0080238
:10300000828004E082884FF6F7731A40828070470E
:1030100021B1828842F00102828004E082884FF66A
:10302000FE731A40828070470A460021018B4FF6DA
:10303000F77319401143018370470A460021018B41
:103040004FF2FF7319404FF6FF7303EA022319434F
:10305000018370470A460021818B4FF6F7731940B0
:103060001143818370470A460021818B4FF2FF7321
:1030700019404FF6FF7303EA022319438183704717
:103080000A460021018B4FF6FB731940114301835F
:1030900070470A460021018B4FF6FF3319404FF667
:1030A000FF7303EA02231943018370470A46002194
:1030B000818B4FF6FB7319401143818370470A4699
:1030C0000021818B4FF6FF3319404FF6FF7303EA5F
:1030D00002231943818370470A460021018B4FF672
:1030E0007F7319401143018370470A460021018B09
:1030F000C1F30E014FF6FF7303EA02231943018364
:1031000070470A460021818B4FF67F7319401143A7
:10311000818370470A460021818BC1F30E014FF66F
:10312000FF7303EA02231943818370470A46002193
:10313000018C4FF6FD7319401143018470470A4614
:103140000021018C4FF6F773194011430184704739
:103150000A460021018C4FF6DF7319404FF6FF73CA
:1031600003EA02131943018470470A460021018CC7
:103170004FF67F7319404FF6FF7303EA02131943AA
:10318000018470470A460021018C4FF6FF53194015
:103190004FF6FF7303EA02231943018470470A467E
:1031A0000021018C4FF2FF7319404FF6FF7303EAC1
:1031B00002231943018470470A460021018C4DF611
:1031C000FF7319404FF6FF7303EA0233194301847A
:1031D000704730B5002301248C40A3B2048C9C437B
:1031E0000484048C02FA01F5ADB22C43048430BD92
:1031F00030B5002304248C40A3B2048C9C43048487
:10320000048C02FA01F5ADB22C43048430BD70B5D4
:103210000346002000241846183001258D40ACB22A
:103220001D8CA5431D8409B1082909D100EB61005B
:10323000056825F0700505600568154305600EE01A
:103240000D1FC5F34E052844056825F4E0450560CB
:1032500005684FF6FF7606EA02263543056070BD25
:1032600021B1028842F00202028004E002884FF697
:10327000FD731A400280704721B1028842F00402B7
:10328000028004E002884FF6FB731A400280704708
:1032900021B1828842F08002828004E082884FF669
:1032A0007F731A408280704702884FF6F7731A4086
:1032B000028002880A430280704782884FF68F732B
:1032C0001A40828082880A438280704702894FF6C2
:1032D000F8731A40028102890A4302817047028909
:1032E0004FF67F731A40028102890A4302817047B8
:1032F0008184704781857047818670470187704758
:1033000081877047A0F84010704702884FF6FF434E
:103310001A40028002880A43028070470146888E64
:1033200070470146088F70470146888F70470146F5
:10333000B1F8400070470146888C70470146088DFF
:10334000704702460020138A0B400BB1012000E0B9
:1033500000207047CA430282704730B50246002001
:1033600000230024158A05EA0103958905EA010472
:1033700013B10CB1012000E0002030BDCA4302822D
:103380007047000010B501214020FEF776FB10BD0C
:103390002DE9F04105460C461646601E84B2FFF743
:1033A000BFF806E0286807BA074807602D1D601EB1
:1033B00084B2002CF6D104480068B04202D000204C
:1033C000BDE8F0810120FBE7003002402DE9F04725
:1033D000ADF5816D0546002400260020CDF80404DB
:1033E00000278046A9464FF4806101A800F058F9F3
:1033F0009BE000208049088000BF8048008800F4DE
:1034000000400028F9D07E4800787D49497840EA9C
:103410000120CDF80404022406E07948015DA01ED5
:1034200001AA1154601C84B2BDF80404801C8442BB
:10343000F3DB734890F80204714991F8031440EAF1
:1034400001276F4890F8070400066D4991F80614AB
:1034500040EA01406A4991F8051440EA01206849B0
:1034600091F8041440EA01084FF4806000FB07590A
:103470004FF481642046E11704EB91718C104246B1
:1034800021465F48FFF784FF30B95EA000F0FCF8EA
:1034900000205A49088048E0BDF80404B0F5806F68
:1034A00022DABDF8040400EBD0714910A0EB410111
:1034B00029B1BDF80404401C80B2CDF80404BDF865
:1034C00004A40AEBDA70421001A94846FDF7EDF8B2
:1034D000701C86B201220DF204414C48FDF7E5F85C
:1034E0004BA000F0D1F821E0BDF804A40AEBDA709B
:1034F000421001A94846FDF7D8F8701C86B200209A
:103500003E490880002404E000203D490855601C25
:1035100084B2B4F5816FF7DB3EA250210846FDF777
:103520004DF944A000F0B0F800BF62E700BF0020F2
:1035300032490880002404E0002031490855601C0D
:1035400084B2B4F5816FF7DB0DF5816DBDE8F087CE
:1035500010B50446206839490840B0F1005F09D130
:103560006068374908602068FCF733FE344800681B
:10357000804704E033A000F087F800BFFEE710BDED
:1035800010B500242DE03148FEF728FCC4B23048C5
:10359000007808281ED2DFE800F0040A0B0C0D0E9C
:1035A0000F173A2C02D101202949087013E000BFFF
:1035B00000BF00BF00BF00BF3B2C04D024480078F0
:1035C000401C2349087006E03B2C02D1082020490A
:1035D000087000E000BF00BF1D480078082800D137
:1035E00006E040F225511948FEF762FC0028CAD1D6
:1035F00000BF1748007810BD1800002040000020D0
:1036000044080020416761696E0A000000FC000860
:103610004F4B0A00BDD3CAD5B9CCBCFEB3CCD0F257
:10362000B2A2C9FDBCB6A3ACC7EBC9D4B5C82E2E97
:103630002E0000004E6578740A0000000000FE2F86
:103640003C0000204572726F720A0000004C00407E
:1036500042000020012080F3138800BF00BF07480C
:10366000006800F4E06006490843001D0349086053
:10367000BFF3408F00BF00BFFEE700000CED00E08D
:103680000000FA05704700000FB4044910B503AA02
:10369000029800F031F810BC5DF814FB2000002007
:1036A0004FF0000200B5134694469646203922BFDB
:1036B000A0E80C50A0E80C50B1F12001BFF4F7AF26
:1036C000090728BFA0E80C5048BF0CC05DF804EB08
:1036D000890028BF40F8042B08BF704748BF20F876
:1036E000022B11F0804F18BF00F8012B7047704774
:1036F0007047704770470000074B70B50D467B441C
:1037000000F011F80446284600F020F810B14FF000
:10371000FF3070BD204670BDA5D8FFFF01694A1C6F
:1037200002610878704700B58FB0CDE90131002102
:10373000059105497944CDE903101146684600F02A
:103740002EF80FB000BD0000E5FFFFFF007B00F08A
:1037500080007047754600F03DF8AE4605006946AA
:10376000534620F00700854618B020B5FDF7F6FD5A
:10377000BDE820404FF000064FF000074FF0000872
:103780004FF0000B21F00701AC46ACE8C009ACE8F3
:10379000C009ACE8C009ACE8C0098D4670472DE906
:1037A000F04106460024D6E90170F56880463046AF
:1037B00003E04146B847641C3046A8470028F8D1CA
:1037C0002046BDE8F0810446AFF300802046FCF7B8
:1037D000F6FC0000004870474C0C0020FC37000845
:1037E00000000020440000006C0100084038000880
:1037F00044000020BCB300008801000800A24A0475
:103800000000000000000000010203040607080990
:1038100001000000000000000000000000000000A7
:103820000000000000000000010203040102030484
:103830000607080902040608000000000000000056
:0400000508000131BD
:00000001FF
