:020000040800F2
:10000000480D0020650100083D080008DD040008D7
:100010003908000873020008C10F00080000000042
:10002000000000000000000000000000510A00086D
:1000300077020008000000003F080008490E000891
:100040007F0100087F0100087F0100087F01000890
:100050007F0100087F0100087F0100087F01000880
:100060007F0100087F0100087F0100087F01000870
:100070007F0100087F0100087F0100087F01000860
:100080007F0100087F0100087F0100087F01000850
:100090007F0100087F0100087F0100087F01000840
:1000A0007F0100087F0100087F0100087F01000830
:1000B0007F0100087F0100087F0100087F01000820
:1000C0007F0100087F0100087F0100087F01000810
:1000D0007F0100087F0100087F0100087F01000800
:1000E0007F0100087F0100087F0100087F010008F0
:1000F0007F0100087F0100087F0100087F010008E0
:100100007F0100087F0100087F0100087F010008CF
:100110007F0100087F0100087F0100087F010008BF
:100120007F0100087F0100087F0100087F010008AF
:10013000DFF80CD000F06CF800480047D515000837
:10014000480D0020EFF30980704780F3098870475D
:10015000EFF30880704780F30888704740BA704713
:10016000C0BA70470648804706480047FEE7FEE7EA
:10017000FEE7FEE7FEE7FEE7FEE7FEE7FEE7FEE757
:100180004D0E00083101000840EA01039B0703D02F
:1001900009E008C9121F08C0042AFAD203E011F8C6
:1001A000013B00F8013B521EF9D270472DE9F05F88
:1001B0000546002092469B468846064681464024D6
:1001C0001BE0284641464746224600F042F8534687
:1001D0005A46C01A914110D311461846224600F0E3
:1001E00029F82D1A67EB01084F462246012000210D
:1001F00000F020F817EB00094E41201EA4F1010485
:10020000DFDC484631462A464346BDE8F09F000001
:10021000064C074D06E0E06840F0010394E8070053
:1002200098471034AC42F6D3FFF786FF9C170008BE
:10023000BC170008202A04DB203A00FA02F1002053
:1002400070479140C2F1200320FA03F31943904014
:100250007047202A04DB203A21FA02F0002170477F
:1002600021FA02F3D040C2F120029140084319461E
:10027000704700BFFEE7704730B5044604254FF4D1
:10028000302000F08DF80546042D17D10C48006988
:1002900040F002000A49086108464461006940F0E4
:1002A000400008614FF4302000F07AF80546044819
:1002B000006941F6FD71084001490861284630BDDA
:1002C0000020024004200B49C96801F0010109B176
:1002D00001200EE00749C96801F0040109B10220BC
:1002E00007E00449C96801F0100109B1032000E0EA
:1002F00004207047002002400148006A7047000057
:100300000020024001B500200099C1F30A021AB191
:10031000012202EBD12000E0C80A08BD78B50646EC
:100320000C46042500200090E80200F039F805464C
:10033000042D24D11348006940F0010011490861DF
:100340003480E80200F02CF80546042D10D1B01CD2
:100350000090200C00990880E80200F021F8054682
:100360000848006941F6FE7108400649086106E048
:100370000448006941F6FE710840024908612846B8
:1003800078BD00000020024002480349486003484D
:10039000486070472301674500200240AB89EFCDDC
:1003A00000B502460423FFF78DFF034603E0FFF785
:1003B00089FF0346521E012B01D1002AF7D102B951
:1003C0000523184600BD2DE9F04102460025002610
:1003D000002000230024002791F803C00CF00F0533
:1003E00091F803C00CF0100CBCF1000F03D091F891
:1003F00002C04CEA050591F800C0BCF1000F31D0F5
:10040000146800202BE04FF0010C0CFA00F3B1F857
:1004100000C00CEA03069E4220D183004FF00F0C6F
:100420000CFA03F7BC4305FA03FC4CEA040491F808
:1004300003C0BCF1280F06D14FF0010C0CFA00FCF0
:10044000C2F814C00AE091F803C0BCF1480F05D10E
:100450004FF0010C0CFA00FCC2F810C0401C082838
:10046000D1D31460B1F800C0BCF1FF0F34DD546883
:1004700000202EE000F1080C4FF0010808FA0CF300
:10048000B1F800C00CEA03069E4221D183004FF070
:100490000F0C0CFA03F7BC4305FA03FC4CEA040406
:1004A00091F803C0BCF1280F05D100F1080C08FA3F
:1004B0000CF8C2F8148091F803C0BCF1480F07D1C2
:1004C00000F1080C4FF0010808FA0CF8C2F810808F
:1004D000401C0828CED35460BDE8F08100BFFEE781
:1004E00000B585B00121252000F0BAF9012188036B
:1004F00000F0B6F94FF4165001900020ADF8080056
:10050000ADF80A00ADF80C00ADF810000C20ADF805
:100510000E0018208DF803004FF40070ADF80000B5
:1005200003208DF8020069460B48FFF74CFF0420BA
:100530008DF803000002ADF8000069460648FFF799
:1005400042FF01A9054800F0CBFC0121034800F05F
:10055000ADFC05B000BD00000008014000380140BE
:1005600000B585B00121312000F07AF90121C804DD
:1005700000F066F94FF4165001900020ADF8080025
:10058000ADF80A00ADF80C00ADF810000C20ADF885
:100590000E0018208DF803004FF48060ADF80000C5
:1005A00003208DF8020069460B48FFF70CFF04207A
:1005B0008DF803004002ADF8000069460648FFF7D9
:1005C00002FF01A9054800F08BFC0121034800F05F
:1005D0006DFC05B000BD000000100140004C004063
:1005E000F0B5144A00250024002320E0B1FBF2F608
:1005F000303606F0FF0C2E466D1C00F806C0B1FB2D
:10060000F2F602FB16110A26B2FBF6F26E1E865DAA
:10061000302E01D1012600E000260CB9012700E0B0
:1006200000273E400EB1002500E0641C5B1C0A2B35
:10063000DCD3F0BD00CA9A3B00BF28480068A0F197
:100640000060000B26490860084600683E2808D272
:100650000846017801208840401EC04321490860B7
:1006600003E04FF000401F490860FFF745FE1D49B9
:10067000096808401B490968884203D001201A49CB
:10068000086002E000201849086025E017A000F08B
:10069000D9FA26A000F0D6FA30A000F0D3FA3BA099
:1006A00000F0D0FA1048006810B145A000F0CAFA76
:1006B0004EA000F0C7FA00F0D3F95C4840685C49EE
:1006C0000860084600685B49086058490868FFF7F9
:1006D00042FD584800688047D8E700001800002015
:1006E000080000200C000020100000200D0A3D3DF5
:1006F0003D3D3D3D3D3D3D3D3D3D3D3D3D3D3D3D2A
:10070000204D61696E204D656E75203D3D3D3D3D3E
:100710003D3D3D3D3D3D3D3D3D3D3D3D3D3D3D3D09
:100720003D3D3D3D3D3D3D0D0A0A00002020CFC22C
:10073000D4D8CEC4BCFEB5BD2053544D333246315F
:10074000307820C4DAB2BF20466C617368202D2D4A
:100750002D2D2D2D2D20310D0A0A00002020C9CF6E
:10076000B4ABCEC4BCFEB5BD2053544D333246317C
:10077000307820C4DAB2BF20466C617368202D2D1A
:100780002D2D2D2D2D20320D0A0A00002020D6B44B
:10079000D0D0D0C2B5C4CFEEC4BF202D2D2D2D2D6D
:1007A0002D2D2D2D2D2D2D2D2D2D2D2D2D2D2D2D79
:1007B0002D2D2D2D2D2D2D2D2D20330D0A0A000030
:1007C0002020BDFBD6B9D0B4B1A3BBA4202D2D2DC4
:1007D0002D2D2D2D2D2D2D2D2D2D2D2D2D2D2D2D49
:1007E0002D2D2D2D2D2D20340D0A0A003D3D3D3D92
:1007F0003D3D3D3D3D3D3D3D3D3D3D3D3D3D3D3D29
:100800003D3D3D3D3D3D3D3D3D3D3D3D3D3D3D3D18
:100810003D3D3D3D3D3D3D3D3D3D3D3D3D3D3D3D08
:100820003D3D3D3D3D3D0D0A0A0000000030000801
:10083000040000200000002000BFFEE77047704762
:1008400029B1064AD2690243044BDA6104E0034A43
:10085000D2698243014BDA61704700000010024008
:1008600029B1064A92690243044B9A6104E0034AA3
:1008700092698243014B9A61704700000010024068
:1008800030B500210022002400232D4D6D6805F0B5
:100890000C0121B1042905D0082923D105E0294DF7
:1008A000056022E0274D05601FE0254D6D6805F4C9
:1008B0007012234D6D6805F48034022505EB9242D9
:1008C0001CB9214D554305600BE01D4D6D6805F4C5
:1008D00000351DB11C4D5543056002E0194D5543CF
:1008E000056002E0174D056000BF00BF144D6D6844
:1008F00005F0F0010909154D6B5C0568DD404560A8
:100900000F4D6D6805F4E061090A104D6B5C456898
:10091000DD4085600A4D6D6805F46051C90A0B4DD4
:100920006B5C4568DD40C560054D6D6805F4404170
:10093000890B074D6B5CC568B5FBF3F5056130BDF0
:100940000010024000127A0000093D003000002033
:100950004000002070B505460C4606E0284600F031
:100960004FF9012801D1002070BD2000A4F101043D
:10097000F4D1401EF8E700002DE9F84304460D4687
:1009800090460020286041466846FFF7E3FF18B113
:100990004FF0FF30BDE8F8839DF80000182816D00E
:1009A00006DC012809D0022809D0042823D109E057
:1009B00041281DD061281ED11BE080271EE04FF486
:1009C00080671BE01EA000F075FC0020E2E74146B6
:1009D0006846FFF7BFFF40B99DF80000182804D112
:1009E0004FF0FF3028600020D4E74FF0FF30D1E710
:1009F00000BF0120CEE74FF0FF30CBE700BF9DF8EE
:100A00000000207001260CE0A0194146FFF7A2FF6C
:100A100028B10DA000F04EFC4FF0FF30BAE7701C7B
:100A200086B2781D8642EFDB6178A07880F0FF0007
:100A3000814202D04FF0FF30ACE72F600020A9E7E1
:100A40003434340A000000007777777777770A002C
:100A5000704710B50446204600F0E4F8002010BDB1
:100A60003EB528A207CA8DE80700002428A000F0A0
:100A7000E9F82D4800F0A6FA044621466846FFF73B
:100A8000AFFD002C16DD29A000F0DCF8374800F09F
:100A9000D9F821466846FFF7A3FD35A000F0D2F84B
:100AA000684600F0CFF835A000F0CCF836A000F092
:100AB000C9F826E0601C18B939A000F0C3F820E09E
:100AC000A01C18B93DA000F0BDF81AE0E01C18B950
:100AD0003EA000F0B7F814E0201D78B94048406807
:100AE00040490860084600683F4908603C4908687A
:100AF000FFF731FB3C480068804702E03BA000F074
:100B0000A1F83EBD20202020202020202020000011
:100B1000B5C8B4FDB7A2CBCDB5C4CEC4BCFE202EA3
:100B20002E2E200A0D000000440000200A0A0D208D
:100B3000B1E0B3CCB3C9B9A6CDEAB3C9210A0D2D32
:100B40002D2D2D2D2D2D2D2D2D2D2D2D2D2D2D2DD5
:100B50002D2D2D2D2D2D2D2D2D2D2D2D2D2D2D0DE5
:100B60000A204E616D653A20000000004404002018
:100B70000A0D20B4F3D0A13A20000000204279747D
:100B800065730D0A000000002D2D2D2D2D2D2D2D0E
:100B90002D2D2D2D2D2D2D2D2D2D2D0A000000005C
:100BA0000A0A0DCEC4BCFEB4F3D0A1B3ACB9FDBFEC
:100BB000D5BCE4B4F3D0A1210A0D00000A0A0DD17E
:100BC000E9D6A4CAA7B0DC210A0D00000D0A0AB1BB
:100BD000BBD3C3BBA7BDFBD6B92E0A0D00000000D6
:100BE0000030000804000020000000200A0DC3BBF4
:100BF000D3D0CAD5B5BDCEC4BCFE210A0D000000BD
:100C000010B504462021064800F05CF928B10448DC
:100C1000001D00882070012010BD0020FCE70000AE
:100C2000004C004010B504462146054800F0C4F9C8
:100C300000BF8021024800F045F90028F9D010BD1E
:100C4000004C004010B5044603E02078FFF7EAFFAF
:100C5000641C20780028F8D110BD10B500F002F80F
:100C600010BD00000CB500200190009033480068D2
:100C700040F480303149086000BF3048006800F41B
:100C8000003000900198401C0190009818B901981C
:100C9000B0F5A06FF1D12948006800F4003010B120
:100CA0000120009001E0002000900098012843D12D
:100CB0002348006840F01000214908600846006899
:100CC00020F0030008600846006840F00200086059
:100CD0001A48406819494860084640684860084614
:100CE000406840F4806048600846406820F47C100A
:100CF00048600846406840F4E810486008460068CC
:100D000040F08070086000BF0C48006800F0007080
:100D10000028F9D00948406820F0030007494860DE
:100D20000846406840F00200486000BF0348406841
:100D300000F00C000828F9D10CBD000000100240A2
:100D40000020024070B502460C4600210025002319
:100D50001078302843D15078782802D0507858281D
:100D60003DD1907808B9002070BD022130E0505C80
:100D700010B9236001252DE0505C412802DB505C56
:100D800046280BDD505C612802DB505C662805DDDF
:100D9000505C302819DB505C392816DC505C302858
:100DA00005DB505C392802DC505C30380AE0505CCE
:100DB000412805DB505C462802DC505C373801E0F6
:100DC000505C573800EB031301E0002502E0491C9A
:100DD0000B29CCD300BF0B2934D3002532E00021EE
:100DE0002AE0505C10B92360012527E0505C6B2895
:100DF00002D0505C4B2804D119B19B02236001251D
:100E00001CE0505C6D2802D0505C4D2804D119B113
:100E10001B052360012511E0505C302809DB505C84
:100E2000392806DC505C303803EB830600EB4603C0
:100E300001E0002502E0491C0B29D2D300BF0B2999
:100E400000D3002528468FE77047000010B51348EF
:100E5000006840F0010011490860084640681049E8
:100E600008400E494860084600680E4908400B4992
:100E700008600846006820F4802008600846406842
:100E800020F4FE0048604FF41F008860FFF7E5FE85
:100E90004FF000600449086010BD000000100240DF
:100EA0000000FFF8FFFFF6FE08ED00E021B18289A7
:100EB00042F40052828104E082894DF6FF731A40A9
:100EC0008281704702460020B1F5007F00D100BF4B
:100ED00013880B400BB1012000E000207047000098
:100EE0002DE9F04786B005460E460024A24600BF15
:100EF000A1460027B08900B100BF2F462C8A4CF6CE
:100F0000FF700440F08804432C82AC894EF6F31045
:100F10000440B08831890843718908430443AC8197
:100F2000AC8A4FF6FF400440B0890443AC8201A86C
:100F3000FFF7A6FC1F48874202D1DDF810A001E0B0
:100F4000DDF80CA0A88900F4004040B10AEBCA000B
:100F500000EB0A1031684900B0FBF1F807E00AEB3A
:100F6000CA0000EB0A1031688900B0FBF1F8642078
:100F7000B8FBF0F004012009642101FB1089A88965
:100F800000F4004040B1322000EBC900B0FBF1F0AA
:100F900000F00700044308E0322000EB0910642150
:100FA000B0FBF1F000F00F0004432C8106B0BDE867
:100FB000F087000000380140C1F3080282807047CA
:100FC00000BFFEE72DE9F04FADF22C4D07460020A3
:100FD00000908346A348A4490860002003908246FD
:100FE000019000BF002600200290B84600BF4FF4D9
:100FF000401204A909A8FFF7BFFC10B1012876D15F
:10100000F9E04FF0000A0498B0F1FF3F01D088B931
:1010100007E00620FFF71DFD00200DF22C4DBDE876
:10102000F08F0620FFF715FD90A000F043F9012096
:101030000290DEE09DF82500F1B2884203D0152031
:10104000FFF707FDD5E0002E7DD19DF82700002891
:1010500072D09DF828209DF8271085A000F02AF96D
:101060009DF8A8209DF8A71085A000F023F9002581
:101070000DF1270405E014F8012B28466D1C844966
:101080000A54207808B1FF2DF5DD002228466D1C9A
:101090007F490A540025641C05E014F8012B2846FA
:1010A0006D1C05A90A542078202801D0102DF4DBEE
:1010B000002228466D1C05A90A54694605A8FFF7B9
:1010C00041FE0098B0F5002F08DB1820FFF7C1FCA7
:1010D0001820FFF7BEFC4FF0FF309EE70098FFF7A7
:1010E00011F96C49086000206B49086011E08BE041
:1010F0005D490968694A1288674B1B6802FB031047
:10110000FFF7BAF86649087063480068401C6249F6
:101110000860614800685F490968884203D26048F6
:1011200000780428E4D00620FFF793FC4320FFF763
:1011300090FC5BE007E0FFE70620FFF78AFC012058
:101140000290039055E09DF826309DF825209DF8EB
:10115000241054A000F0AEF89DF826249DF8251424
:1011600043A000F0A7F89DF828249DF8271444A078
:1011700000F0A0F80DF127014046049AFFF704F8AB
:101180004B4807604FF0000923E0494800680168B8
:1011900035480068FFF7C2F83348006800684449E2
:1011A00009680968884208D01820FFF752FC182007
:1011B000FFF74FFC6FF001002FE72B480068001D80
:1011C000294908603A480068001D3949086009F15A
:1011D00004090498814506DA224900980844224906
:1011E00009688842D1D80620FFF733FC761C01201D
:1011F000019000BF27E01820FFF72BFC1820FFF715
:1012000028FC6FF0020008E70198002801DD0AF1D0
:10121000010ABAF1050F07DD1820FFF71AFC1820A4
:10122000FFF717FC0020F8E666B94320FFF711FC32
:101230000BF1010BBBF1320F04D14FF0000B6FF03B
:101240000300EAE600BF00BF029800283FF4CFAEDB
:1012500000BF00BF039800283FF4C4AE00BF00BF2A
:101260000098DAE60030000818000020454F5400CE
:101270000A6E616D65202025782025780A0000001F
:101280000A637263202025642025640A00000000A0
:101290004404002024000020200000201C00002026
:1012A0002800002025642025642025640A00000011
:1012B0002C0000200FB4054B10B503A9044A029876
:1012C00000F018F810BC5DF814FB0000B51500081C
:1012D0001400002002E008C8121F08C1002AFAD139
:1012E00070477047002001E001C1121F002AFBD1A6
:1012F000704700002DE9FF4F8DB09B460F46044616
:10130000002606E025280BD05A460F999047641C0A
:10131000761C20780028F5D111B03046BDE8F08F5A
:101320000025A8460122984900E0054314F8013F32
:10133000203B02FA03F00842F7D120782E2817D17B
:1013400014F8010F45F004052A280ED06FF02F0283
:101350002078A0F1300109290AD808EB880102EBB6
:10136000410100EB0108641CF2E757F8048B641C90
:1013700020786C280DD004DC4C2812D06A2811D1BA
:1013800004E074280DD07A280CD10AE045F4001549
:1013900007E0617845F48015814202D1641C05F5AF
:1013A0008015641C2278692A45D008DC002AB3D055
:1013B000582A69D0632A10D0642A08D13BE0702AE9
:1013C00067D0732A13D0752A5CD0782A5CD0104677
:1013D0005A460F999047761CD3E017F8040B8DF806
:1013E000000000208DF80100E946012003E057F8D5
:1013F000049B4FF0FF3069074FF0000501D40AE06D
:101400006D1C45450DDA8542FADB19F805100029F7
:10141000F6D106E06D1C8542FCDB19F805100029A9
:10142000F8D12E4404E019F8010B5A460F99904761
:101430006D1EF8D2A5E00A200021CDE90801C5F310
:10144000025002280DD001CFC117031E71F1000315
:101450000DDA4FF0000CD0EB0C006CEB01012D23EA
:1014600008E0FF1D27F00707F7E80201EDE72B056D
:1014700004D52B238DF8283001233BE0EB0739D02E
:101480002023F7E70A2000E010200021CDE9080121
:1014900007E01020002145F00405CDE908014FF0D8
:1014A0000808C5F3025002280FD001CF00214FF0E9
:1014B000000A2B071FD5702A0DD0DDE908C38CF078
:1014C000100C5CEA030C0CD015E0FF1D27F0070799
:1014D000F7E80201EBE740228DF828204FF0010ADF
:1014E0000BE050EA010306D030238DF828308DF848
:1014F000292002239A46582A04D024A20DF120095B
:101500000B9209E026A2F9E7DDE90823FEF74EFE7B
:101510000B9B9B5C09F8013D50EA0102F4D1ADEB55
:10152000090020300890680701D44FF0010808999D
:10153000884502DDA8EB010000E000208046002580
:1015400006E00AA85A46405D0F9990476D1C761C2C
:101550005545F6DB04E030205A460F999047761C3B
:10156000B8F10001A8F10108F5DC05E019F8010B5C
:101570005A460F999047761C0899481E08900029F2
:10158000F4DC641CC5E60000092801003031323368
:1015900034353637383961626364656600000000AF
:1015A0003031323334353637383941424344454699
:1015B0000000000000BF054A128802F04002002A25
:1015C000F9D0C2B2024B1A807047000000500040B0
:1015D0000438014008B501210420FFF741F94820F3
:1015E0008DF8030003208DF802000120ADF8000003
:1015F00069461248FEF7E7FEFEF7C6FEFEF770FFEB
:10160000FEF7AEFF0E48FFF71DFB0E48FFF71AFB73
:101610000D48FFF717FB0DA0FFF714FB0A48FFF773
:1016200011FB18A0FFF70EFB0548FFF70BFB20A0EE
:10163000FFF708FBFFF700F8002008BD0008014095
:101640005017000804170008B81600080D0A3D20BE
:10165000202020200909090909D3A6D3C3B3CCD07F
:10166000F2D6D0B1E0B3CC202856657273696F6EA4
:1016700020332E332E302920202020202020203DF2
:10168000000000000D0A3D202020202020202020E6
:10169000202020202020202020202020202020204A
:1016A00049415020202020202020203D0000000023
:1016B0000D0A0D0A000000000D0A3D202020202008
:1016C000202020202020202020202020202020201A
:1016D000202020202020202020202020202020200A
:1016E00020202020202020202020202020202020FA
:1016F0002020202020202020202020202020203DCD
:10170000000000000D0A3D20202020202020202065
:10171000202020202028432920434F505952494758
:10172000485420323031302053544D6963726F6514
:101730006C656374726F6E696373202020202020B3
:1017400020202020202020202020203D00000000FC
:101750000D0A3D3D3D3D3D3D3D3D3D3D3D3D3D3D1C
:101760003D3D3D3D3D3D3D3D3D3D3D3D3D3D3D3DA9
:101770003D3D3D3D3D3D3D3D3D3D3D3D3D3D3D3D99
:101780003D3D3D3D3D3D3D3D3D3D3D3D3D3D3D3D89
:101790003D3D3D3D3D3D3D3D00000000BC17000886
:1017A0000000002044000000D412000800180008C7
:1017B00044000020040D0000E412000800000000B6
:1017C0000000000000000000000000000000000019
:1017D00000000000003000080008000000000000C9
:1017E00000000000040000000000000000000000F5
:1017F00001020304010203040607080902040608A3
:0400000508000131BD
:00000001FF
