:020000040800F2
:10000000204500209D010008ED0700089107000829
:10001000E9070008AB0200087D110008000000009D
:10002000000000000000000000000000830C000839
:10003000AF02000800000000EF070008B50100084B
:10004000B7010008B7010008B7010008B7010008B0
:10005000B7010008B7010008B7010008B7010008A0
:10006000B7010008B7010008B7010008B701000890
:10007000B7010008B7010008B7010008B701000880
:10008000B7010008B7010008B7010008B701000870
:10009000B7010008B7010008B7010008B701000860
:1000A000B7010008B7010008B7010008B701000850
:1000B000B7010008B7010008B7010008B701000840
:1000C000B7010008B7010008B7010008B701000830
:1000D000B7010008B7010008B7010008B701000820
:1000E000B7010008B7010008B7010008B701000810
:1000F000B7010008B7010008B7010008B701000800
:10010000B7010008B7010008B7010008B7010008EF
:10011000B7010008B7010008B7010008B7010008DF
:10012000B7010008B7010008B7010008B7010008CF
:10013000B7010008B7010008B7010008B7010008BF
:10014000B7010008B7010008B7010008B7010008AF
:10015000B7010008B7010008B7010008B70100089F
:10016000B7010008B7010008B7010008B70100088F
:10017000B7010008B7010008B7010008B70100087F
:10018000B7010008B7010008DFF80CD000F05CF8F8
:1001900000480047B918000820450020064880475D
:1001A00006480047FEE7FEE7FEE7FEE7FEE7FEE75C
:1001B000FEE7FEE7FEE7FEE7F50F0008890100080D
:1001C00040EA01039B0703D009E008C9121F08C0D9
:1001D000042AFAD203E011F8013B00F8013B521E59
:1001E000F9D270472DE9F05F0546002092469B4604
:1001F00088460646814640241BE02846414647463D
:10020000224600F042F853465A46C01A914110D394
:1002100011461846224600F029F82D1A67EB01080E
:100220004F4622460120002100F020F817EB00097C
:100230004E41201EA4F10104DFDC484631462A4627
:100240004346BDE8F09F0000064C074D06E0E0681D
:1002500040F0010394E8070098471034AC42F6D30D
:10026000FFF796FF4819000868190008202A04DBE8
:10027000203A00FA02F1002070479140C2F12003B9
:1002800020FA03F3194390407047202A04DB203AF8
:1002900021FA02F00021704721FA02F3D040C2F1A6
:1002A0002002914008431946704700BFFEE770479F
:1002B00001490860704700000C3C024070B50446DC
:1002C0000A460026092502B909E0012A01D11602D1
:1002D00005E0022A01D1160201E04FF4407600F059
:1002E0005BF90546092D28D11548006820F44070B7
:1002F00013490860084600683043086008460068F3
:1003000020F0F80008600846006844F00201084345
:100310000B4908600846006840F48030086000F02F
:100320003BF905460648006820F0020004490860D1
:100330000846006820F0F8000860284670BD0000FC
:10034000103C024009201349096801F48031B1F5DD
:10035000803F01D101201CE00E49096801F0100125
:1003600009B1062015E00B49096801F4807109B153
:1003700002200EE00749096801F0EF0109B10720EA
:1003800007E00449096801F0020109B1082000E012
:10039000092070470C3C02401CB508200190022047
:1003A00000900D4800F082F901900198C1080120E9
:1003B0008840401E40F6FF71081A009000F086F851
:1003C0000021009800F094F800F070F8092801D09E
:1003D00002201CBD0120FCE70000010870B50646A4
:1003E00008250024094800F061F905462C4608E07C
:1003F00002212046FFF762FF092801D0012070BDCD
:100400000834582CF4D90020F9E700000000010856
:1004100010B50824084800F049F9044600F040F8F7
:10042000E1080841E20840F6FF711141884201D11C
:10043000012010BD0020FCE70000010810B500F00D
:1004400099F8F320FFF734FF10BD00002DE9F041CB
:1004500004460E461746002500BF16E056F8251044
:10046000206800F05FF809280CD12068006856F871
:100470002510884202D00220BDE8F0812068001DCE
:10048000206001E00120F7E76D1CBD4203D2206827
:1004900002498842E2D90020EEE70000FBFF0F0886
:1004A0000148008870470000163C024000B5092250
:1004B0000548007840F002000349087000F06CF82D
:1004C0000246104600BD0000143C0240054800688A
:1004D00000F0010028B1044802490C3908600348C3
:1004E00008607047143C02403B2A19087F6E5D4C3F
:1004F00030B502460C46092500F04EF80546092D98
:100500000CD12CB10648008890430549088005E0CD
:100510000348008891B208430149088030BD0000BB
:10052000163C024030B502460C46092500F034F86E
:100530000546092D19D10E48006820F440700C4979
:1005400008600846006840F40070086008460068CB
:1005500040F001000860146000F01EF805460448F1
:10056000006820F0010002490860284630BD000004
:10057000103C02400548006800F0004028B10448E3
:1005800002490C390860034808607047103C02407B
:1005900023016745AB89EFCD08B509200090FFF72F
:1005A000D1FE009002E0FFF7CDFE00909DF8000024
:1005B0000128F8D09DF8000008BDF0B50A460021DA
:1005C0000023002400BF3DE0012505FA01F3156872
:1005D00005EA03049C4234D105684F000326BE405F
:1005E000B543056015794E00B54006683543056092
:1005F0001579012D02D01579022D16D185684F008D
:100600000326BE40B543856055794E00B5408668E7
:1006100035438560456801268E40B5434560456891
:1006200096798E40B6B235434560C5684F000326C3
:10063000BE40B543C560D5794E00B540C668354368
:10064000C560491C1029BFD3F0BDF0B500230024BC
:100650004D07ED0E02FA05F3CE1000F1200555F816
:1006600026504E07F70E0F26BE40B543CF1000F1BF
:10067000200646F82750CE1000F1200555F82650E8
:1006800045EA0304CE1000F1200545F82640F0BDF0
:1006900008B50020009004E0684600F087FB00B138
:1006A00000E0F9E700BF9DF8000008BD014600200A
:1006B0002C4A914203D2B1F1006F00D350E02A4A94
:1006C000914204D2274A914201D3082048E0274AA8
:1006D000914204D2244A914201D3102040E0244A9E
:1006E000914204D2214A914201D3182038E0214A94
:1006F000914204D21E4A914201D3202030E01E4A8A
:10070000914204D21B4A914201D3282028E01B4A7F
:10071000914204D2184A914201D3302020E0184A75
:10072000914204D2154A914201D3382018E0154A6B
:10073000914204D2124A914201D3402010E0124A61
:10074000914204D20F4A914201D3482008E00F4A57
:10075000914204D20C4A914201D3502000E058202B
:1007600070470000004000080080000800C000083A
:10077000000001080000020800000408000006084C
:100780000000080800000A0800000C0800000E081D
:1007900009A100200BE00A5C124B9A8000BF114AAD
:1007A000128802F04002002AF9D0421CD0B22A2856
:1007B000F1D300BFFEE700000D0A456E746572209C
:1007C000486172644661756C745F48616E646C6503
:1007D000722C2053797374656D2048616C742E0DF2
:1007E0000A0000000010014000BFFEE7704770479C
:1007F00070B520480468001D0568001D0668234682
:100800002A4631461CA000F09FFD28A000F09CFD68
:1008100027A000F099FD36A139A000F095FD3DA17B
:100820003EA000F091FD42A144A000F08DFD002308
:100830000322012146A000F087FD53A000F084FDB3
:1008400053A000F081FD58A000F07EFD5BA000F0F9
:100850007BFD61A000F078FD67A000F075FD14A09D
:1008600000F072FD6EA000F06FFD79A000F06CFD4D
:1008700070BD0000107AFF1F0D0A435055203A202A
:1008800053544D333246343037494754362C204C7C
:100890005146503137362C20554944203D202530D3
:1008A0003858202530385820253038580A0D000097
:1008B0002A2A2A2A2A2A2A2A2A2A2A2A2A2A2A2A98
:1008C0002A2A2A2A2A2A2A2A2A2A2A2A2A2A2A2A88
:1008D0002A2A2A2A2A2A2A2A2A2A2A2A2A2A2A2A78
:1008E0002A2A2A2A2A2A2A2A2A2A2A2A2A0A0D00CF
:1008F00056352D3133365FB4AEBFDA494150000072
:100900002A20C0FDB3CCC3FBB3C62020203A20254B
:10091000730D0A0056312E32000000002A20C0FD5F
:10092000B3CCB0E6B1BE2020203A2025730D0A00DA
:10093000323031352D30332D303500002A20B7A22A
:10094000B2BCC8D5C6DA2020203A2025730D0A0093
:100950002A20B9CCBCFEBFE2B0E6B1BE203A205698
:1009600025642E25642E2564202853544D333246A9
:100970003478785F5374645065726970685F44724C
:1009800069766572290D0A002A200D0A0000000010
:100990002A205151202020203A2031323935373455
:1009A00034363330200D0A002A20CDFACDFA20202B
:1009B0003A2061726D666C790D0A00002A20456D3F
:1009C00061696C203A2061726D666C794071712E9C
:1009D000636F6D200D0A00002A20CCD4B1A6B5EAC1
:1009E0003A2061726D666C792E74616F62616F2E50
:1009F000636F6D0D0A0000002A20436F70797269E1
:100A0000676874207777772E61726D666C792E63D4
:100A10006F6D20B0B2B8BBC0B3B5E7D7D30D0A0035
:100A2000312E20B5E7C4D4BCFCC5CCB0B4CFC2CA0B
:100A3000FDD7D631BDF8D0D0D0C2B3CCD0F2B5C43A
:100A400062696ECEC4BCFECFC2D4D80A0D000000CD
:100A5000322E20B5E7C4D4BCFCC5CCB0B4CFC2CADA
:100A6000FDD7D632CCF8D7AAB5BDD0C2B5C4B3CC69
:100A7000D0F2D6B4D0D00A0D0000000029B1064A49
:100A800012680243044B1A6004E0034A126882436E
:100A9000014B1A60704700003038024029B1064A05
:100AA00012680243044B1A6004E0034A126882434E
:100AB000014B1A607047000044380240F0B5002135
:100AC00000220024022500260223324F3F6807F04F
:100AD0000C0121B1042905D0082937D105E02E4F9A
:100AE000076036E02D4F076033E02A4F3F1F3F6815
:100AF000C7F38056274F3F1F3F6807F03F036EB193
:100B0000264FB7FBF3F7DFF88CC0ACF1040CDCF830
:100B100000C0CCF3881C07FB0CF40CE01E4FB7FBA5
:100B2000F3F7DFF870C0ACF1040CDCF800C0CCF3D4
:100B3000881C07FB0CF4174F3F1F3F68C7F30147A2
:100B40007F1C7D00B4FBF5F7076002E0124F0760E1
:100B500000BF00BF0F4F3F6807F0F0010909104FB9
:100B60007A5C0768D74047600A4F3F6807F4E05156
:100B7000890A0B4F7A5C4768D7408760054F3F680A
:100B800007F46041490B064F7A5C4768D740C7605D
:100B9000F0BD0000083802400024F40040787D01D8
:100BA0000C00002070B505460C4606E0284600F013
:100BB000FDF8012801D1002070BD2000A4F101043E
:100BC000F4D1401EF8E72DE9F84304460D4690465F
:100BD0000020286041466846FFF7E4FF18B14FF057
:100BE000FF30BDE8F8839DF80000182813D006DC1C
:100BF000012809D0022809D0042820D109E0412881
:100C00001AD061281BD118E080271BE04FF48067C1
:100C100018E00020E5E741466846FFF7C3FF40B90A
:100C20009DF80000182804D14FF0FF302860002004
:100C3000D7E74FF0FF30D4E700BF0120D1E74FF0F6
:100C4000FF30CEE700BF9DF800002070012609E0CC
:100C5000A0194146FFF7A6FF10B14FF0FF30C0E7E3
:100C6000701C86B2781D8642F2DB6178A07880F035
:100C7000FF00814202D04FF0FF30B2E72F6000202A
:100C8000AFE7704710B50446204600F09FF80020FB
:100C900010BD000010B5002412A000F055FB1F4845
:100CA00000F06EFA0446002C05DD22461C491DA00A
:100CB00000F04AFB14E0601C18B924A000F044FBCB
:100CC0000EE0A01C18B92BA000F03EFB08E0E01CD1
:100CD00018B92CA000F038FB02E02FA000F034FB84
:100CE00010BD0000B5C8B4FDB7A2CBCDCEC4BCFECC
:100CF0002E2E2E2E2E2E2E2E2E2E2E2E2E2E2E2E14
:100D00002E2EB0B4BCFCC5CCC9CFB5C4D7D6C4B8A0
:100D100061D6D5D6B9B7A2CBCD0A0D0020000020F0
:100D2000200400200A0DB1E0B3CCB3C9B9A6A3AC2E
:100D3000CEC4BCFEC3FBA3BA2573A3ACB4F3D0A14D
:100D4000A3BA2564D7D6BDDA0A0D00000A0DCFC2BA
:100D5000D4D8B5C4CEC4BCFEB4F3D0A1B3ACB3F602
:100D6000C1CBD3C3BBA7C7F8666C617368B4F3D0BB
:100D7000A10A0D000A0DD0A3D1E9CAA7B0DC0A0D63
:100D8000000000000A0DD3C3BBA7D6D5D6B9B7A2C1
:100D9000CBCD0A0D000000000A0DCEC4BCFEBDD3B1
:100DA000CAD5CAA7B0DC0A0D0000000010B5044681
:100DB0002021054800F067F920B1034880882070A1
:100DC000012010BD0020FCE70010014010B50446D2
:100DD0002146054800F0CEF900BF8021024800F00E
:100DE00052F90028F9D010BD0010014010B504469A
:100DF00003E02078FFF7EAFF641C20780028F8D190
:100E000010BD00000CB5002001900090344800682F
:100E100040F480303249086000BF3148006800F477
:100E2000003000900198401C0190009818B901987A
:100E3000B0F5A04FF1D12A48006800F4003010B19D
:100E40000120009001E0002000900098012846D188
:100E500023484030006840F080502149403108600C
:100E60002048006840F440401E4908601C48083093
:100E700000681B49083108600846006840F40040DB
:100E800008600846006840F4A05008601648091F32
:100E90000860081F006840F08070091F086000BFEC
:100EA0000F48006800F000700028F9D040F205708B
:100EB0000E4908600A480830006820F0030008491D
:100EC000083108600846006840F00200086000BF72
:100ED00003480830006800F00C000828F8D10CBD69
:100EE000003802400070004019544007003C0240A6
:100EF00070B502460C4600210025002310783028EA
:100F000043D15078782802D0507858283DD1907835
:100F100008B9002070BD022130E0505C10B9236098
:100F200001252DE0505C412802DB505C46280BDD9A
:100F3000505C612802DB505C662805DD505C30287F
:100F400019DB505C392816DC505C302805DB505C1E
:100F5000392802DC505C30380AE0505C412805DB5F
:100F6000505C462802DC505C373801E0505C573852
:100F700000EB031301E0002502E0491C0B29CCD350
:100F800000BF0B2934D3002532E000212AE0505C59
:100F900010B92360012527E0505C6B2802D0505C1B
:100FA0004B2804D119B19B02236001251CE0505C41
:100FB0006D2802D0505C4D2804D119B11B05236067
:100FC000012511E0505C302809DB505C392806DC33
:100FD000505C303803EB830600EB460301E000254C
:100FE00002E0491C0B29D2D300BF0B2900D30025F6
:100FF00028468FE710B51548006840F47000134983
:1010000008601348006840F00100114908600020A2
:101010000F49083108600E4800680E4908400C4925
:1010200008600D48091D0860081F006820F4802032
:10103000091F0860002006490C310860FFF7E2FE36
:101040004FF0006001498039086010BD88ED00E074
:1010500000380240FFFFF6FE1030002401F4007259
:10106000B2F5007F00D100BFCA430280704721B1B2
:10107000828942F40052828104E082894DF6FF7336
:101080001A408281704702460020B1F5007F00D1EE
:1010900000BF13880B400BB1012000E00020704717
:1010A0002DE9FF4705460E460024A14600BFA04695
:1010B000B08900B100BF2C8A24F44054F088044366
:1010C0002C82AC8941F20C608443B088318908439A
:1010D000718908430443AC81AC8A24F44074B0891C
:1010E0000443AC826846FFF7E9FC2048854202D001
:1010F0001F48854202D1DDF80C9001E0DDF8089030
:10110000A88900F4004040B109EBC90000EB0910C8
:1011100031684900B0FBF1F707E009EBC90000EBCB
:10112000091031688900B0FBF1F76420B7FBF0F0DB
:1011300004012009642101FB1078A88900F4004013
:1011400040B1322000EBC800B0FBF1F000F0070026
:10115000044308E0322000EB08106421B0FBF1F0FA
:1011600000F00F0004432C81BDE8FF870010014010
:1011700000140140C1F308028280704700BFFEE7FF
:101180002DE9F04FADF2344D0646002002906B4839
:101190000190002005908146039000BF00270020A9
:1011A0000490B04600BF4FF4801206A90BA8FFF7C9
:1011B0000AFD10B101287DD194E04FF00009069896
:1011C000B0F1FF3F01D070B907E00620FFF75AFDEC
:1011D00000200DF2344DBDE8F08F0620FFF752FDE0
:1011E000012004907CE09DF82D00F9B2884203D0E4
:1011F0001520FFF747FD73E0002F4BD19DF82F001E
:10120000002840D000250DF12F0405E014F8012B33
:1012100028466D1C4A490A54207808B1FF2DF5DD97
:10122000002228466D1C46490A540025641C05E02E
:1012300014F8012B28466D1C07A90A542078202891
:1012400001D0102DF4DB002228466D1C07A90A549A
:1012500002A907A8FFF74CFE3A490298884208D92C
:101260001820FFF70FFD1820FFF70CFD4FF0FF309F
:10127000AFE73248FFF7B2F80620FFF703FD43203F
:10128000FFF700FD29E00620FFF7FCFC0120049099
:10129000059025E00DF12F014046069AFEF790FFDC
:1012A000B24606981FFA80FB4FEAEB700BEB90708A
:1012B000821000E01FE0514601A8FFF7C7F818B9F7
:1012C0000620FFF7DFFC08E01820FFF7DBFC182002
:1012D000FFF7D8FC6FF001007BE77F1C0120039033
:1012E00000BF1CE01820FFF7CDFC1820FFF7CAFC58
:1012F0006FF002006DE70398002801DD09F1010994
:10130000B9F1050F07DD1820FFF7BCFC1820FFF727
:10131000B9FC00205DE74320FFF7B4FC00BF00BF2D
:10132000049800283FF43FAF00BF00BF0598002895
:101330003FF434AF00BF00BF02984AE70000010845
:101340002004002001000F000FB4054B10B503A9C5
:10135000044A029800F018F810BC5DF814FB000075
:10136000951800081C00002002E008C8121F08C1E0
:10137000002AFAD170477047002001E001C1121F16
:10138000002AFBD1704700002DE9FF4F8DB00F46BA
:101390000546002606E025280BD0DDE90F12904710
:1013A0006D1C761C28780028F5D111B03046BDE8B8
:1013B000F08F0024A246A1460122EC4900E004433C
:1013C00015F8013F203B02FA03F00842F7D12878D4
:1013D0002A2810D06FF02F022878A0F130010929B7
:1013E00014D80AEB8A0102EB410144F0020400EB3D
:1013F000010A6D1CF0E701CF5FEA000A03D544F44F
:101400000054CAF1000A44F002046D1C28782E280A
:1014100017D115F8010F44F004042A280ED06FF0FC
:101420002F022878A0F1300109290AD809EB890197
:1014300002EB410100EB01096D1CF2E757F8049B38
:101440006D1C28786C280FD006DC4C2817D0682833
:101450000DD06A2814D104E0742810D07A280FD156
:101460000DE044F400140AE044F4801401E044F474
:1014700040146978814202D104F580146D1C6D1C02
:101480002A786E2A1FD00CDC632A31D004DC002AB3
:101490008BD0582A11D1A3E0642A68D0692A0CD1D4
:1014A00065E0732A2ED004DC6F2A73D0702A04D131
:1014B0009BE0752A6FD0782A6ED01046DDE90F12B6
:1014C0009047761C50E1C4F30250022806D003284E
:1014D00009D0042801CF09D0066045E101CFF117FA
:1014E000C0E9006140E101CF06803DE106703BE1CB
:1014F00017F8040B8DF8000000208DF80100EB4672
:10150000012003E057F804BB4FF0FF3061074FF0B4
:10151000000102D40DE008F10101884649450FDAC7
:101520008045F8DB1BF808100029F4D108E008F129
:10153000010188468142FADB1BF808100029F6D128
:10154000DDE90F23AAEB08008146214600F036F9B9
:10155000304400EB080604E0DDE90F121BF8010B34
:101560009047B8F10108F7D221464846F7E00A2132
:10157000C4F302534FF0000B0891022B04D001CFAB
:10158000C117032B09D00AE0FF1D27F00707F7E872
:10159000020108E032E01FE020E000B2C117042B96
:1015A00001D140B2C117031E71F1000307DA4FF0F9
:1015B000000CD0EB0C006CEB01012D2302E02305A5
:1015C00004D52B238DF82430012303E0E30701D059
:1015D0002023F7E7984658E00A2110E010210EE09A
:1015E00010204FF0000B08900CE010214FF0000B82
:1015F00044F004044FF00809089103E008214FF07B
:10160000000B0891C4F30253022B04D001CF002138
:10161000032B06D006E0FF1D27F00707F7E80201BD
:1016200003E080B2042B00D1C0B24FF000082307C2
:101630002BD5702A07D0DDF820C08CF0100C5CEAA6
:101640000B0C05D00EE040238DF82430012308E078
:1016500050EA010306D030238DF824308DF8252080
:1016600002239846DDF820C08CF0080C5CEA0B0CD5
:101670000BD150EA010301D1630706D530238DF861
:1016800024304FF00108A9F10109582A04D038A2EA
:101690000B9208AA0A920BE03AA2F9E75B46089A75
:1016A000FEF7A0FD0B9B9B5C0A9A521E0A921370D8
:1016B00050EA0102F2D10A98ADEB000000F1200BD4
:1016C000600702D524F4803401E04FF00109D945C8
:1016D00002DDA9EB0B0000E0002000EB0B01414410
:1016E0000890AAEB010AE00306D4DDE90F232146A6
:1016F000504600F063F806444FF0000908E009A9DD
:1017000011F80900DDE90F12904709F10109761C73
:10171000C145F4DBE0030CD5DDE90F23214650463B
:1017200000F04CF8064404E0DDE90F123020904749
:10173000761C0899481E08900029F5DC08E00A98F4
:101740000A990078491C0A91DDE90F129047761C2E
:10175000BBF10001ABF1010BF1DC21465046DDE9A4
:101760000F2300F019F806446D1C1BE60928010040
:101770003031323334353637383961626364656607
:1017800000000000303132333435363738394142C9
:1017900043444546000000002DE9F0410446002581
:1017A0001E461746880404D405E039462020B04779
:1017B0006D1C641EF9D52846BDE8F0812DE9F04185
:1017C000044600251E469046C80301D5302700E098
:1017D0002027880404D505E041463846B0476D1CF3
:1017E000641EF9D52846BDE8F08110B500F002F876
:1017F00010BD000000B587B001210846FFF73EF993
:1018000001211020FFF74AF9072209211F48FEF79E
:101810001CFF07220A211D48FEF717FF00208DF844
:101820001A0001208DF81B0002208DF8180000021C
:10183000059002208DF8190005A91448FEF7BDFE99
:1018400002208DF818004002059005A90F48FEF708
:10185000B4FE4FF4E13001900020ADF80800ADF87F
:101860000A00ADF80C00ADF810000C20ADF80E0029
:1018700001A90748FFF714FC01210548FFF7F7FB12
:1018800040210348FFF7EAFB07B000BD000002401B
:101890000010014070B504460D46E1B20548FFF75F
:1018A00069FC00BF40210348FFF7EDFB0028F9D099
:1018B000204670BD001001400024FFF796FFFEF7A0
:1018C00097FFFEF7BBFDFEF7A3FD50B9FEF764FDE1
:1018D000012803D111A0FFF737FD02E013A0FFF7A5
:1018E00085FA19E0FEF7D4FE0446312C02D1FFF749
:1018F000D1F911E0322C0FD110484068104908602E
:10190000084600680F4908600C49086880F3088899
:1019100000BF0C4800688047E4E700000A0DBDE204
:10192000B1A3BBA4B3C9B9A60A0D0000BDE2B1A31F
:10193000BBA4CAA7B0DC0D0A00000000000001082B
:1019400004000020000000206819000800000020AA
:1019500020000000681300088819000820000020FB
:10196000004500007813000800000000000000009F
:101970000000000000000000010203040102030453
:08198000060708090000000041
:040000050800018965
:00000001FF
