:020000040800F2
:1000000000080020E5200008111B0008151B00084F
:10001000191B00081D1B0008211B00080000000020
:10002000000000000000000000000000291B000884
:10003000251B0008000000002D1B0008311B0008D4
:10004000351B0008391B00083D1B0008411B000838
:10005000451B0008491B00084D1B0008511B0008E8
:10006000551B0008591B00085D1B0008611B000898
:10007000651B0008691B00086D1B0008711B000848
:10008000751B0008791B00087D1B0008811B0008F8
:10009000851B0008891B00088D1B0008911B0008A8
:1000A000951B0008991B00089D1B0008A11B000858
:1000B000A51B0008A91B0008AD1B0008B11B000808
:1000C000B51B0008B91B0008BD1B0008C11B0008B8
:1000D000C51B0008C91B0008CD1B0008D11B000868
:1000E000D51B0008D91B0008DD1B0008E11B000818
:1000F000E51B0008E91B0008ED1B0008F11B0008C8
:10010000F51B0008F91B0008FD1B0008011C000876
:10011000051C0008091C00080D1C0008111C000823
:10012000151C0008191C00081D1C0008211C0008D3
:10013000DFF808040068016841F0010101604168CE
:10014000094A114041600168084A11400160016894
:100150006FF480221140016041686FF4FE0211408B
:1001600041600021816070470000FFF8FFFFF6FE4C
:1001700010B504000AD0B4F5803F07D0B4F5802F45
:1001800004D0A221DFF8B80301F010FCDFF8AC03C3
:10019000006801686FF480321140016001686FF4FB
:1001A0008022114001604FF48031641A08D04FF46E
:1001B0004031641A02BF016841F4A021016010BD02
:1001C000016841F48031016010BD000080B500205D
:1001D0000090312000F080F90099491C009118B975
:1001E0000098B0F5A06FF4D1312000F075F900B19E
:1001F000012002BD70B504000D00DFF8446354B166
:10020000B4F5803F07D0B4F5403F04D04FF492716D
:10021000300001F0CBFB75B3B5F5802F2BD0B5F5D1
:10022000002F28D0B5F5402F25D0B5F5801F22D05E
:10023000B5F5A01F1FD0B5F5C01F1CD0B5F5E01F48
:1002400019D0B5F5001F16D0B5F5101F13D0B5F5B0
:10025000201F10D0B5F5301F0DD0B5F5401F0AD0C6
:10026000B5F5501F07D0B5F5601F04D040F2251139
:10027000300001F09BFBDFF8C402006841686FF4B6
:100280007C12114021432943416070BD10B5040028
:1002900007D0012C1EBF40F23F11DFF8A40201F08D
:1002A00085FB0148046010BD6000424210B50400A7
:1002B00009D0012C07D0022C1EBF4FF4AA71DFF821
:1002C000800201F073FBDFF87402006841680322CA
:1002D00026E00000DFF864020068406800F00C00CF
:1002E0007047000010B5040015D0802C13D0902C5E
:1002F00011D0A02C0FD0B02C0DD0C02C0BD0D02CF6
:1003000009D0E02C07D0F02C1EBF40F28911DFF895
:10031000300201F04BFBDFF8240200684168F02254
:10032000914300BF2143416010BD000010B504009F
:1003300011D0B4F5806F0ED0B4F5A06F0BD0B4F52A
:10034000C06F08D0B4F5E06F1EBF4FF4D571DFF871
:10035000F00101F02BFBDFF8E401006841686FF465
:10036000E0621140DEE7000010B5040011D0B4F5E2
:10037000806F0ED0B4F5A06F0BD0B4F5C06F08D06D
:10038000B4F5E06F1EBF40F2CB11DFF8B40101F00D
:100390000DFBDFF8A801006841686FF4605211405E
:1003A00041EAC401416010BD80B5644909684A68EA
:1003B00002F00C02234B082A17D14A6802F470128B
:1003C000920C921CD1F804C00CF4803CDFF878E069
:1003D00002FB0EFEBCF1000F01D1734605E0D1F81F
:1003E00004C01CF4003FF8D1534303604A6802F094
:1003F000F003164AD0F800C01B099B5C2CFA03F3EB
:100400004360D1F804C00CF4E06C4FEA1C2C1CF8DB
:1004100002C023FA0CFCC0F808C0D1F804C00CF4E8
:10042000605C4FEADC2C1CF802C023FA0CF3C360BA
:10043000496801F4404102EB9131097CB3FBF1F1D1
:10044000016101BD00127A0000093D00142100087D
:10045000F8B504000D003A4E1D48204200D124B9E1
:100460004FF44971300001F0A1FA344F55B1012D1C
:1004700004D040F22531300001F098FA38688169E3
:10048000214303E038688169E24311408161F1BD95
:10049000F8B504000D002A4E0E48204200D124B9C0
:1004A00040F24631300001F081FA244F55B1012D60
:1004B00004D040F24731300001F078FA3868C16961
:1004C000214303E03868C169E2431140C161F1BDD5
:1004D0000200FFFFC03701C510B50400212C18D061
:1004E000312C16D0392C14D0412C12D0612C10D0C4
:1004F0007A2C0ED07B2C0CD07C2C0AD07D2C08D0F2
:100500007E2C06D07F2C1EBF4FF479710C4801F071
:100510004DFA600909490968012801D1086803E01A
:10052000022814BF486A086A012104F01F029140A2
:10053000084018BF0120C0B210BD00001C0C0020F4
:10054000B01F000838B5104A00239C464FF00A0E31
:10055000B1FBF2F4250030351D545B1C04FB121175
:100560000A24B2FBF4F21C1814F8014C302C04D10C
:10057000BCF1000F01D1002301E00CF1010CBEF130
:10058000010EE5D131BD00BF00CA9A3B10B5020093
:100590000020002392F800C0BCF1300F48D192F83F
:1005A00001C0BCF1780F02D0BCF1580F40D192F8D5
:1005B00002C0BCF1000F73D04FF0020C1CF802E037
:1005C000BEF1000F02D10B6001202CE0BEF1410F03
:1005D00002D3BEF1470F0BD3BEF1610F02D3BEF1C0
:1005E000670F05D3BEF1300F1DD3BEF13A0F1AD2FB
:1005F000BEF1300F05D3BEF13A0F02D2AEF1300E8C
:100600000AE0BEF1410F05D3BEF1470F02D2AEF1B1
:10061000370E01E0AEF1570E0EEB03130CF1010C97
:10062000BCF10B0FCAD3BCF10B0F39D3002010BDA6
:1006300084461CF802E0BEF1000F02D10B600120DD
:100640002AE0BEF16B0F02D0BEF14B0F05D1BCF119
:10065000000F02D098020860F1E7BEF16D0F02D0E2
:10066000BEF14D0F06D1BCF1000F03D01805086094
:10067000012011E0BEF1300F0ED3BEF13A0F0BD2C4
:100680004FF00A0E1CF80240303C03FB0E430CF105
:10069000010CBCF10B0FCCD3BCF10B0F28BF002019
:1006A00010BD000038B50400124D2021286800F06C
:1006B000A9FB18B1286880882070012032BD000095
:1006C00080B500208DF8000000A8FFF7EBFF0028A0
:1006D000FAD09DF8000002BD10B5064C010020685C
:1006E00000F064FB8021206800F08CFB0028F9D02A
:1006F00010BD0000180C002010B5040003E014F831
:10070000010BFFF7E9FF20780028F8D110BD0000A9
:1007100001B481B00199880A890518BF401C02B054
:10072000704700002DE9F04701260224042500F05F
:1007300021FA8046DFF86891D9F81000254F00EAC9
:100740000801814240D000F00FFA8246D9F810002B
:1007500048EA0000C9F8100000F006F98046D9F810
:1007600010004FF0FF31884203D0C04300F060F921
:1007700080460AF00700072810D01AF0010F08BFC2
:1007800000261AF0020F08BF00241AF0040F08BF59
:1007900000252A002100300000F0A0F9B8F1040F74
:1007A0000FD13800FFF7A8FF07F12000FFF7A4FFE3
:1007B00001214FF40060FFF76BFE4F2001F04CFC6D
:1007C00006E007F16C0001E007F19800FFF794FFE5
:1007D000BDE8F087241C0008F8B52E48006800F139
:1007E0007840000B2E4CE060012101FA00F0401E21
:1007F000C043206100F0BEF92169274D05F58076E0
:1008000005F180070840884213D00120207028009D
:10081000FFF772FF05F14000FFF76EFF3800FFF7AA
:100820006BFF05F1C000FFF767FF3000FFF764FFC3
:100830000DE00020207005F5A070FFF75DFF05F1C9
:100840004000FFF759FF3800EDE701F049FAFFF7E4
:1008500037FF3128F9D032280AD110484068A0600B
:1008600060600E48006801F0A7FA60688047EEE714
:100870002178332804D1012902D1FFF753FFE6E79D
:1008800011B905F5C070D1E705F5DE70FFF734FF4B
:10089000DDE700BF540D0020E0150008003000081F
:1008A000300C002010B5040008D0012C06D0022C1A
:1008B00004D05921DFF8C40201F078F8DFF8EC0227
:1008C0000068016801F0380112E0000010B5040072
:1008D000102C05D024B18121DFF8A00201F066F8C8
:1008E000DFF8C80200680168102200BF914300BF12
:1008F000016001682143016010BD0000DFF8AC0217
:100900000068DFF858124160DFF854124160704708
:1009100070B50400B4F1006F02D34448844204D39C
:10092000B221DFF8580201F041F840F6FF752800C7
:1009300000F03EF9042815D1DFF87002066830692E
:1009400040F0020030617461306940F04000306175
:10095000280000F02DF9012804D0316941F6FD721C
:100960001140316170BD000038B540F6FF742000C1
:1009700000F01EF904282AD1DFF830020568774814
:10098000A8607748A860286940F02000286128699D
:1009900040F040002861200000F00AF941F6EF74B1
:1009A00004280FD1286941F6DF71084028612869C1
:1009B00040F0100028616B480068A52101800F20DD
:1009C00000F0F6F8012802D029692140296132BDE2
:1009D000F8B504000D00B4F1006F02D3134884424F
:1009E00005D340F23B11DFF8940100F0DFFF0F2048
:1009F00000F0DEF8042818D1DFF8B001066830698D
:100A000040F00100306125800F2000F0D1F841F660
:100A1000FE77042804D1280C60800F2000F0C8F86D
:100A2000012802D0316939403161F2BDFFFF07086A
:100A30002DE9F843040002BF40F2D1114F4800F005
:100A4000B5FFE043C4B200F47F410D0A00F47F011A
:100A50000E0C070E0F2000F0ABF804283CD15349D0
:100A6000D1F800803D49C8F808103D49C8F8081081
:100A7000D8F8101041F01001C8F810103949D1F819
:100A80000090FF2C04D0A9F808400F2000F090F847
:100A9000042806D1FF2D04D0A9F80A500F2000F039
:100AA00087F8042806D1FF2E04D0A9F80C600F2087
:100AB00000F07EF8042806D1FF2F04D0A9F80E70AC
:100AC0000F2000F075F8012806D0D8F8101041F674
:100AD000EF721140C8F81010BDE8F283F8B50500B8
:100AE0000E001400254F012D05D025B140F26F21D5
:100AF000380000F05BFF022E05D026B14FF41C71C8
:100B0000380000F053FF042C05D024B140F27121CD
:100B1000380000F04BFF254807681048B8601048BF
:100B2000B8600F2000F044F8042815D1386940F06F
:100B30001000386146EA0500204340F0F8000949FA
:100B4000096848800F2000F033F8012804D0396983
:100B500041F6EF7211403961F2BD00002301674593
:100B6000AB89EFCD240C002010480068C0698008D4
:100B7000704700000D480068006A7047401F000879
:100B80000A480068C16811F0010F01D001207047C8
:100B9000C16811F0040F01D002207047C06810F046
:100BA000100F01D00320704704207047200C002054
:100BB00010B582B00400FFF7E3FF08E00098401E84
:100BC000009000980028F9D1FFF7DAFF641E012891
:100BD00004D124B100200090FF20F1E704B90520E2
:100BE00016BD00002DE9F04385B004000D00DFF8CC
:100BF000AC62DFF8AC72DFF8AC82DFF8AC924C4547
:100C00000FD0DFF8A80284420BD0DFF8A4028442A0
:100C100007D0444505D0BC4203D09521300000F0F8
:100C2000C5FE286810B14849884203D39621300098
:100C300000F0BCFEA88838B14FF48051884203D040
:100C40009721300000F0B2FEE88878B14FF480516F
:100C500088420BD04FF40051884207D04FF44051E6
:100C6000884203D09821300000F0A0FE288958B1B6
:100C70004FF48061884207D04FF4C061884203D0AE
:100C80009921300000F092FE68894FF6F371084216
:100C900000D118B99A21300000F088FEA88978B1F7
:100CA0004FF4807188420BD04FF40071884207D016
:100CB0004FF44071884203D09B21300000F076FE53
:100CC000444501D0BC4205D1A88918B19D2130000E
:100CD00000F06CFE208A4CF6FF710840E98808435A
:100CE0002082A0894EF6F3110840A988084329897B
:100CF000084369890843A081A08A4FF6FF41084054
:100D0000A9890843A08200A8FFF74EFB4C4514BFF9
:100D1000029803981921484329688900B0FBF1F033
:100D20006421B0FBF1F212011300120902FB110061
:100D300000013230B0FBF1F000F00F0018432081C9
:100D400005B0BDE8F08300BF21AA440070B50400DF
:100D50000D00DFF84861DFF85001844214D0DFF85D
:100D60004C01844210D0DFF8480184420CD0DFF8F7
:100D70003401844208D0DFF82801844204D04FF4C3
:100D80009D71300000F012FE55B1012D04D040F2EB
:100D90003B11300000F00AFEA08940F4005003E04F
:100DA000A0894DF6FF710840A08170BD70B50400A8
:100DB0000D00DFF8E860DFF8F000844214D0DFF8BF
:100DC000EC00844210D0DFF8E80084420CD0DFF859
:100DD000D400844208D0DFF8C800844204D040F236
:100DE0003E21300000F0E2FD4FF40070854204D354
:100DF00040F23F21300000F0D9FDE805C00DA08091
:100E000070BD00002DE9F04104000D00234E244F79
:100E1000DFF89080244884420ED0244884420BD0CE
:100E20002348844208D0444506D0BC4204D040F256
:100E30003A31300000F0BAFD012D1AD0802D18D0C3
:100E4000402D16D0202D14D0102D12D04FF48070CC
:100E500085420ED04FF4007085420AD0082D08D08C
:100E6000042D06D0022D04D040F23B31300000F0BA
:100E70009DFD444501D0BC4208D14FF4007085422D
:100E800004D14FF44F71300000F090FD20882840CD
:100E900018BF0120C0B2BDE8F0810000E81F0008C3
:100EA00000500040004C0040003801400044004029
:100EB000004800400D0A2A2A2A2A2A2A2A2A2A2AEF
:100EC0002A2A2A2A2A2A2A2A2A2A2A2A2A2A2A2A82
:100ED000436F70797269676874202863292A2A2A07
:100EE0002A2A2A2A2A2A2A2A2A2A2A2A2A2A2A2A62
:100EF0002A2A2A2A2A2A2A2A2A2A2A2A00000000FA
:100F00000D0A2A2020202020202020202020202000
:100F10002020202020CBBC20CDC920C3CB20B6B9B7
:100F200020C6A420BFAA20B7A220D0A120D7E920A4
:100F300020202020202020202020202020202020B1
:100F4000202020202020202A000000000D0A2A2036
:100F50002020202020202020202020202020202091
:100F6000202020202020202073746D66616E732065
:100F7000C2DBCCB3202020202020202020202020D5
:100F80002020202020202020202020202020202061
:100F90002020202A000000000D0A2A2020202020E6
:100FA0002020202020202020202020202020202041
:100FB0002020202020202020202020202020202031
:100FC0002020202020202020202020202020202021
:100FD0002020202020202020202020202020202A07
:100FE000000000000D0A2A2020202020496E2D41FB
:100FF00070706C69636174696F6E2050726F677294
:10100000616D6D696E67204170706C6963617469B0
:101010006F6E20202856657273696F6E2031A1A310
:1010200030302920202020202020202A000000000D
:101030000D0A2A20202020202020202020202020CF
:1010400020515120C8BA3A20363530383133313644
:10105000202053746D46616E73CBBCCDC9C3CB20C9
:1010600031D7E920202020202020202020202020EF
:10107000202020202020202A000000000D0A2A2005
:1010800020202020202020202020202020515120FE
:10109000C8BA3A20363835383439353120205374BF
:1010A0006D46616E73CBBCCDC9C3CB2032D7E9206E
:1010B0002020202020202020202020202020202030
:1010C0002020202A000000000D0A2A2020202020B5
:1010D0002020202020202020202020202068747420
:1010E000703A2F2F7777772E73746D66616E732E3B
:1010F000636F6D2F6262732F20202020202020201C
:101100002020202020202020202020202020202AD5
:10111000000000000D0A2A2A2A2A2A2A2A2A2A2A14
:101120002A2A2A2A2A2A2A2A2A2A2A2A2A2A2A2A1F
:101130002A2A2A2A2A2A2A2A2A2A2A2A2A2A2A2A0F
:101140002A2A2A2A2A2A2A2A2A2A2A2A2A2A2A2AFF
:101150002A2A2A2A2A2A2A2A2A2A2A2A0000000097
:101160000D0A0D0A0000000038B505000C00200033
:10117000441E30B12800FFF795FA0128F7D100206E
:1011800032BD4FF0FF3032BD2DE9F14FADF5846D2A
:1011900000200190DFF8188208F5827485486060AD
:1011A0000025AB460DF1180A02E00620FFF794FA7D
:1011B000002602E04320FFF78FFA00274FF480114A
:1011C00000A8FFF7D1FF80B1BBF1010FA8BF6D1CD4
:1011D000062DEFDB1820FFF77FFA1820FFF77CFAC7
:1011E00000200DF2244DBDE8F08F9DF8000001288D
:1011F0000AD002282ED0042823D018282DD0412828
:1012000039D0612837D0DFE780278DF818004FF0FC
:1012100001094FF48011484606AA8018FFF7A4FF81
:101220000028D1D109F101091FFA89F9791D8945F1
:10123000EFDB9AF801009AF8021081F0FF01884272
:10124000C2D100253800B0D04FF0FF31781A1BD141
:101250000620C3E74FF48067D7E74FF4801100A85A
:10126000FFF782FF0028AFD19DF800001828ABD10E
:101270004FF0FF37E5E71820FFF72EFA1820FFF7A9
:101280002BFA6FF00200ACE79AF80100F1B2884245
:1012900001D015208FE7002E56D19AF803000028C0
:1012A0004DD000200DF11B0105E000EB080211F804
:1012B000013B1371401C0A780AB1FF28F5DD404458
:1012C00005710020491C04E002AA11F8013B835477
:1012D000401C0A78202A01D01028F5DB02A94554C9
:1012E00001A902A8FFF752F90198B0F5003F08DB09
:1012F0001820FFF7F1F91820FFF7EEF94FF0FF3053
:101300006FE7FFF705FAE060A5600BE06168B8F8E9
:10131000042102FB0010FFF7FBFA88F80000A06828
:10132000401CA060A068E168884203D298F80010D1
:101330000429EBD00620FFF7CFF9432032E0062046
:10134000FFF7CAF901984CE73A000DF11B01DDF8EF
:10135000200400F089FDDDF820042061A94605E0A5
:10136000001D6060081D206109F10409B94518DA03
:10137000606801990F4A5118884212D221690968A0
:10138000FFF726FB2169606802680B689A42E7D084
:101390001820FFF7A1F91820FFF79EF96FF0010060
:1013A0001FE70620FFF798F9761C4FF0010B04E7C2
:1013B0004C0C002000300008F8B504000D00DFF8E8
:1013C0001C72DFF8FC0184421BD0DFF8F801844274
:1013D00017D0DFF8F401844213D0DFF8F001844223
:1013E0000FD0DFF8EC0184420BD0DFF8E801844233
:1013F00007D0DFF8E401844203D08221380000F0F6
:10140000D5FAE87888B104280FD028280DD04828CC
:101410000BD0142809D0102807D01C2805D0182874
:1014200003D08321380000F0C1FA288818B984213C
:10143000380000F0BBFAE87800F00F0610F0100F4B
:101440000CD0A878012807D0022805D0032803D0A3
:101450008C21380000F0AAFAA87806432888C1B287
:1014600019B3226800214FF0010C0CFA01FC0CEAC0
:10147000000EE64515D18B004FF00F0E0EFA03FE5D
:101480006FEA0E0E0EEA020206FA03F31A43EB7835
:10149000282B02D1C4F814C003E0482B08BFC4F8BD
:1014A00010C0491C0829DED322604FF480718842A5
:1014B00024D362680021012301F1080C03FA0CFC1B
:1014C0000CEA000EE64515D18B004FF00F0E0EFA18
:1014D00003FE6FEA0E0E0EEA020206FA03F31A4347
:1014E000EB78282B08BFC4F814C0EB78482B08BF52
:1014F000C4F810C0491C0829DDD36260F1BD0000AA
:1015000070B504000D00DFF8D460DFF8B400844249
:101510001BD0DFF8B000844217D0DFF8AC00844263
:1015200013D0DFF8A80084420FD0DFF8A400844273
:101530000BD0DFF8A000844207D0DFF89C00844283
:1015400003D0FB21300000F031FA012D31D0022D03
:101550002FD0042D2DD0082D2BD0102D29D0202DAB
:1015600027D0402D25D0802D23D04FF48070854288
:101570001FD04FF4007085421BD04FF4806085422D
:1015800017D04FF40060854213D04FF4805085424D
:101590000FD04FF4005085420BD04FF4804085426D
:1015A00007D04FF40040854203D0FC21300000F00A
:1015B000FDF9A068284018BF0120C0B270BD00002E
:1015C00000080140000C01400010014000140140DF
:1015D00000180140001C014000200140781F000855
:1015E0000D0A3D3D3D3D3D3D3D3D3D3D3D3D3D3D8E
:1015F0003D3D3D3D204D61696E204D656E75203D40
:101600003D3D3D3D3D3D3D3D3D3D3D3D3D3D3D3D0A
:101610003D3D3D3D3D3D3D3D3D3D3D0D0A0A00000A
:101620002020446F776E6C6F616420496D6167653F
:1016300020546F207468652053544D333246313046
:101640007820496E7465726E616C20466C617368B7
:10165000202D2D2D2D2D2D2D20310D0A0A000000BD
:1016600020204578656375746520546865204E6553
:10167000772050726F6772616D202D2D2D2D2D2DCD
:101680002D2D2D2D2D2D2D2D2D2D2D2D2D2D2D2D8A
:101690002D2D2D2D2D2D2D2D20320D0A0A0000006F
:1016A000202044697361626C6520746865207772DC
:1016B0006974652070726F74656374696F6E202D34
:1016C0002D2D2D2D2D2D2D2D2D2D2D2D2D2D2D2D4A
:1016D0002D2D2D2D2D2D2D2D20330D0A0A0000002E
:1016E0003D3D3D3D3D3D3D3D3D3D3D3D3D3D3D3D2A
:1016F0003D3D3D3D3D3D3D3D3D3D3D3D3D3D3D3D1A
:101700003D3D3D3D3D3D3D3D3D3D3D3D3D3D3D3D09
:101710003D3D3D3D3D3D3D3D3D3D0D0A0A00000046
:101720000D0A3D3D3D3D3D3D3D3D3D3D3D3D3D3D4C
:101730003D3D3D3D3D204D61696E204D656E7520FE
:101740003D3D3D3D3D3D3D3D3D3D3D3D3D3D3D3DC9
:101750003D3D3D3D3D3D3D3D3D3D3D3D0D0A0A008C
:10176000496E76616C6964204E756D6265722021E8
:10177000203D3D3E20546865206E756D6265722087
:1017800073686F756C642062652065697468657242
:101790002031206F7220320D00000000496E76610A
:1017A0006C6964204E756D6265722021203D3D3E5E
:1017B00020546865206E756D6265722073686F7560
:1017C0006C642062652065697468657220312C2024
:1017D00032206F7220330D0038B500F07DFBFFF72B
:1017E0008DF801210820FEF733FE4FF40040ADF8DC
:1017F000000004208DF803002B4C00A92068FFF79F
:10180000DBFD4FF400412068FFF77AFE002836D157
:1018100000F056F8254C2000FEF76EFF04F14C0056
:10182000FEF76AFF04F19800FEF766FF04F1E40595
:101830002800FEF761FF04F59870FEF75DFF2800B1
:10184000FEF75AFF04F5BE70FEF756FF04F5E4708C
:10185000FEF752FF2800FEF74FFF04F50570FEF774
:101860004BFF2800FEF748FF04F51870FEF744FF11
:1018700004F52B70FEF740FFFEF7AEFF12E000F01C
:1018800063FC0B4801680B4A1140B1F1005F09D1BC
:101890004168094A1160094C2160006800F08CFA27
:1018A00020688047FEE700BF0C0C0020B40E000843
:1018B000003000080000FE2F380C0020340C0020FF
:1018C00010B586B000F036F818208DF803004FF4FC
:1018D0000070ADF8000003208DF80200134C00A941
:1018E0002068FFF769FD04208DF803004FF4806045
:1018F000ADF8000000A92068FFF75EFD4FF4E1306D
:10190000019000200290ADF80C00ADF810000C2002
:10191000ADF80E00064C01A92068FFF763F901211C
:101920002068FFF713FA06B010BD00BF080C0020B6
:10193000180C002010B5FEF7FBFB4FF48030FEF7CB
:1019400017FC194CFEF742FC2070012824D110200E
:10195000FEF7BCFF0220FEF7A5FF0020FEF7C2FC49
:101960000020FEF701FD4FF48060FEF7DFFC4FF42E
:10197000E0114FF48030FEF73DFC0120FEF786FCBD
:101980003920FEF7A9FD0028FAD00220FEF78EFCD0
:10199000FEF7A0FC0828FBD1012144F21400BDE8A9
:1019A0001040FEF755BD00BF480C0020FEE70000C8
:1019B0002020202020202020202000005761697452
:1019C000696E6720666F72207468652066696C6551
:1019D00020746F2062652073656E74202E2E2E2079
:1019E0002870726573732027612720746F206162ED
:1019F0006F7274290A0D00000A0A0D2050726F6779
:101A000072616D6D696E6720436F6D706C65746592
:101A100064205375636365737366756C6C79210A12
:101A20000D2D2D2D2D2D2D2D2D2D2D2D2D2D2D2D06
:101A30002D2D2D2D2D2D2D2D2D2D2D2D2D2D2D2DD6
:101A40002D0D0A204E616D653A2000000A0D2053CD
:101A5000697A653A200000002042797465730D0AA6
:101A6000000000002D2D2D2D2D2D2D2D2D2D2D2D5A
:101A70002D2D2D2D2D2D2D0A000000000A0A0D54AC
:101A8000686520696D6167652073697A652069738F
:101A900020686967686572207468616E2074686583
:101AA00020616C6C6F776564207370616365206D75
:101AB000656D6F7279210A0D000000000A0A0D564B
:101AC0006572696669636174696F6E206661696CCD
:101AD0006564210A0D0000000D0A0A41626F7274EC
:101AE000656420627920757365722E0A0D0000000E
:101AF0000A0D4661696C656420746F2072656365C8
:101B0000697665207468652066696C65210A0D0038
:101B100070470000FEE70000FEE70000FEE700005F
:101B2000FEE70000704700007047000070470000AB
:101B300070470000704700007047000070470000C9
:101B400070470000704700007047000070470000B9
:101B500070470000704700007047000070470000A9
:101B60007047000070470000704700007047000099
:101B70007047000070470000704700007047000089
:101B80007047000070470000704700007047000079
:101B90007047000070470000704700007047000069
:101BA0007047000070470000704700007047000059
:101BB0007047000070470000704700007047000049
:101BC0007047000070470000704700007047000039
:101BD0007047000070470000704700007047000029
:101BE0007047000070470000704700007047000019
:101BF0007047000070470000704700007047000009
:101C000070470000704700007047000070470000F8
:101C100070470000704700007047000070470000E8
:101C20007047000057726974652050726F74656365
:101C300074696F6E2064697361626C65642E2E2E08
:101C40000D0A00002E2E2E616E64206120537973E0
:101C500074656D2052657365742077696C6C2062C1
:101C6000652067656E65726174656420746F2072AB
:101C7000652D6C6F616420746865206E6577206FD8
:101C80007074696F6E2062797465730D0A000000CC
:101C90004572726F723A20466C6173682077726980
:101CA000746520756E70726F74656374696F6E20F1
:101CB0006661696C65642E2E2E0D0A00466C617398
:101CC00068206D656D6F7279206E6F742077726910
:101CD00074652070726F7465637465640D0A00002A
:101CE0003EB5214D00A829000A2200F0BDF805F1FB
:101CF0000C00FEF701FD1D48FFF746FA0400012C19
:101D000018DB05F14800FEF7F7FC1948FEF7F4FC74
:101D1000210000A8FEF716FC05F19C00FEF7ECFC84
:101D200000A8FEF7E9FC05F1A800FEF7E5FC05F1C7
:101D3000B40016E04FF0FF30844202D105F1CC0030
:101D40000FE06FF00100844202D105F5867008E0D3
:101D50006FF00200844202D105F5947001E005F5B0
:101D6000A070FEF7C9FC37BDB019000800080020BC
:101D7000500C002030BF704720BF704740BF7047F5
:101D8000BFF36F8F7047BFF34F8F7047BFF35F8F05
:101D9000704701DF7047EFF31480704780F31488B9
:101DA000BFF36F8F7047EFF30980704780F30988A6
:101DB0007047EFF30880704780F30888704762B679
:101DC000704772B67047EFF31080704761B6704786
:101DD00071B67047EFF31380704780F31188704736
:101DE000EFF31280704740BA704700BA70470000A6
:101DF00070B500F10801026801EBC202406802EB15
:101E0000C00000239C469E4601E0AC4207D18242BE
:101E100000D170BD52F8044B52F8045B2D19634594
:101E200002BF51F8043B51F804CB9C446345ECD00D
:101E3000AC42EAD0BEF1000F08BF13F901EB002657
:101E400001E004F8016BBEF1000FEFD0AC42EDD021
:101E50006345EBD0BEF1000F52BFAEF1010E13F897
:101E6000016B0EF1010EECE78B0707D0521E24BF69
:101E700011F8013B00F8013BF6D8704783071ED1EB
:101E8000103A07D330B4B1E83810103AA0E838104F
:101E9000F9D230BC530724BFB1E80810A0E80810FD
:101EA00044BF51F8043B40F8043BD20724BF31F84B
:101EB000022B20F8022B44BF0B7803707047083ABE
:101EC00007D3B1E80810083A40F8043B40F804CBC7
:101ED000F7D25307E4E700000C480D4901620D49B1
:101EE00041620D4981600D49C1600D4901610D4993
:101EF00041610D4941600D4981620D49C1620D4941
:101F0000C1610D4981610D4901607047000C0020DD
:101F10000020024000F8FF1F00080140000C0140B3
:101F200000100140002001400000014000E100E0FD
:101F300000ED00E00010024000380140002C00409D
:101F4000443A5C4941505C616E323535375F444FED
:101F50005550495C46574C69625C6C6962726172AB
:101F6000795C7372635C73746D3332663130785FA1
:101F7000666C6173682E6300443A5C4941505C6151
:101F80006E323535375F444F5550495C46574C6982
:101F9000625C6C6962726172795C7372635C7374A7
:101FA0006D3332663130785F6770696F2E63000081
:101FB000443A5C4941505C616E323535375F444F7D
:101FC0005550495C46574C69625C6C69627261723B
:101FD000795C7372635C73746D3332663130785F31
:101FE0007263632E63000000443A5C4941505C61B7
:101FF0006E323535375F444F5550495C46574C6912
:10200000625C6C6962726172795C7372635C737436
:102010006D3332663130785F75736172742E630090
:10202000443A5C4941505C616E323535375F444F0C
:102030005550495C46574C69625C6C6962726172CA
:10204000795C7372635C73746D3332663130785FC0
:10205000777764672E63000010B50400402C01D32D
:10206000802C03D39C210448FFF7A0FC44F080009F
:1020700002490968086010BD20200008000C0020FB
:10208000C92000084C0400000008002000000000E7
:10209000F11D0008010000000100000054210008AB
:1020A0000D0000004C0C00201801000010B5044881
:1020B000044C02E050F8041B8847A042FAD110BD3E
:1020C00080200008AC200008002305E050F8041B25
:1020D00041F8043B121FFBD150F8042B002AF5D124
:1020E0007047000000F032F8002801D0FFF7DEFF53
:1020F0000020FFF771FB00F02BF8000080B50449C9
:102100000868002803D00220ABBE0020086001BD93
:10211000440C00200000000001020304010203043B
:10212000060708090204060880B5FFF7E7FF024921
:102130001820ABBEFCE7C046260002000746384622
:10214000FFF7F2FFFBE70000FFF73BBE01207047FF
:10215000FFF7F4BFFF047F7F06FF0403FD30000894
:012160000C72
:04000005080020E5EA
:00000001FF
