:020000040800F2
:10000000A8450020391C00085118000853180008A2
:1000100081180008831800088518000800000000F7
:100020000000000000000000000000008718000829
:1000300089180008000000008B180008911C0008B7
:10004000951C0008991C00089D1C0008A11C0008B4
:10005000A51C0008A91C0008AD1C0008B11C000864
:10006000B51C0008B91C0008BD1C0008C11C000814
:10007000C51C0008C91C0008CD1C0008D11C0008C4
:10008000D51C0008D91C0008DD1C0008E11C000874
:10009000E51C0008E91C0008ED1C0008F11C000824
:1000A000F51C0008F91C0008FD1C0008011D0008D3
:1000B000051D0008091D00080D1D0008111D000880
:1000C000151D0008191D00081D1D0008211D000830
:1000D000251D0008291D00082D1D0008311D0008E0
:1000E000351D0008391D00083D1D0008411D000890
:1000F000451D0008491D00084D1D0008511D000840
:10010000551D0008591D00085D1D0008611D0008EF
:10011000651D0008691D00086D1D0008711D00089F
:10012000751D0008791D00087D1D0008811D00084F
:10013000851D0008891D00088D1D0008911D0008FF
:10014000951D0008991D00089D1D0008A11D0008AF
:10015000A51D0008A91D0008AD1D0008B11D00085F
:10016000B51D0008B91D0008BD1D0008C11D00080F
:10017000C51D0008C91D0008CD1D0008D11D0008BF
:10018000D51D0008D91D00082DE9F04F93B0814618
:1001900017461D46029102AE002009E017F8011B28
:1001A0000298C8470290002800F0CF81B069401C37
:1001B000B061387808B9B069C9E12528EED10020CE
:1001C000F0603061706101E040F0010017F8011F3C
:1001D0002029F9D023290ED02B2904D02D2906D08F
:1001E00030290CD00FE040F0020080B2EEE740F082
:1001F000040080B2EAE740F0080080B2E6E740F091
:10020000100080B2E2E72A290DD129680A1D2A6070
:1002100009683162002904D54942316240F0040086
:1002200080B27F1C13E0002131620BE0316A6FF075
:100230000043994205D001EB810302EB43013039C1
:1002400031627F1C3A78A2F130010A29EED3397865
:100250002E291CBF4FF0FF31F1611ED117F8011F8D
:100260002A2906D129680A1D2A600968F1617F1CC4
:1002700013E00021F1610BE0F1696FF00043994256
:1002800005D001EB810302EB43013039F1617F1CA2
:100290003A78A2F130010A29EED3B08439780FF20E
:1002A000843000F0C3F908B117F8010B8DF82E0067
:1002B0009DF82E00682804BF3878682803D1622092
:1002C0008DF82E007F1C0CA8B0603A78252A00F02B
:1002D000B980582A30D0632A00F0A380642A18BF5E
:1002E000692A64D06F2A27D0702A1CD0732A04D0C0
:1002F000752A18BF782A1FD09DE02868011D296043
:1003000000687060F269002A03D500F0B1F930612D
:100310009DE0002100F0D8F900281ABF7168401A4A
:10032000F069306193E02868011D29600068019040
:100330000CA87060782170E09DF82E306C2B08BFFF
:10034000286811D0712B08BF286802D06A2B286852
:100350000AD1C01D20F007002860014601F1080005
:100360002860D1E9000102E0011D296000680190C8
:10037000682B04BF01A8008803D0622B02D101A81A
:100380000078019096F82400000741D501980028D4
:100390003ED042F0200078283AD1F0680CA93023F2
:1003A0004354401C411CF1600CA9425430E09DF8BC
:1003B0002E00622802D0682806D00BE02868011DB4
:1003C000296090F9000009E02868011D2960B0F952
:1003D000000003E02868011D2960006801900028E2
:1003E00005D5F068411CF1600CA92D230FE0B08CFD
:1003F000810705D5F068411CF1600CA92B2306E0AC
:10040000C00705D5F068411CF1600CA920234354B6
:10041000F0680CA940187060114601A800F09AF825
:1004200015E0F068411CF16029680A1D2A600CAAD9
:10043000096881540BE0F068411CF1600CA9252388
:10044000435422B1F068411CF1600CA942547F1C56
:10045000306AF168401A7169401A3169A0EB0108ED
:1004600096F82400400719D420208DF80000B8F138
:10047000010F13DB44464FF0010A0DF1000B1BF88E
:10048000011B0298C847029000285ED0B069401C4A
:10049000B061BAF1010AF2D1641EECD1F4680DF139
:1004A000300A5CB11AF8011B0298C8470290002874
:1004B0004BD0B069401CB061641EF3D130208DF880
:1004C0000000D6F814B0BBF1010F10DB01240DF1D0
:1004D000000A1AF8011B0298C8470290A8B3B06935
:1004E000401CB061641EF4D1BBF1010BEED1346944
:1004F000D6F804A054B11AF8011B0298C84702901C
:1005000018B3B069401CB061641EF4D196F82400A1
:1005100040077FF54EAE20208DF80000B8F1010FA6
:10052000FFF647AE01240DF1000A1AF8011B0298EC
:10053000C847029048B1B069401CB061641EF4D154
:10054000B8F101083FF435AEECE74FF0FF3013B0DF
:10055000BDE8F08FF0B4C2686F2908BF082405D049
:1005600041F02003782B14BF0A24102418230568B7
:100570002E46642918BF692902D1002D48BF764252
:10058000002E04BF056A002D09D1082C27D190F850
:100590002810090723D517233021D1751FE05D1ED0
:1005A0002B46B6FBF4F704FB17663036F6B23A2E4C
:1005B00024BFA1F1510C6644AE543E0003D08568BF
:1005C0009F18BD42EBD3082C09D190F828100907D9
:1005D00005D5995C302902D05B1E30219954C3F1B6
:1005E000180141619A188260026A914207DA511A31
:1005F0008161018D4FF6EF721140018510E0002AF4
:100600000ED590F8282002F01402102A08D1426A70
:100610000369D21A8369D21A531A012BA8BF8361C6
:10062000F0BC7047686C747A4C0000000278C9B264
:100630008A421AB11CBF10F8012FF9E718BF002039
:10064000704710B450F8041B81B102681218001DE5
:1006500050F8043BDC0744BFA9F10104E31852F849
:10066000044B43F8044B091FF9D1EBE710BC70476A
:1006700000F10103810704D010F8011B89B1810743
:10068000FAD10268B2F10131914311F0803F04BF09
:1006900050F8042FF6E710F8011B11B110F8011BF8
:1006A000FBE7C01A704750F8041B61B150F8042BE7
:1006B000D30744BFA9F101039A18002342F8043B71
:1006C000091FFAD1EFE77047C9B2830706D0521E5F
:1006D00022D310F8013B9942F7D11FE0083A13D317
:1006E00002F1040241EA012141EA014150F8043BD0
:1006F000121F21BF4B40A3F1013C2CEA030C1CF05C
:10070000803FF3D0C9B2001F083210F8013B521EDF
:1007100028BF91EA030FF8D818BF0120401E704788
:1007200038B504000D002800451E002806D0200022
:1007300000F0F2F90128F6D1002001E05FF0FF306F
:1007400032BD10B504002000C0B200F000FA002055
:1007500010BD2DE9F04182B004000D00160000200C
:100760002860310000A8FFF7DBFF002802D05FF00F
:10077000FF3054E09DF8000001280AD002280BD079
:1007800004280DD018280DD041281DD061281BD079
:100790001CE0802080461CE04FF48060804618E01A
:1007A00000203CE0310000A8FFF7BAFF002808D184
:1007B0009DF80000182804D15FF0FF302860002069
:1007C0002DE05FF0FF302AE0012028E05FF0FF30ED
:1007D00025E09DF80000207001200700BFB21FFA3D
:1007E00088F818F1050087420BDA3100BFB23819DA
:1007F000FFF796FF002802D05FF0FF300FE07F1C6C
:10080000ECE76078A17891F0FF01884202D05FF0B8
:10081000FF3004E01FFA88F8C5F800800020BDE82A
:10082000F6812DE9F04FADF22C4D04000020009030
:10083000DFF8C40103900020029000200700002090
:100840008046002006000020050004945FF480121A
:1008500001A909A8FFF77DFF002803D0012800F0B7
:10086000A480ABE0002007000198002807D0B0F179
:10087000FF3F0AD10620FFF764FF0020B7E0062003
:10088000FFF75FFF012005008EE09DF82500F1B223
:10089000884203D01520FFF754FF85E0002E61D178
:1008A0009DF82700002855D0002083460DF1270031
:1008B00082469AF8000000280DD0BBF1FF0F0ADC39
:1008C000DFF838019AF800100BF800101AF1010A4D
:1008D0001BF1010BEDE7DFF8240100210BF80010FC
:1008E0001BF1010B002083461AF1010A9AF800005F
:1008F00020280CD0BBF1100F09DA05A89AF80010D7
:100900000BF800101AF1010A1BF1010BEEE705A824
:1009100000210BF800101BF1010B00A905A800F045
:1009200071F80098DFF8D810884208D31820FFF734
:1009300008FF1820FFF705FF5FF0FF3057E0DFF8F2
:10094000B80000F02AF90620FFF7FBFE4320FFF76E
:10095000F8FE26E00620FFF7F4FE01200500012046
:10096000029021E0019A0DF12701049800F006FAA7
:10097000A14601A80088042190FBF1F2494603A892
:1009800000F022F9002803D10620FFF7DAFE08E084
:100990001820FFF7D6FE1820FFF7D3FE7FF00100E6
:1009A00025E0761C0120804619E01820FFF7C9FEDB
:1009B0001820FFF7C6FE7FF0020018E0B8F1010F23
:1009C00000DB7F1C062F07DB1820FFF7BAFE18207C
:1009D000FFF7B7FE00200AE04320FFF7B2FE002D2C
:1009E0003FF434AF029800283FF42BAF00980DF28B
:1009F0002C4DBDE8F08F00000000010850040020DD
:100A000002000F0070B402000023002400251078BB
:100A1000302846D15078782802D05078582840D1D4
:100A20009078002801D1002074E0022003000B2BF5
:100A300032D2985C002803D10D60012004002BE025
:100A4000985C412802D3985C47280BD3985C6128B6
:100A500002D3985C672805D3985C30281AD3985C39
:100A60003A2817D2985C302805D3985C3A2802D2ED
:100A7000985C30380AE0985C412805D3985C472898
:100A800002D2985C373801E0985C573810EB0515B6
:100A90005B1CCCE7002004000B2B3AD300200400A1
:100AA00037E0002003000B2B2FD2985C002803D1E5
:100AB0000D600120040028E0985C6B2802D0985C4F
:100AC0004B2806D1002B04D0AD020D60012004009C
:100AD0001BE0985C6D2802D0985C4D2806D1002B55
:100AE00004D02D050D60012004000EE0985C302834
:100AF00009D3985C3A2806D20A209E5C303E00FB5F
:100B000005655B1CCFE7002004000B2B01D3002000
:100B10000400200070BC704710B504002021194863
:100B200000F0C8F9002804D0174800882070012080
:100B300000E0002010BD80B500208DF8000000A866
:100B4000FFF7EAFF0028FAD09DF8000002BD10B5BB
:100B50000400E4B2210089B20A4800F0A7F980211C
:100B6000084800F0A7F90028F9D010BD10B504001E
:100B70002078002804D02078FFF7E9FF641CF7E70D
:100B800010BD0000001001400410014080B500F0CD
:100B9000A7F9F32000F07CFA01BD70B50400082528
:100BA00000266A4800F06AF805002E00592E09D286
:100BB0000221300000F0A4F9092801D0012002E050
:100BC0000836F3E7002070BDF8B504000D001600EC
:100BD000002700200700B74219D220685C498842EC
:100BE00015D255F82710206800F0EAF909280CD131
:100BF0002068006855F82710884201D0022007E0DD
:100C00002068001D20607F1CE5E7012000E0002037
:100C1000F2BD10B508244D4800F030F8040000F093
:100C200033FAE108084140F6FF71E20811418842B9
:100C300001D1012000E0002010BD00B583B00820E4
:100C4000019002200090414800F018F8019040F611
:100C5000FF700121019AD2089140401A401C009077
:100C600000F0E0F90021009800F0E7F900F0FEF94B
:100C7000092801D0022000E001200EBD0100002063
:100C8000344A914205D2B1F1006F02D30022100024
:100C90005BE0314A914205D22E4A914202D30822AA
:100CA000100052E02D4A914205D22B4A914202D3C4
:100CB0001022100049E0254A914205D2274A91426C
:100CC00002D31822100040E0254A914205D21F4A63
:100CD000914202D32022100037E0224A914205D2ED
:100CE0001F4A914202D3282210002EE01E4A914250
:100CF00005D21C4A914202D33022100025E01B4A43
:100D0000914205D2184A914202D3382210001CE0C9
:100D1000174A914205D2154A914202D3402210004F
:100D200013E0144A914205D2114A914202D348225B
:100D300010000AE0104A914205D20E4A914202D3B5
:100D40005022100001E058221000704700000108F6
:100D5000FCFF0F08004000080080000800C00008E9
:100D6000000002080000040800000608000008084F
:100D700000000A0800000C0800000E0870B504000E
:100D80000D00160032002900200000F0D7F92000E5
:100D900070BD00002DE9F04385B004000D005FF048
:100DA0000009002600275FF00008A8890028208A93
:100DB000814639F44059E88850EA0909A4F81090AE
:100DC000A0898146314810EA0909A8882989084381
:100DD0006989084350EA0909A4F80C90A08A814661
:100DE00039F44079A88950EA0909A4F8149000A8B8
:100DF00000F0E0F92348844202D02348844202D123
:100E00000398060001E002980600A089000408D5B6
:100E1000192000FB06F029684900B0FBF1F007003B
:100E200007E0192000FB06F029688900B0FBF1F00B
:100E300007006420B7FBF0F0000181465FEA19105B
:100E4000642101FB10708046A08900040AD55FEA86
:100E5000C80032306421B0FBF1F010F0070050EA16
:100E6000090909E05FEA081032306421B0FBF1F0B3
:100E700010F00F0050EA0909A4F8089005B0BDE889
:100E8000F08300000010014000140140F3E9FFFF6F
:100E9000C9B2002904D0828952F40052828104E050
:100EA00082894DF6FF731A4082817047CA05D20DC0
:100EB00082807047020000204FF4007389B299428B
:100EC00013880B4202D00123180001E00023180010
:100ED000C0B2704789B28A0589B2CA43028070479E
:100EE000DFF808020068002809D5DFF80402DFF8FF
:100EF00004120160DFF8F801DFF8FC1101607047AF
:100F0000F8B504000D0000260927EDB2002D02D12E
:100F10000020060010E0EDB2012D03D14FF48070E7
:100F2000060009E0EDB2022D03D14FF40070060077
:100F300002E04FF44070060000F0ECF80700FFB24A
:100F4000092F3AD1DFF8A401006830F44070DFF8CF
:100F50009C110860DFF8940100683043DFF88C11C1
:100F60000860DFF88801006830F0F800DFF87C11D5
:100F70000860DFF87801006854F002010843DFF8E8
:100F80006C110860DFF86401006850F48030DFF80D
:100F90005C11086000F0BEF80700DFF8500100683F
:100FA00030F00200DFF844110860DFF8400100680B
:100FB00030F0F800DFF8341108603800C0B2F2BD3C
:100FC00070B504000D00092600F0A4F80600F6B282
:100FD000092E24D1DFF81401006830F44070DFF8E6
:100FE0000C110860DFF8040100684FF40071084339
:100FF000DFF8F8100860DFF8F400006850F0010036
:10100000DFF8E8100860256000F084F80600DFF8DB
:10101000DC00006840084000DFF8D01008603000B5
:10102000C0B270BD35480068C00705D534483549A1
:101030000160334834490160704770B504000D0009
:10104000092600F067F80600F6B2092E0DD1EDB2C0
:10105000002D05D02D480088A0432C49088004E0CD
:101060002A48008820432949088070BD10B509240A
:101070002248007850F002002049087000F04AF839
:1010800004002000C0B210BD2048008880B2704724
:101090001F490860704709201D490968C90302D526
:1010A000012108001FE01A490968C90602D5062176
:1010B000080018E016490968C90502D50221080090
:1010C00011E01349096811F0EF01002902D007214E
:1010D000080008E00E490968890702D508210800C0
:1010E00001E009210800C0B270470000103C024036
:1010F000043C024023016745AB89EFCD143C02401C
:10110000083C02403B2A19087F6E5D4C163C0240A9
:101110000C3C024080B509208DF80000FFF7BBFFB2
:101120008DF800009DF80000012804D1FFF7B3FFFF
:101130008DF80000F6E79DF8000002BD62B38B0752
:1011400008D0521E11F8013B00F8013B00F024804A
:101150008B07F6D1830740F0208000BF103A07D3F9
:1011600030B4B1E83810103AA0E83810F9D230BCE9
:10117000530724BFB1E80810A0E8081044BF51F895
:10118000043B40F8043BD20724BF31F8022B20F87F
:10119000022B44BF0B7803707047083A07D3B1E8BD
:1011A0000810083A40F8043B40F804CBF7D2530744
:1011B000E4E70000F0B4002100220023022400250F
:1011C0000226DFF830713F6817F00C0739000F0076
:1011D000002F04D0042F06D0082F08D03CE0DFF801
:1011E0001C7107603BE0DFF81871076037E0DFF83B
:1011F00008713F68C7F380573D00DFF8FC703F6817
:1012000017F03F073E00002D0DD0DFF8F470B7FB5C
:10121000F6F7DFF8E4C0DCF800C0CCF3881C0CFB68
:1012200007F73B000CE0DFF8D470B7FBF6F7DFF808
:10123000C8C0DCF800C0CCF3881C0CFB07F73B00EF
:10124000DFF8B4703F68C7F301477F1C7F003C00A4
:10125000B3FBF4F7076002E0DFF8A0700760DFF887
:1012600094703F6817F0F00739000909DFF89470AF
:10127000CF5D3A000768D7404760DFF878703F6875
:1012800017F4E0573900890ADFF87870CF5D3A002B
:101290004768D7408760DFF85C703F6817F46047A5
:1012A0003900490BDFF85C70CF5D3A004768D740E2
:1012B000C760F0BC7047C9B2002905D0124A126855
:1012C0000243114B1A6004E00F4A126882430E4B2E
:1012D0001A607047C9B2002905D00C4A126802434F
:1012E0000A4B1A6004E0094A12688243074B1A60ED
:1012F0007047000008380240043802400024F4001F
:1013000040787D01400000203038024044380240DF
:1013100010B5002400F0E4F800F057F8FFF736FCB1
:10132000FFF777FC00280AD1FFF787FC012803D1DB
:10133000494800F0D9F802E04848FFF717FCFFF7EA
:10134000FAFB0400E4B2312C02D100F014F8F6E705
:10135000E4B2322CF3D14248424909680160424864
:101360003F49096801604148006880F308883E48A9
:1013700000688047E3E710B500243D4800F0B4F86A
:101380003C48FFF74EFA0400012C05DB22003A49E5
:101390003A4800F0A9F817E014F1010F03D13848DA
:1013A00000F0A2F810E014F1020F03D1354800F06C
:1013B0009BF809E014F1030F03D1334800F094F8CF
:1013C00002E0324800F090F810BD70B53048006877
:1013D00004003048006805002F480068060023001C
:1013E0002A0031002D4800F07FF81AA000F07CF8A8
:1013F0002B4800F079F82B492B4800F075F82B4961
:101400002B4800F071F82B492B4800F06DF80023B1
:1014100003220121294800F067F8294800F064F808
:10142000284800F061F8284800F05EF8274800F0EE
:101430005BF8274800F058F8264800F055F818489F
:1014400000F052F8244800F04FF8244800F04CF81F
:1014500070BD00000A0D0000F81B0008081C000801
:10146000A405002004000108A005002000000108D8
:101470008C1800085000002050040020E8190008D3
:10148000101A0008181C0008801B0008941B000894
:10149000107AFF1F147AFF1F187AFF1FC418000864
:1014A00010180008281C0008A81B0008601C000871
:1014B000BC1B0008481C0008D01B0008FC180008D2
:1014C000681C0008041B0008E41B0008CC1A000874
:1014D000AC1A0008381A000834190008641900080A
:1014E00080B500F013F801BD0EB400B582B003A9B9
:1014F000009100AB02460121034878440A30FEF710
:1015000043FE06BC5DF810FB5506000000B587B031
:1015100001210120FFF7CFFE01211020FFF7DAFEA5
:1015200007220921224800F09CF807220A212048BE
:1015300000F097F800208DF8060001208DF80700D4
:1015400002208DF804004FF40070009002208DF806
:10155000050000A9164800F02FF802208DF80400BD
:101560004FF48060009000A9114800F025F85FF466
:10157000E13002900020ADF80C000020ADF80E0024
:101580000020ADF810000020ADF814000C20ADF8DC
:10159000120002A90748FFF7FDFB01210548FFF7EC
:1015A00077FC40210348FFF795FC07B000BD00BF62
:1015B0000000024000100140F0B40022002300248B
:1015C00000252A00102A4AD2012595402B000D68DB
:1015D0001D402C009C4240D1056803261700FFB235
:1015E0007F00BE40B543056005680E791700FFB265
:1015F0007F00BE40354305600D79012D02D00D7985
:10160000022D1AD1856803261700FFB27F00BE4065
:10161000B543856085684E791700FFB27F00BE40F4
:1016200035438560456801269640B5434560456869
:101630008E799640B6B235434560C56803261700DB
:10164000FFB27F00BE40B543C560C568CE791700C4
:10165000FFB27F00BE403543C560521CB2E7F0BC0C
:101660007047F0B400230024D2B211F00705EDB2A8
:10167000AD0012FA05F52B0089B2CD1010EB8505EF
:1016800089B2CE1010EB8606366A0F2711F0070CD0
:101690005FFA8CFC5FEA8C0C17FA0CF7BE432E62E3
:1016A00089B2CD1010EB85052D6A1D432C0089B23F
:1016B000CD1010EB85052C62F0BC704780B5484812
:1016C000006850F47000464908604648006850F0D1
:1016D0000100444908604448002101604148006815
:1016E000424908403F4908604148424901603D483D
:1016F000006830F480203B4908603F4800210160C9
:1017000000F005F83D485FF00061016001BD82B066
:1017100000200190002000903248006850F4803092
:10172000304908602F48006810F40030009001989C
:10173000401C01900098002803D10198B0F5A04FFB
:10174000F0D128480068800302D50120009001E014
:1017500000200090009801283ED12948006850F0F0
:101760008050274908602748006850F440402549C8
:1017700008601D481C49096801601B48006850F456
:101780000040194908601848006850F4A0501649F4
:10179000086017481C4901601248006850F08070CA
:1017A000104908600F4800688001FBD5174840F2D7
:1017B000057101600C480068800880000A490860D3
:1017C0000948006850F002000749086006480068B0
:1017D00010F00C000828F9D102B07047000000009A
:1017E00088ED00E00038024008380240FFFFF6FEB6
:1017F00004380240103000240C38024008ED00E0AC
:10180000403802400070004019544007003C02403C
:101810002A2A2A2A2A2A2A2A2A2A2A2A2A2A2A2A28
:101820002A2A2A2A2A2A2A2A2A2A2A2A2A2A2A2A18
:101830002A2A2A2A2A2A2A2A2A2A2A2A2A2A2A2A08
:101840002A2A2A2A2A2A2A2A2A2A2A2A2A0A0D005F
:101850007047084800221100C9B22A2909D2C9B22A
:101860000A5C054B1A80054A12885206FBD5491CB2
:10187000F2E7FEE790190008041001400010014053
:10188000FEE7FEE7FEE7704770477047B5C8B4FD56
:10189000B7A2CBCDCEC4BCFE2E2E2E2E2E2E2E2E9B
:1018A0002E2E2E2E2E2E2E2E2E2EB0B4BCFCC5CCBF
:1018B000C9CFB5C4D7D6C4B861D6D5D6B9B7A2CB2F
:1018C000CD0A0D000D0A435055203A2053544D3394
:1018D0003246343037494754362C204C514650312B
:1018E00037362C20554944203D20253038582025B6
:1018F00030385820253038580A0D00002A20B9CC3D
:10190000BCFEBFE2B0E6B1BE203A205625642E25CB
:10191000642E2564202853544D3332463478785F42
:101920005374645065726970685F44726976657259
:10193000290D0A00312E20B5E7C4D4BCFCC5CCB0BB
:10194000B4CFC2CAFDD7D631BDF8D0D0D0C2B3CC47
:10195000D0F2B5C462696ECEC4BCFECFC2D4D80A80
:101960000D000000322E20B5E7C4D4BCFCC5CCB0BD
:10197000B4CFC2CAFDD7D632CCF8D7AAB5BDD0C233
:10198000B5C4B3CCD0F2D6B4D0D00A0D000000005C
:101990000D0A456E74657220486172644661756C0B
:1019A000745F48616E646C65722C20537973746542
:1019B0006D2048616C742E0D0A00000010B50849B6
:1019C00079441C31074C7C441A34A14206D0081DCE
:1019D0000A68511888470146A142F8D110BD00BFDE
:1019E000A8000000C80000000A0DB1E0B3CCB3C9E4
:1019F000B9A6A3ACCEC4BCFEC3FBA3BA2573A3ACEB
:101A0000B4F3D0A1A3BA2564D7D6BDDA0A0D00007D
:101A10000A0DCFC2D4D8B5C4CEC4BCFEB4F3D0A195
:101A2000B3ACB3F6C1CBD3C3BBA7C7F8666C6173C5
:101A300068B4F3D0A10A0D002A20436F707972694F
:101A4000676874207777772E61726D666C792E6384
:101A50006F6D20B0B2B8BBC0B3B5E7D7D30D0A00E5
:101A600038B504000D002100C9B289B20548FFF75E
:101A70001DFA40210348FFF71DFA0028F9D0200085
:101A800032BD0000001001401FECFFFF58050000B0
:101A90005000002000000000ABEBFFFF50000000F2
:101AA0003C03000000000020000000002A20CCD4ED
:101AB000B1A6B5EA3A2061726D666C792E74616FD9
:101AC00062616F2E636F6D0D0A0000002A20456D64
:101AD00061696C203A2061726D666C794071712E7B
:101AE000636F6D200D0A00004EF68851CEF20001A2
:101AF000086840F4700008604FF00070E1EE100AD2
:101B0000704700002A205151202020203A203132F5
:101B10003935373434363330200D0A0000F009F8F7
:101B2000002801D0FFF74AFF0020FFF7F1FB00F08B
:101B300002F80120704700F001B80000074638465F
:101B400000F002F8FBE7000080B5C046C046024A3C
:101B500011001820ABBEFBE72600020038B5044692
:101B60000D46284600F006F8A84218BF002420467B
:101B700032BD00000149FFF773BF00BF0000002025
:101B80000A0DD3C3BBA7D6D5D6B9B7A2CBCD0A0D04
:101B9000000000000A0DCEC4BCFEBDD3CAD5CAA742
:101BA000B0DC0A0D000000002A20C0FDB3CCC3FB4E
:101BB000B3C62020203A2025730D0A002A20C0FD3C
:101BC000B3CCB0E6B1BE2020203A2025730D0A0028
:101BD0002A20B7A2B2BCC8D5C6DA2020203A2025D8
:101BE000730D0A002A20CDFACDFA20203A20617226
:101BF0006D666C790D0A00000A0DBDE2B1A3BBA4AD
:101C0000B3C9B9A60A0D0000BDE2B1A3BBA4CAA71F
:101C1000B0DC0D0A000000000A0DD0A3D1E9CAA76C
:101C2000B0DC0A0D0000000056352D3133365FB4AC
:101C3000AEBFDA49415000000148804701480047E3
:101C4000BD160008551C0008323031352D30332DBB
:101C500030350000C046C046FFF746FFFFF75EFF85
:101C600056312E32000000002A200D0A000000002C
:101C7000FFF7EEBDFFF7EDBDFFF702BEFFF701BEB8
:101C8000FFF700BEFFF7FFBDFFF7FEBDFFF7FDBD8D
:101C9000FFF7FEBFFFF7FEBFFFF7FEBFFFF7FEBF78
:101CA000FFF7FEBFFFF7FEBFFFF7FEBFFFF7FEBF68
:101CB000FFF7FEBFFFF7FEBFFFF7FEBFFFF7FEBF58
:101CC000FFF7FEBFFFF7FEBFFFF7FEBFFFF7FEBF48
:101CD000FFF7FEBFFFF7FEBFFFF7FEBFFFF7FEBF38
:101CE000FFF7FEBFFFF7FEBFFFF7FEBFFFF7FEBF28
:101CF000FFF7FEBFFFF7FEBFFFF7FEBFFFF7FEBF18
:101D0000FFF7FEBFFFF7FEBFFFF7FEBFFFF7FEBF07
:101D1000FFF7FEBFFFF7FEBFFFF7FEBFFFF7FEBFF7
:101D2000FFF7FEBFFFF7FEBFFFF7FEBFFFF7FEBFE7
:101D3000FFF7FEBFFFF7FEBFFFF7FEBFFFF7FEBFD7
:101D4000FFF7FEBFFFF7FEBFFFF7FEBFFFF7FEBFC7
:101D5000FFF7FEBFFFF7FEBFFFF7FEBFFFF7FEBFB7
:101D6000FFF7FEBFFFF7FEBFFFF7FEBFFFF7FEBFA7
:101D7000FFF7FEBFFFF7FEBFFFF7FEBFFFF7FEBF97
:101D8000FFF7FEBFFFF7FEBFFFF7FEBFFFF7FEBF87
:101D9000FFF7FEBFFFF7FEBFFFF7FEBFFFF7FEBF77
:101DA000FFF7FEBFFFF7FEBFFFF7FEBFFFF7FEBF67
:101DB000FFF7FEBFFFF7FEBFFFF7FEBFFFF7FEBF57
:101DC000FFF7FEBFFFF7FEBFFFF7FEBFFFF7FEBF47
:101DD000FFF7FEBFFFF7FEBFFFF7FEBF02040101E2
:101DE00050050020A00500205005002050050020CF
:101DF000500500203D0000202400002000000000CD
:101E000000000000000000000000000000000000D2
:101E100000000000000000000000000000000000C2
:0C1E200001020304010203040607080984
:0400000508001C557E
:00000001FF
