:020000040800F2
:10300000B00700206D4100085F36000861360008F7
:1030100065360008693600086D36000800000000BB
:1030200000000000000000000000000071360008F1
:103030007336000800000000753600087736000877
:103040008741000887410008874100088741000840
:103050008741000887410008874100088741000830
:103060008741000887410008874100088741000820
:103070008741000887410008874100088741000810
:103080008741000887410008874100088741000800
:1030900087410008874100088741000887410008F0
:1030A00087410008874100088741000887410008E0
:1030B00087410008874100088741000887410008D0
:1030C00087410008874100088741000887410008C0
:1030D0008741000887410008874100084132000805
:1030E00087410008874100088741000887410008A0
:1030F0008741000887410008874100088741000890
:10310000874100088741000887410008874100087F
:1031100087410008E1320008874100088741000824
:10312000874100088741000887410008874100085F
:1031300000F002F800F03FF80AA090E8000C82448A
:103140008344AAF10107DA4501D100F034F8AFF267
:10315000090EBAE80F0013F0010F18BFFB1A43F075
:1031600001031847FC2D00001C2E0000103A24BF5C
:1031700078C878C1FAD8520724BF30C830C144BFDC
:1031800004680C607047000000230024002500261E
:10319000103A28BF78C1FBD8520728BF30C148BFBA
:1031A0000B607047782902F08180002070471FB5BE
:1031B0001FBD10B510BD02F0CFF91146FFF7F7FFA4
:1031C00000F0D5F902F0EDF903B4FFF7F2FF03BC0C
:1031D00000F0BCFE10B504462146FE4801F010FD8B
:1031E00000BF8021FB4801F079FD0028F9D010BD17
:1031F00010B504462046FFF7EDFF002010BD70B566
:1032000004460D460BE02021F34801F067FD01283C
:1032100005D1F14801F0F8FC2070002070BD2800B5
:10322000A5F10105EFD100BFF8E710B504468822EB
:103230002146EA4802F0ABF80120E949087010BDC8
:1032400010B540F22551E34801F05EFD002846D05C
:10325000E04801F0D9FCC4B2E248E349097844549B
:10326000E148007848B9012C01D0002002E0DE4896
:103270000078401CDC49087031E0DB480078012808
:1032800009D1022C01D0002002E0D7480078401C70
:10329000D549087023E0D4480078022805D1D248E7
:1032A0000078401CD049087019E0CF480078022807
:1032B00015DDCD480078401CCB490870C94880789E
:1032C000001D097888420AD10020C74908705022A1
:1032D000C449C64802F05BF80120C549086010BD2A
:1032E00010B540F22551C34801F00EFD30B1C14880
:1032F00001F08AFCC4B2204600F016FB10BDF0B508
:1033000089B007460E4615461C2D01DD09B0F0BDFB
:10331000002101AAE81C115402208DF804008DF848
:103320000570E8B28DF80600002409E0315DE01C6C
:1033300001AA1154315DB0A001F078FF601CC4B245
:10334000AC42F3DB00240AE001A9E81C085C095D3B
:103350000844C1B201AAE81C1154601CC4B2E81CA4
:103360008442F1DB002405E001A9085DFFF740FF7E
:10337000601CC4B2281D8442F6DB00BFC6E710B54E
:1033800003460C46194644F4807200BF49005200BF
:1033900002F4807000B1491C01F4803010B141F298
:1033A0002100414002F480300028EFD088B210BDE7
:1033B000F0B505460E460024AF1905E015F8011BCF
:1033C000A0B2FFF7DCFF0446BD42F7D3A0B2002154
:1033D000FFF7D5FF044620460021FFF7D0FF044643
:1033E0002046F0BD30B5A3B00024AFF2C11101A852
:1033F00000F095FA0A2094FBF0F100FB114018B997
:1034000000F00CFC7F4908804FF47A7000F071FDE9
:10341000601CC4B2142C00D100247148007801282B
:1034200068D1642000F065FD6C480079902803D1D4
:103430006A4840797449087068488079A02806D1A4
:1034400072496648C01D02680A60808888806348A7
:10345000407BB02806D16E496048D0F80E200A6043
:10346000408A88805D48007DC02806D169495B4854
:10347000153002680A60808888805848C07ED0284D
:103480002BD156490A7F497F02EB012108B202F095
:1034900059FC0546604902F073FB604908604F49DA
:1034A0008A7FC97F02EB012108B202F04BFC05467E
:1034B000594902F065FB59494860484991F8202074
:1034C00091F8211002EB012108B202F03BFC054605
:1034D000534902F055FB51498860404890F822005A
:1034E000F02804D14F493D48D0F82300086000205F
:1034F0003B49087023B030BD70B5AA2000F0DAFB5C
:103500004949487800F0D6FB002000F0D3FB42F296
:10351000107000F0EEFC012407E0FF2000F0CAFB71
:103520002870287841490855641C052CF5DB3F4874
:10353000407801280ED13D4880783C49C97840EA5E
:1035400001203A49097940EA0140C6B23046FFF706
:103550004FFE02E00020FFF74BFE70BD10B5552076
:1035600000F0A8FB3049487800F0A4FB10BD86B0FD
:10357000002002900390049005902D48006801906F
:103580004FF4A06000F012FE00F076FC0A2000F07C
:10359000B0FC00F024FB4FF4165000F0E6FC4FF4B2
:1035A000165000F080FD4FF4165000F02BFD00F097
:1035B00005FC00F0A6FB182000F0E9FB642000F0F9
:1035C00098FC4FF4C871002001F06BFC19A001F0C9
:1035D0002DFE43E0004800400038014090000020EC
:1035E00000000020240100202800002038010020D5
:1035F0001C00002000500040636F6D313A25782098
:103600000A00000014000020010000200200002039
:10361000080000200E0000200000C8421801002011
:10362000000020411800002020000020230000207E
:10363000345F00086379636C00000000FFF78EFFC1
:1036400044F6206000F055FC44F6206000F051FC88
:10365000FFF752FF44F6206000F04BFCEEE77047A6
:1036600000BFFEE700BFFEE700BFFEE700BFFEE7CA
:1036700070477047704770470CB50020019000906C
:103680006C48006840F480306A49086000BF6948AF
:10369000006800F4003000900198401C01900098F0
:1036A00018B90198B0F5A06FF1D16248006800F434
:1036B000003010B10120009001E00020009000983F
:1036C000012843D15C48006840F010005A49086066
:1036D0000846006820F0030008600846006840F0D3
:1036E00002000860534840685249486008464068F4
:1036F00048600846406840F480604860084640687A
:1037000020F47C1048600846406840F4E8104860A7
:103710000846006840F08070086000BF45480068B7
:1037200000F000700028F9D04248406820F0030003
:10373000404948600846406840F00200486000BFC9
:103740003C48406800F00C000828F9D10CBD10B5C9
:10375000FFF792FF10BD10B53648006840F0010039
:103760003449086008464068344908403149486097
:1037700008460068324908402E490860084600683B
:1037800020F4802008600846406820F4FE0048606D
:103790004FF41F008860FFF7DAFF4FF000602949FF
:1037A000086010BD10B5002100200022214B5B688D
:1037B00003F00C0121B1042906D0082928D107E023
:1037C000214B224C236027E01F4B204C236023E039
:1037D000184B5B6803F47010164B5B6803F480327F
:1037E000022303EB904022B9194B4343174C23604B
:1037F0000DE0104B5B6803F4003323B1144B4343DB
:10380000124C236003E0104B4343104C236003E051
:103810000D4B0E4C236000BF00BF064B5B68C3F32B
:1038200003130C4CE15C094B1B68CB40074C236035
:1038300010BD000000100240002002400000FFF810
:10384000FFFFF6FE08ED00E000127A002C000020D9
:1038500000093D0030000020F0B503460C461888F2
:10386000002113E0675C80EA072000250BE046009A
:1038700000F4004CBCF1000F03D041F2210C86EAA9
:103880000C0630466D1C082DF1D3491C9142E9D33A
:103890001880F0BD10B50446062020608021201D50
:1038A00001F0A7FD5A202071A5216171002010BDF3
:1038B00070B504460E461546211D226850182A464A
:1038C000314601F01FFD206828442060002070BDB3
:1038D00038B504462088801FA4F884002088A4F806
:1038E000860094F88410A171B4F88400010AE17193
:1038F000002000900422211D6846FFF7ADFFB4F8B8
:10390000842004F10A016846FFF7A6FFBDF8000015
:103910002072BDF80000010A6172002038BD444ADF
:103920001160444A1060704710B504464248007860
:10393000072879D2DFE800F0040A101A2A30400084
:103940005A2C02D101203C4908706EE0A52C02D10E
:1039500002203949087068E036480068A0F88440C1
:10396000364884700320344908705EE031480068AE
:10397000B0F8840040EA04202E490968A1F88400C8
:103980002E48C47004202C4908704EE02C48048056
:1039900005202949087048E02948008840EA0420A9
:1039A00027490880002023490968086025490880C4
:1039B00006202149087038E01E48006801681D484B
:1039C00000680068401C1B4A1268106019480068B3
:1039D000001D445417480068006816490968B1F88A
:1039E000841088421ED3042214491648FFF734FF7E
:1039F0001048006802680F480168091D1148FFF768
:103A00002BFF104800880E490988884207D10848D2
:103A1000006820B107480068054909688847002008
:103A20000549087001E0FFE700BF00BF002010BD9E
:103A30005C00002060000020680000206900002079
:103A4000640000206600002010B59648006820F44D
:103A50007040944908600846006840F4405008608F
:103A600000209149086040F2EE2000F01EFA01208B
:103A70008E49C1F8A0010F2000F017FA10BD10B553
:103A800000248848006820F4704086490860084691
:103A9000006840F40040086004E0601CC4B20120EB
:103AA00000F003FA80488038006808B1C82CF4DBC5
:103AB000C82C01DB012010BD002404E0601CC4B24E
:103AC000012000F0F2F978488038006808B9F02C3D
:103AD000F4DBF02C01DB0120EDE70020EBE710B573
:103AE0007048006820F470406E490860084600681D
:103AF00040F44050086000206B490860022000F04C
:103B0000D4F901206949C1F8A0016648006820F491
:103B10007040644908600846006840F4004008604E
:103B20000C2000F0C2F960488038006808B1012418
:103B300000E00024322000F0B8F9204610BD70B536
:103B40000026012508E0FFF7CAFF0446E00140EA2D
:103B50006600C6B2681CC5B2082DF4DD304670BDE3
:103B600070B504464F48006820F470404D49086025
:103B70000846006840F440500860012520E004F049
:103B8000010664106EB1002047490860022000F071
:103B90008CF901204549C1F8A0013C2000F085F9CD
:103BA0000CE00020404908603C2000F07EF9012034
:103BB0003E49C1F8A001022000F077F9681CC5B2A7
:103BC000082DDCDD70BD10B5FFF73EFFFFF757FF96
:103BD000CC20FFF7C5FF4420FFF7C2FF10BD08B59A
:103BE0000121042000F06CFE4FF48070ADF800005D
:103BF00010208DF8030003208DF802006946294843
:103C0000001F00F0A1FB4FF480712648001F00F058
:103C100048FCFFF719FFFFF732FF08BD2DE9F84F09
:103C2000FFF7D1FFFFF710FFFFF729FFCC20FFF7C9
:103C300097FFBE20FFF794FFFFF781FF8346FFF752
:103C40007EFF0446072C08DDE043C4B26FEA0B0098
:103C500000F0FF0B4FF0000A01E04FF0010AA1460F
:103C60004FEA09200FFA80F909EB0B000FFA80F9EF
:103C7000484602F067F8009001F056FF0746002220
:103C80000B4B01F053FE054601F020FE0FFA80F9C0
:103C9000BAF1000F02D04846BDE8F88FC9F1000024
:103CA00000B2F9E704080140A001214200002142CE
:103CB0000000E43F70B50546002405E0601CC4B276
:103CC000C82C01DD002070BD02213A4801F075FAD0
:103CD0000028F3D02946374801F01CFA002405E0FB
:103CE000601CC4B2C82C01DD0020ECE70121314882
:103CF00001F063FA0028F3D02E4801F00DFAC0B2AB
:103D0000E1E700B587B00121082000F0D9FD0121CD
:103D1000880300F0E2FD4FF46040ADF81800182071
:103D20008DF81B0003208DF81A0006A9224800F028
:103D30000BFB4FF46041204800F0B3FB0020ADF8CE
:103D400004004FF48270ADF806000020ADF80800C2
:103D50000220ADF80A000120ADF80C004002ADF8D9
:103D60000E003820ADF810000020ADF8120007203A
:103D7000ADF8140001A90F4801F0F6F801210D4833
:103D800001F097F9FF20FFF795FF07B000BD10B5D0
:103D90000446084800884FF6C77108400549088066
:103DA00008460088204308800121024801F081F97B
:103DB00010BD000000380040000C014000B585B087
:103DC0000121042000F07CFD0121480700F085FD61
:103DD0001020ADF8100000208DF8130003208DF89E
:103DE000120004A9214800F0AFFA10211F4800F08A
:103DF00058FB002000900190029002200390694639
:103E0000002000F0D0FF0121002000F0E9FF002198
:103E1000084601F046F805B000BD2DE9F04704461C
:103E2000204601F0A7FF81461149484601F0A8FE4F
:103E300081464FF08B41484601F0B0FF824601F0C9
:103E400073FE07464FF066320A4B01F0E7FB05466A
:103E500001F0B2FB8146484601F054FF85B2294685
:103E6000002001F01EF8BDE8F087000000080140C6
:103E700000007A4466660A4010B56FF0040000F056
:103E8000E4F92E4800682E49B0FBF1F02D49087086
:103E90000846007800EB4001C1EBC0104FF6FF71FF
:103EA00001EAC0002849088010BD0146254A127861
:103EB0004A434FF0E0235A6100229A611A46126980
:103EC00042F001021A6100BF4FF0E022106900F0D9
:103ED00001021AB100F48032002AF5D04FF0E0223E
:103EE000126922F001024FF0E0231A6100229A6168
:103EF00070470146144A12884A434FF0E0235A6142
:103F000000229A611A46126942F001021A6100BF4A
:103F10004FF0E022106900F001021AB100F4803283
:103F2000002AF5D04FF0E022126922F001024FF092
:103F3000E0231A6100229A61704700002C000020E3
:103F400000127A006E00002070000020014600BFC1
:103F5000704700BF7E4A128802F04002002AF9D062
:103F6000C2B27B4B1B1D1A80704710B586B0044649
:103F7000012144F2040000F0A3FC25208DF800008C
:103F800003208DF8010002208DF8020001208DF839
:103F90000300684600F00FF94FF40070ADF814000C
:103FA00003208DF8160018208DF8170005A9694820
:103FB00000F0CAF94FF48060ADF8140004208DF8C9
:103FC000170005A9634800F0BFF901940020ADF87F
:103FD0000800ADF80A00ADF80C00ADF810000C2098
:103FE000ADF80E0001A95A4800F011FD012240F27F
:103FF0002551574800F0A3FD0121554800F093FDDD
:1040000006B010BD10B586B004460121312000F085
:1040100057FC0121080500F060FC02940020ADF877
:104020000C00ADF80E00ADF81000ADF814000C2037
:10403000ADF8120035208DF8000003208DF8010046
:104040008DF8020001208DF80300684600F0B3F8F7
:1040500018208DF807004FF48050ADF804000320BD
:104060008DF8060001A93C4800F06EF904208DF897
:104070000700ADF8040001A9384800F065F902A96D
:10408000374800F0C4FC012240F22551344800F0CA
:1040900056FD4021324800F02EFE0121304800F04C
:1040A00042FD06B010BD10B586B0044601210820BF
:1040B00000F006FC0121880400F00FFC4FF4806042
:1040C000ADF8140003208DF8160018208DF81700A5
:1040D00005A9244800F038F94FF40060ADF8140049
:1040E00004208DF8170005A91E4800F02DF927209F
:1040F0008DF8000003208DF8010002208DF80200E9
:1041000001208DF80300684600F055F80194002066
:10411000ADF80800ADF80A00ADF80C00ADF81000DD
:104120000C20ADF80E0001A90F4800F070FC4021F2
:104130000D4800F0E0FD012240F225510A4800F050
:10414000FEFC0121084800F0EEFC06B010BD0000A6
:1041500000380140000801400010014000140140F7
:1041600000500040000C01400048004009488047D2
:1041700009480047FEE7FEE7FEE7FEE7FEE7FEE749
:10418000FEE7FEE7FEE7FEE704480549054A064B61
:10419000704700005737000831310008B001002097
:1041A000B0070020B0030020B003002031490143D4
:1041B000314A1160704770B5002100230F22C47886
:1041C00004B32D4C246804F4E064C4F5E064210ACF
:1041D000C1F10403CA40447804FA03F1847814401E
:1041E00021430901254C0678A155047804F01F05E8
:1041F0000124AC4005786D11AD0005F1E025C5F84E
:10420000004109E0047804F01F050124AC401C4D76
:104210000678761145F8264070BD1A4A0A400243D6
:10422000154B1B1F1A60704739B1134A121D1268D3
:104230000243114B1B1D1A6006E00F4A121D126843
:1042400082430D4B1B1D1A607047042808D14FF0A4
:10425000E021096941F004014FF0E022116107E01B
:104260004FF0E021096921F004014FF0E0221161D3
:10427000704700000000FA050CED00E000E400E0EB
:1042800080E100E080FFFF1F10B50446CC48844267
:1042900008D10121042000F02DFB0021042000F0B2
:1042A00029FB46E0C748844208D10121082000F0DC
:1042B00021FB0021082000F01DFB3AE0C2488442A7
:1042C00008D10121102000F015FB0021102000F082
:1042D00011FB2EE0BD48844208D10121202000F0CE
:1042E00009FB0021202000F005FB22E0B8488442B1
:1042F00008D10121402000F0FDFA0021402000F00B
:10430000F9FA16E0B348844208D10121802000F078
:10431000F1FA0021802000F0EDFA0AE0AE48844274
:1043200007D10121801500F0E5FA0021A01500F069
:10433000E1FA10BD10B50121084600F0DBFA0021BA
:10434000012000F0D7FA10BD2DE9F041024600250A
:104350000026002000230024002791F803C00CF061
:104360000F0591F803C00CF0100CBCF1000F03D046
:1043700091F802C04CEA050591F800C0BCF1000FAD
:1043800031D0146800202BE04FF0010C0CFA00F340
:10439000B1F800C00CEA03069E4220D183004FF022
:1043A0000F0C0CFA03F7BC4305FA03FC4CEA0404B7
:1043B00091F803C0BCF1280F06D14FF0010C0CFAA4
:1043C00000FCC2F814C00AE091F803C0BCF1480F29
:1043D00005D14FF0010C0CFA00FCC2F810C0401CD3
:1043E0000828D1D31460B1F800C0BCF1FF0F34DD50
:1043F000546800202EE000F1080C4FF0010808FA84
:104400000CF3B1F800C00CEA03069E4221D18300F0
:104410004FF00F0C0CFA03F7BC4305FA03FC4CEA0F
:10442000040491F803C0BCF1280F05D100F1080C79
:1044300008FA0CF8C2F8148091F803C0BCF1480FD8
:1044400007D100F1080C4FF0010808FA0CF8C2F887
:104450001080401C0828CED35460BDE8F0814FF690
:10446000FF710180022181700421C17070470246F2
:10447000002093680B400BB1012000E00020704742
:104480000146886880B2704702460020D3680B401E
:104490000BB1012000E0002070470146C86880B2DF
:1044A000704701617047416170470AB1016100E0E6
:1044B00041617047C16070474FF480320A438261A6
:1044C0008161826182698269704702460020434BA4
:1044D00018684FF68073184040EA021008433F4BBB
:1044E000186070473E49C8617047F0B50A4600231E
:1044F00000240021002500F00046B6F1004F02D153
:10450000364EF16901E0354E7168C0F3034583B260
:1045100000F44016B6F5401F08D121F070612F4E0F
:10452000766826F070662D4F7E6012E000F48016EB
:10453000B6F5801F06D1032606FA05F4A14341F023
:10454000706106E0460D360103FA06F6B14341F00C
:10455000706122B1460D360103FA06F6314300F0D0
:104560000046B6F1004F02D11C4EF16101E01B4E36
:104570007160F0BD30B500228B071C0F0F2303FACA
:1045800004F2164B08338C1053F824309343134C29
:1045900008348D1044F8253023468C1053F824300D
:1045A0008C07240F00FA04F423430C4C08348D10BC
:1045B00044F8253030BD0A49DC31086070470000FE
:1045C00000080140000C01400010014000140140AF
:1045D00000180140001C0140002001400000014083
:1045E00000002042DF48006840F00100DD4908601B
:1045F00008464068DC490840DA49486008460068D7
:10460000DA490840D74908600846006820F480204D
:1046100008600846406820F4FE0048604FF41F0020
:1046200088607047CF49096821F48031CD4A116014
:104630001146096821F480211160B0F5803F03D054
:10464000B0F5802F0ED106E0C649096841F48031EB
:10465000C44A116007E0C349096841F4A021C14A76
:10466000116000E000BF00BF704710B50146002296
:10467000002300204A11012A02D1BA4C236806E027
:10468000022A02D1B74C236A01E0B64C636A01F0FA
:104690001F02012494401C400CB1012000E00020C6
:1046A00010BD38B5002000900024002500BF312047
:1046B000FFF7DBFF05460098401C00900098B0F51E
:1046C000A06F01D0002DF2D03120FFF7CEFF08B14E
:1046D000012400E00024204638BD01460020A14A04
:1046E000106820F0F80040EAC10010607047A0494F
:1046F00008607047024600209A4B586820F47C10EE
:1047000042EA01031843974B58607047984908667E
:10471000704701460020934A506820F00300084388
:10472000506070478F48406800F00C0070470146A9
:1047300000208C4A506820F0F00008435060704719
:1047400001460020874A506820F4E060084350602A
:10475000704701460020834A506820F4605040EAC8
:10476000C1005060704729B17E4A527A02437D4BA6
:104770005A7204E07B4A527A82437A4B5A727047EB
:104780007B49D8310860704701460020754A50685F
:1047900020F440400843506070470021714A2032A5
:1047A0001170704A82F82010012802D004280AD122
:1047B00004E001216B4A2032117005E00521694AAD
:1047C0002032117000E000BF00BF704769490860E7
:1047D00070476449096A0143624A1162704765493A
:1047E00044390860704730B50021002200240023BE
:1047F0005C4D6D6805F00C0121B1042905D0082934
:1048000023D105E05C4D056022E05B4D05601FE0B3
:10481000544D6D6805F47012524D6D6805F4803486
:10482000022505EB92421CB9544D554305600BE03F
:104830004C4D6D6805F400351DB1504D5543056074
:1048400002E04D4D5543056002E04B4D056000BF51
:1048500000BF444D6D6805F0F0010909484D6B5CDF
:104860000568DD4045603F4D6D6805F4E061090A6B
:10487000434D6B5C4568DD4085603A4D6D6805F4DD
:104880006051C90A3E4D6B5C4568DD40C560354DE1
:104890006D6805F44041890B3A4D6B5CC568B5FB0A
:1048A000F3F5056130BD29B12E4A526902432D4B03
:1048B0005A6104E02B4A526982432A4B5A6170477D
:1048C00029B1284A92690243264B9A6104E0254A9D
:1048D00092698243234B9A61704729B1214AD26978
:1048E0000243204BDA6104E01E4AD26982431D4B29
:1048F000DA61704729B11B4AD2680243194BDA606A
:1049000004E0184AD2688243164BDA60704729B136
:10491000144A12690243134B1A6104E0114A1269E6
:104920008243104B1A617047124940390860704742
:104930000F49C86470470B49C87170470948406AFD
:1049400040F0807007494862704701460020054AE0
:1049500092680A400AB1012000E000207047014936
:1049600088727047001002400000FFF8FFFFF6FE5B
:10497000000042428004424200127A0000093D00D9
:104980007C0000208C00002010B50446FB488442C7
:1049900009D101218803FFF7ADFF00214FF48040CA
:1049A000FFF7A8FF32E0F648844209D1012148040C
:1049B000FFF7ADFF00214FF40030FFF7A8FF25E01F
:1049C000F048844209D101218804FFF7A0FF0021AB
:1049D0004FF48020FFF79BFF18E0EB48844209D199
:1049E0000121C804FFF793FF00214FF40020FFF7D7
:1049F0008EFF0BE0E548844208D101210805FFF74E
:104A000086FF00214FF48010FFF781FF10BD2DE9D4
:104A1000F04786B005460E460024A24600BFA146D8
:104A20000027B08900B100BF2F462C8A4CF6FF70DA
:104A30000440F08804432C82AC894EF6F310044005
:104A4000B08831890843718908430443AC81AC8A3A
:104A50004FF6FF400440B0890443AC8201A8FFF741
:104A6000C2FEC648874202D1DDF810A001E0DDF8A1
:104A70000CA0A88900F4004040B10AEBCA0000EB8A
:104A80000A1031684900B0FBF1F807E00AEBCA00F0
:104A900000EB0A1031688900B0FBF1F86420B8FB24
:104AA000F0F004012009642101FB1089A88900F4B9
:104AB000004040B1322000EBC900B0FBF1F000F043
:104AC0000700044308E0322000EB09106421B0FB2A
:104AD000F1F000F00F0004432C8106B0BDE8F08730
:104AE0004FF41651016000218180C18001810C21A9
:104AF000418100218181704710B502460020108A53
:104B00004FF2FF0318400B884C8823438C882343C3
:104B1000CC8823431843108210BD002101804180BE
:104B20008180C180704721B1828942F40052828124
:104B300004E082894DF6FF731A4082817047F0B518
:104B40000346002400260025002040F66A17B942DB
:104B500000D100BF1846C1F3421401F01F0601271F
:104B600007FA06F5012C01D10C3004E0022C01D12A
:104B7000103000E014301AB107682F43076002E0DC
:104B80000768AF430760F0BD1AB1838A0B43838285
:104B900002E0838A8B4383827047028A4FF6F07368
:104BA0001A400282028A0A430282704782894FF2C7
:104BB000FF731A40828182890A438281704721B142
:104BC000828942F00202828104E082894FF6FD73FD
:104BD0001A4082817047028A4FF6DF731A400282C0
:104BE000028A0A430282704721B1028A42F480425B
:104BF000028204E0028A4BF6FF731A400282704779
:104C0000C1F308028280704701468888C0F308001B
:104C10007047818941F0010181817047028BD2B2D6
:104C20000283028B42EA012202837047028B02F464
:104C30007F420283028B0A430283704721B1828A3A
:104C400042F02002828204E0828A4FF6DF731A402B
:104C50008282704721B1828A42F01002828204E08F
:104C6000828A4FF6EF731A408282704721B1828A9E
:104C700042F00802828204E0828A4FF6F7731A40FB
:104C80008282704721B1828942F40042828103E02E
:104C90008289C2F30E028281704721B1828A42F476
:104CA0000062828204E0828A4FF2FF731A4082829D
:104CB0007047828A4FF6FB731A408282828A0A43C7
:104CC0008282704721B1828A42F00202828204E02D
:104CD000828A4FF6FD731A40828270470246002096
:104CE000B1F5007F00D100BF13880B400BB101204C
:104CF00000E00020704701F40072B2F5007F00D19F
:104D000000BFCA430280704770B5024600240023EA
:104D10000025002040F66A16B14200D100BFC1F361
:104D2000421501F01F03012606FA03F3012D02D1FB
:104D30009689334006E0022D02D1168A334001E005
:104D4000968A33400C12012606FA04F41688344081
:104D500013B10CB1012000E0002070BD10B500229D
:104D6000002340F66A14A14200D100BF0A120124B8
:104D70009440A3B2DC43048010BD00000038014021
:104D80000044004000480040004C004000500040FB
:104D900010B501214807FFF7BAFD00214FF0005080
:104DA000FFF7B5FD10BD30B5002200235A4C226834
:104DB00040F6FE748440A243D1E900452C438D683F
:104DC0002C43CD6844EA050303FA00F42243524C15
:104DD000226030BD0021016041608160C160704788
:104DE00039B14D4A1268012383401A434A4B1A6075
:104DF00006E0494A1268012383409A43464B1A60F1
:104E0000704741B1444A12684FF4805383401A43BB
:104E1000414B1A6007E0404A12684FF480538340C8
:104E20009A433D4B1A60704710B551B13A4A121D72
:104E3000126804090123A3401A43374B1B1D1A6053
:104E400009E0354A121D126804090123A3409A4360
:104E5000314B1B1D1A6010BD40B12F49091D096857
:104E600041F003012C4A121D116007E02A49091D77
:104E7000096821F00301284A121D1160704710B51E
:104E80003AB1254B1B6801FA00F42343224C2360FE
:104E900006E0214B1B6801FA00F4A3431E4C23607B
:104EA00010BD08B5002200921B4A009200F10802D2
:104EB000009B1A440092009A116008BD08B50022B8
:104EC0000092154A009200F11402009B1A440092CD
:104ED000009A116008BD30B500240023082802D1D3
:104EE00042EA012401E042EA01440B4B00F12005B3
:104EF0002B441C6030BD08B50146002000900648D8
:104F000000902C2000EB9100009A10440090009833
:104F1000006880B208BD00000074004010B504466F
:104F2000BE48844208D101218014FFF7E3FC002130
:104F3000A014FFF7DFFC16E0B948844208D1012134
:104F40000014FFF7E4FC00212014FFF7E0FC0AE066
:104F5000B448844207D10121C013FFF7D8FC0021D7
:104F6000E013FFF7D4FC10BD10B50022028802F454
:104F700041520B884C8823438C882343CC8823439D
:104F80000C8923434C8923438C892343CC892343B5
:104F90001A430280838B4FF2FF74234083830B8A72
:104FA000038210BD2DE9F04F85B005460C464FF049
:104FB000000902274FF000084FF0010B0026B2460F
:104FC000A88B4FF240010840A88302202884B5F83E
:104FD0001C90A068022801D100BF38E0A08810B959
:104FE0004FF0010B01E04FF0020B8D48854200D1DC
:104FF00000E000BF6846FFF7F6FBDDF800A0E088A0
:10500000B0F5007F0AD14FEA1A2000EB8000400083
:10501000A168B0FBF1F0401D86B20BE04FEA4B10E7
:10502000BAFBF0F000EB80004000A168B0FBF1F0AB
:10503000401D86B20A20B6FBF0F606F00108A6EB8A
:105040000800C0F34F074FF6FF7000EA0828022F50
:1050500001DBFF2F02DD02274FF00008E08840EA65
:10506000080038432884A088A18908436188084340
:105070002188084340F4006040EA0909A5F81C9023
:1050800005B0BDE8F08F0021018041808180C180A2
:10509000018141818181C181072101827047002105
:1050A000018041808180C180022181600021818155
:1050B000704721B1028842F04002028004E0028879
:1050C0004FF6BF731A400280704721B1828B42F4C1
:1050D0008062828304E0828B4FF6FF331A40828322
:1050E000704730B5002400230C110125A540ABB258
:1050F0001AB185881D43858002E085889D4385809F
:1051000030BD1AB183880B43838002E083888B43D0
:1051100083807047818170470146888970474FF6C8
:10512000FF62914204D0028842F48072028004E05F
:1051300002884FF6FF631A400280704721B18288CF
:1051400042F00402828004E082884FF6FB731A402A
:105150008280704702884FF2FF731A4002800288F3
:105160000A4302807047018841F4805101807047F2
:1051700021B1028842F40052028004E002884DF618
:10518000FF731A400280704702460020012901D0B7
:10519000108B00E0908A70470146088A7047B1F58D
:1051A000804F04D1028842F48042028004E00288E9
:1051B0004BF6FF731A4002807047024600201389A5
:1051C0000B400BB1012000E000207047CA43028170
:1051D0007047F0B50246002000240023002501F0AE
:1051E0000F070126BE40B4B20B1101269E40B3B298
:1051F000968806EA03051689264016B10DB10120EE
:1052000000E00020F0BD10B5002201F00F040123E2
:10521000A3409AB2D343038110BD00000030014087
:1052200000380040003C0040704700000FB40449C3
:1052300010B503AA029800F061F910BC5DF814FBE8
:10524000740000202DE9F0410E4604460020206243
:105250002046E168884730B3252805D0D4E90121EC
:105260009047206A401CF2E7E16820460027884703
:10527000050018D0A5F14100192802D820354FF4B7
:1052800000673246294620462760FDF78BFF40B174
:10529000012804D0F61D26F007060836D8E7361D8B
:1052A000D6E72846DAE7206ABDE8F08170B5044603
:1052B0000D4621461068AFF300802188090502D50C
:1052C0000F4A7A4402E00E4A7A440E32002104F179
:1052D000240305E000F00F060009965D5E54491CAA
:1052E0000028F7D120780023000704D5702D02D0C4
:1052F00009B1022311322046BDE8704000F0A4B885
:10530000720C0000032A40F2308010F0030C00F011
:10531000158011F8013BBCF1020F624498BF11F8EF
:1053200001CB00F8013B38BF11F8013BA2F10402A8
:1053300098BF00F801CB38BF00F8013B11F0030320
:1053400000F02580083AC0F0088051F8043B083A84
:1053500051F804CBA0E80810F5E7121D5CBF51F826
:10536000043B40F8043BAFF30080D20724BF11F8A0
:10537000013B11F801CB48BF11F8012B24BF00F805
:10538000013B00F801CB48BF00F8012B704710B576
:10539000203AC0F00B80B1E81850203AA0E818502D
:1053A000B1E81850A0E81850BFF4F5AF5FEA027CEE
:1053B00024BFB1E81850A0E8185044BF18C918C05D
:1053C000BDE810405FEA827C24BF51F8043B40F8FE
:1053D000043B08BF7047D20728BF31F8023B48BFE3
:1053E00011F8012B28BF20F8023B48BF00F8012B21
:1053F00070474FF0000200B5134694469646203998
:1054000022BFA0E80C50A0E80C50B1F12001BFF47D
:10541000F7AF090728BFA0E80C5048BF0CC05DF8E3
:1054200004EB890028BF40F8042B08BF704748BF31
:1054300020F8022B11F0804F18BF00F8012B7047A5
:1054400070477047704770472DE9F0470D46994601
:105450009246044600F124080168880604D5E069F4
:1054600021F01001216000E00120A84201DD471B6E
:1054700000E00027A1697A1902EB0900081AA0616F
:105480002078C00602D42046AFF30080002608E052
:10549000D4E901211AF806009047206A401C761CC6
:1054A00020624E45F4DB2078C0060AD52046AFF3D3
:1054B000008006E0D4E9012130209047206A401C9A
:1054C0002062381EA7F10107F4DC07E0D4E90121CE
:1054D00018F805009047206A401C2062281EA5F19C
:1054E0000105F3DC2046AFF300802078000602D5EA
:1054F0000220BDE8F0870120FBE70000074B70B5F4
:105500000D467B4400F011F80446284600F020F8D0
:1055100010B14FF0FF3070BD204670BD4DEAFFFF67
:1055200001694A1C02610878704700B58FB0CDE967
:1055300001310021059105497944CDE90310114657
:105540006846FFF77FFE0FB000BD0000E5FFFFFFDC
:10555000007B00F080007047754600F029F8AE46E9
:1055600005006946534620F00700854618B020B56F
:10557000FEF70AFEBDE820404FF000064FF000079E
:105580004FF000084FF0000B21F00701AC46ACE8EB
:10559000C009ACE8C009ACE8C009ACE8C0098D4658
:1055A00070470446AFF300802046FDF70DFE000073
:1055B000004870474C01002021F00042A2F16052E7
:1055C000B2F5801F01F0004328BFD2F17F6C0BD9E8
:1055D0005FEA001C43EAC20242EB507018BF7047FA
:1055E00028BF20F001007047B2F5801FBCBF1846ED
:1055F00070474FEA410C1CF5001F02D2084600F02C
:1056000094BC70B500F03CFA00000089FFF7F6BFCB
:105610004FF00040A0F58000704700002DE9C04128
:1056200030B4DFF8A0C23CEA111418BF3CEA1314EE
:1056300000F0EC8081EA03051CEA111444EAD574F9
:1056400018BF1CEA131500F0C780A4EB05044FF047
:10565000004545EAC12145EAC32341EA505143EAE6
:10566000525304F17F74994204F500344FEAC0208C
:105670004FEAC22208BF904200F09C804FEA1365B7
:105680000FF24016765D4FEA134506FB05F7C7F1AA
:10569000807706FB07F74FEAD737A7FB0368764208
:1056A000C8F58038A7FB06CE38BFA8F1010807FB74
:1056B00008E64FF0000EA6FB028CE6FB03CEDCF101
:1056C000000CCEF1004E38BFAEF1010EA6FB0C5817
:1056D0004FF000074FF00005E6FB0E87A1FB08C660
:1056E000A0FB07CE16EB0E0645F10005E1FB0765B2
:1056F00015F1E04E7EBFA4F580345FEA46066D41A9
:1057000016F1800745F100054FEA17274FEA0666B4
:1057100047EA0567A6F1DE46B6F1805F4FEA152538
:105720001FD9384624F0010C05EBC471BCF1FE6FA3
:1057300001EB0C1102D8F0BCBDE8008124425CBF33
:1057400001F5801E9EEAC47F02D4F0BCBDE8008152
:10575000244238D4F0BCA1F1C041BDE8004100F0C2
:10576000DDB94FEAD22242EA43524FEAD323A7FBE4
:1057700002864FEAD02040EA415007FB03661EEA4A
:105780000E0F4FEAD12105FB026658BFA6EB00566B
:10579000B6EB00564FEA520E4EEAC37E18EB0E0EE1
:1057A00056EB530EBDD518EB02085E417F1C55F138
:1057B0000005B6E74FF480154FF000074FF00006E4
:1057C0004FF00008ADE7F0BC4FF0000001F1C04120
:1057D00001F00041BDE8008111EA0C1F0CEA13152D
:1057E00000D00CE013EA0C1F00F025804FF0000001
:1057F000F0BC81EA030101F00041BDE80081F0BC8A
:10580000BDE8004181EA030100F088B9F0BCBDE8C1
:10581000004170B500F034F9097EFC3E00F007B895
:1058200081EA03014FF0000001F00041704781EA76
:10583000030100F073B9F0BCBDE800414FF0000077
:1058400021497047FFFDFBF9F7F5F4F2F0EEEDEBBF
:10585000E9E8E6E4E3E1E0DEDDDBDAD8D7D5D4D36E
:10586000D1D0CFCDCCCBCAC8C7C6C5C4C2C1C0BFBA
:10587000BEBDBCBBBAB9B8B7B6B5B4B3B2B1B0AFC0
:10588000AEADACABAAA9A8A8A7A6A5A4A3A3A2A1A4
:10589000A09F9F9E9D9C9C9B9A999998979796955F
:1058A00095949393929191908F8F8E8E8D8C8C8BFB
:1058B0008B8A898988888787868585848483838283
:1058C000828181800000FF070000F87F4FEA4103DA
:1058D0004FEA5353A3F58063D3F11E03C8BFD3F13E
:1058E000210C0CDD4FF0004242EAC12242EA505244
:1058F00032FA03FC8CEAE17CACEBE1707047102BD0
:10590000C4BF0020704703F5787CBCF1FF3F04D092
:105910006FF0004282EA2100704770B500F0B0F8E5
:105920004992248000207047F2E70000DFF848C168
:1059300070B51CEA111E1EBF1CEA13159EEA0C0F5F
:1059400095EA0C0F00F06F8081EA030423EA4C1300
:105950004EEAD47E21EA4C1141F4801143F48013C5
:10596000AE44A1FB024CA0FB0365AEF17F7E36196D
:1059700055EB0C05A1FB034C4CF10003A0FB021CF2
:1059800016EB0C06654153F10003094218BF46F0BF
:10599000010613F4007F0BD14FEA03314FEA0530C3
:1059A000340341EA155140EA16506FF003020AE051
:1059B0004FEAC3214FEAC520F40241EA555140EABB
:1059C00056506FF0020202EB2E4201EB025585EABF
:1059D000CE710AD05FEA440C18BF24F0004450F1A5
:1059E000000041F1000120EAD47040F2FE7C6245E3
:1059F00000D270BDA84214BF4FF080444FF0404425
:105A0000002E08BF0024BEF1806FA8BFA1F1C041E5
:105A1000BDE8704080F282804FF0000001F1C0418B
:105A200001F0004170479EEA0C0F0CEA131518BFF5
:105A300095EA0C0F06D04FF0000081EA030E0EF03D
:105A4000004170BD00F01CF88900013E00F007B86D
:105A500000F009B84FEA430C5FEA5C5C08D081EAC9
:105A6000030100F05BB84FEA410C5FEA5C5CF6D1E1
:105A70004FF00000014970470000FF070000F87F69
:105A80000EF1020E2EF0030E5EF8046B364205D4C2
:105A9000012A43EB030515F5001F12D8012841EB3D
:105AA000010C1CF5001F0CD80ED14FEAD17C15F566
:105AB000001F0CEB4C0C0CF1020C08BF4CEBD37C20
:105AC00004E04FF0080C01E04FEAD37C0CEB4C05EE
:105AD00026FA05F606F00706B6F1040C06D20EEB20
:105AE000860CBDE870404CF0010C6047DFE80CF01C
:105AF000090B02024FF000414FF00000A1F5002118
:105B000070BD19461046012851EB010418BFD4F5A9
:105B1000001484BF002001F0004170BD0808A0F50A
:105B200000114FEA3101704743004FEAD30C4FEAAE
:105B30003C0C43401FBF40070CF1605113F0FE4F77
:105B400070471CF0006F03D100200CF0004170473B
:105B50000CF0004343EA507010B540EACC0000F06E
:105B60009EF900BF000000924FEA0001FFF7D6BF88
:105B70004FF000414FF00000A1F5002170470000F8
:105B80004FF47F0C1CEAD0121EBF1CEAD11392EA1C
:105B90000C0F93EA0C0F00F0858090EA010F48BFCC
:105BA00042F4807240F4000C41F400002CF07F417C
:105BB00020F07F4000B58142A2EB03020FF2081CE7
:105BC000ACEB504EC0F100009EF800E04FEA4E0EE4
:105BD00000FB0EFC38BF49004FEA2C1C02F5FA020C
:105BE0000CFB0EF34FEACE1E4FEA112C4FEAC121F7
:105BF0000EEB635E42EB22420EFB0CFC4FEA1C53A1
:105C000000FB03114FEA112C4FEA01310EFB0CFC93
:105C10004FEADC4C00FB0C11C14228BF09184CEBC9
:105C200003335DF804EB10EB410143EBC250B2F5D6
:105C30007C0F38BF704729D512F0F00F1CBF00F160
:105C4000C04000F0004070470081828384858687D1
:105C500088898B8C8D8E8F919293959697999A9C2B
:105C60009D9FA0A2A3A5A7A8AAACAEB0B2B3B5B79A
:105C7000B9BCBEC0C2C5C7C9CCCED1D4D7D9DCDF70
:105C8000E2E6E9ECF0F3F7FAFE0000004FEA400C20
:105C90000CF1807CBCF17E4F28BF7047B0F1C04052
:105CA00000F043B990EA010F0CEAD11348BF42F467
:105CB0008072624538BF634507D213F47F0F16D058
:105CC00080EA010000F00040704710B500F0E7F8EE
:105CD000097EFC3E00F005B880EA010000F00040BB
:105CE000704780EA010000F0004000F01EB912F495
:105CF0007F0F04BF0248704780EA010000F015B929
:105D00000000C07FC10DD1F19E0206DB4FEA0023E7
:105D100043F0004323FA02F07047004207D54FEAF0
:105D20004001B1F1FE4F02D24FF00000704710B5B4
:105D300000F0B5F849922480002070476FEA2000F7
:105D40007047000010F0004148BF4042B0FA80F3B5
:105D500010FA03F2C3F19D030BD051EAC35101EBDA
:105D60001220530638BF704700F1010008BF20F031
:105D700001007047B0FA80F310FA03F2C3F19D03FB
:105D80000AD0D90501EB1220530638BF704700F145
:105D9000010008BF20F00100704700004FF47F0CA5
:105DA0001CEAD0121EBF1CEAD11392EA0C0F93EA30
:105DB0000C0F00F0478090EA010F48BF42F4807258
:105DC0004FF0004C4CEA00204CEA012102EB0302A8
:105DD000A0FB0113A2F50002002918BF43F0010344
:105DE0005B0028BF4FEA330342EB22425FEA132CE9
:105DF0004CEBC2502EBFBCEB436FB2F57C0F70472B
:105E00004FEA036CBCF1004F08BF20F00100B2F56F
:105E10007C0F38BF70470BD582F0FF0212F5803F30
:105E2000C8BF704700F1C040D8BF00F000407047C5
:105E300000F5000C5FEA4C0C48BF7047B0F1C04061
:105E400000F073B890EA010F0CEAD11348BF42F496
:105E50008072624538BF634504D280EA010000F0D9
:105E60000040704710B500F01AF800BF8900013EED
:105E700000F007B800F009B85FEA410C5FEA1C6C5B
:105E800008D080EA010000F050B85FEA400C5FEAF9
:105E90001C6CF6D14FF00040A0F5800070470EF169
:105EA000020E2EF0030E5EF8044B244204D44FEA97
:105EB0004102B2F17F4F11D84FEA4003B3F17F4F57
:105EC0000CD80ED14FEAD07CB2F17F4F0CEB4C0CCA
:105ED0000CF1020C08BF4CEBD17C04E04FF0080C35
:105EE00001E04FEAD17C0CEB4C0324FA03F404F0FC
:105EF0000704B4F1040C06D20EEB840CBDE810408C
:105F00004CF0010C6047DFE80CF0070802024FF08C
:105F10000040A0F5800010BD0846420018BFD2F135
:105F2000807288BF00F0004010BDFF2141EAD050D0
:105F3000C0057047AA00000030313233343536379F
:105F400038394142434445464030580030313233BD
:105F500034353637383961626364656640307800BD
:105F6000805F000800000020900000006C310008F5
:105F70001060000890000020200700008831000811
:105F80000100000000000000000000000000000010
:105F90000000000000000000000000000000000001
:105FA000AB1E0000000000000000000000A24A0438
:105FB00000000000000000000102030406070809B9
:105FC00090019204A006A106B006B106C006C10663
:105FD000D006D110E004F004FF0000000000000033
:105FE0000000000000000000005AA50000000000B2
:105FF00000000000000000000000000000000000A1
:10600000010203040102030406070809020406084A
:04000005080031318D
:00000001FF
