:020000040800F2
:1020000008040020652100083D2400084124000840
:1020100045240008492400084D2400080000000061
:10202000000000000000000000000000552400082F
:102030005124000800000000592400085D24000815
:102040006124000865240008692400086D24000844
:102050007124000875240008792400087D240008F4
:102060008124000885240008892400088D240008A4
:102070009124000895240008992400089D24000854
:10208000A1240008A5240008A9240008AD24000804
:10209000B1240008B5240008B9240008BD240008B4
:1020A000C1240008C5240008C9240008CD24000864
:1020B000D1240008D5240008D9240008DD24000814
:1020C000E1240008E5240008E9240008ED240008C4
:1020D000F1240008F5240008F9240008FD24000874
:1020E0000125000805250008092500080D25000820
:1020F0001125000815250008192500081D250008D0
:102100002125000825250008292500082D2500087F
:102110003125000835250008392500083D2500082F
:102120004125000845250008492500084D250008DF
:102130000120704710B5094C02E000F03BFB0C3465
:102140000748844208D26068A16822688142F4D1BD
:10215000002100F03BFBF2E710BD00BFEC270008B8
:10216000F8270008024CA04730B1024CA04703E01A
:102170003121000835210008034C4FF00000A04732
:10218000024C034DAE46204711220008B12700083B
:10219000E127000830BF704720BF704740BF70473D
:1021A000BFF36F8F7047BFF34F8F7047BFF35F8FE1
:1021B000704701DF7047EFF31480704780F3148895
:1021C000BFF36F8F7047EFF30980704780F3098882
:1021D0007047EFF30880704780F30888704762B655
:1021E000704772B67047EFF31080704761B6704762
:1021F00071B67047EFF31380704780F31188704712
:10220000EFF31280704740BA704700BA7047000081
:1022100000B500F017F800F061F800F04BF800F09E
:1022200097F900F063F800F061F801212A4800F006
:10223000FDF800F05BF800F059F80121264800F0A5
:10224000F9F8EEE710B500F091F95FF4803000F096
:10225000B7F900F0DDF90400012C25D1102000F0C1
:102260005BF8022000F04CF8002000F025FA5FF443
:10227000806000F03BFA5FF4806000F029FA5FF4C0
:10228000E0115FF4803000F0EDF9012000F0FAF980
:10229000392000F04BFA0028FAD0022000F0FAF9B9
:1022A00000F004FA0828FBD10121082000F02EFAE2
:1022B00010BD000000B581B00120ADF80000032082
:1022C0008DF8020010208DF803006946024800F0E6
:1022D00031F801B000BD0000000C014000B5002144
:1022E0005FF0005000F038F900BD00000021080048
:1022F0000249884201DA401CFAE77047FFFF0F00ED
:102300000B490B4A126812F038020A600849084A61
:10231000126802430A6070470549054A1268102393
:102320009A430A600249024A126802430A607047EF
:1023300000200240F0B482B000263500002600964E
:1023400000263200002633000026340000260196C5
:10235000CE783607360F3500CE78F60602D52E0039
:102360008D7835430E88360629D00668340000265D
:102370003200082A22D20126964033000E881E40E1
:102380000096009E9E4217D1960033000F269E4075
:102390000196019EB44326002C009C403443CE7825
:1023A000282E03D101269640466105E0CE78482EBE
:1023B00002D1012696400661521CDAE704600E88BD
:1023C0005FF48077BE422ED3466834000026320088
:1023D000082A27D2012617000837BE4033000E888E
:1023E0001E400096009E9E421AD1960033000F2692
:1023F0009E400196019EB44326002C009C4034432D
:10240000CE78282E04D1012617000837BE40466139
:10241000CE78482E04D1012617000837BE40066149
:10242000521CD5E7446002B0F0BC70470904090CA7
:10243000016170470904090C416170477047000051
:10244000FEE70000FEE70000FEE70000FEE70000F8
:1024500070470000704700007047000070470000A0
:102460007047000070470000704700007047000090
:102470007047000070470000704700007047000080
:102480007047000070470000704700007047000070
:102490007047000070470000704700007047000060
:1024A0007047000070470000704700007047000050
:1024B0007047000070470000704700007047000040
:1024C0007047000070470000704700007047000030
:1024D0007047000070470000704700007047000020
:1024E0007047000070470000704700007047000010
:1024F0007047000070470000704700007047000000
:1025000070470000704700007047000070470000EF
:1025100070470000704700007047000070470000DF
:1025200070470000704700007047000070470000CF
:1025300070470000704700007047000070470000BF
:1025400070470000704700007047000070470000AF
:1025500000B5FFF744FE00BD034A024B0B400343A6
:102560001360704780FFFF1F08ED00E03C483C49C6
:10257000096851F0010101606348634909680D4A27
:102580000A4002603648364909680B4A0A40026030
:102590003348334909687FF480220A4002605A4870
:1025A000594909687FF4FE020A400260034800218D
:1025B000016070470000FFF8FFFFF6FE08100240C0
:1025C00000B52749264A12687FF4803313400B6018
:1025D0002349234A12687FF4802313400B600100D3
:1025E0005FF48032914204D05FF48022914207D0A0
:1025F0000CE01B491A4A126852F480320A6005E066
:102600001749174A126852F4A0220A6000BD000060
:1026100010B500200400312000F088F80D49087042
:102620000D480D490968491C01600A4800780028D6
:1026300004D10948006809498842ECD1312000F0F2
:1026400075F8002802D00120040001E000200400F9
:10265000200010BD0400002000000020FF01000049
:102660000010024000231A00274B1B681A001300B9
:102670007FF47C121A4013000A0002431A43224BD3
:102680001A60704702490006000E0860704700BFDC
:1026900060004242002211001B4A1268110003220E
:1026A00091430143184A11607047000016480068C2
:1026B00010F00C007047000000221100124A12684E
:1026C0001100F022914301430F4A1160704700004E
:1026D000002211000C4A126811000A007FF4E06128
:1026E00011400143084A11607047000000221100A8
:1026F000054A126811000A007FF46051114051EA46
:10270000C001014A1160704704100240002905D041
:10271000054A054B1B680343136004E0024A024B61
:102720001B688343136070471810024010B4010007
:102730000024220000242300002420000C00240692
:10274000240E64092406240E2200012A03D10F4C12
:102750002468230008E0022A03D10D4C24682300DA
:1027600002E00C4C246823000906090ECC06E40E96
:102770002200012494401C40002C02D0012420009F
:1027800001E00024200010BC70470000001002404F
:1027900020100240241002407047000010B581B0A4
:1027A0000400009469460120FFF7F6FFF9E70000F6
:1027B00000F016B810B50300002A04E011F8014B30
:1027C000521E03F8014BF9D110BD0000C9B203003D
:1027D000002A02E003F8011B521EFBD170470000E3
:1027E000014CA646204700009D2700080500000078
:0827F0000000002000000020A1
:040000050800216569
:00000001FF
