:020000040000FA
:10040000FFFFFFFFFFFFFFFFFFFFFFFFFEFFFFFFFD
:020000040800F2
:100000007815002071060008F10D00083908000875
:100010007D0600087F060008810600080000000039
:10002000000000000000000000000000830600083F
:100030008506000800000000870600088906000801
:100040008B0600088B0600088B0600088B0600084C
:100050008B0600088B0600088B0600088B0600083C
:100060008B0600088B0600088B0600088B0600082C
:100070008B0600088B0600088B0600088B0600081C
:100080008B0600088B0600088B0600088B0600080C
:100090008B0600088B0600088B0600088B060008FC
:1000A0008B0600088B0600088B0600088B060008EC
:1000B0008B0600088B0600088B0600088B060008DC
:1000C0008B0600088B0600088B0600088B060008CC
:1000D0008B0600088B0600088B0600088B060008BC
:1000E0008B0600088B0600088B0600088B060008AC
:1000F0008B0600088B0600088B0600088B0600089C
:100100008B0600088B0600088B0600088B0600088B
:100110008B060008B10600088B0600088B06000855
:100120008B0600088B0600088B0600088B0600086B
:100130008B0600088B0600088B0600088B0600085B
:100140008B0600088B0600088B0600088B0600084B
:100150008B0600088B0600088B0600088B0600083B
:1004000000F002F800F047F80AA090E8000C8244DF
:100410008344AAF10107DA4501D100F03CF8AFF2BC
:10042000090EBAE80F0013F0010F18BFFB1A43F0D2
:10043000010318476424000084240000103A24BFFC
:1004400078C878C1FAD8520724BF30C830C144BF39
:1004500004680C607047000000230024002500267B
:10046000103A28BF78C1FBD8520728BF30C148BF17
:100470000B607047662902F06A81002070471FB543
:1004800001F096FA04000020002101F0F3FFE06083
:100490001FBD10B510BD01F0A3FB1146FFF7EFFF24
:1004A00000F025F901F0C1FB03B4FFF7F2FF03BC34
:1004B00001F002FC4CF220506649C8814DF628102C
:1004C000C8814FF4E97008804FF0FF3062494864FA
:1004D000062062490870002048700846C07840F045
:1004E000E000C8705E485C49486400205B490871C0
:1004F000487100BF5948807900F010000028F9D0F9
:1005000000BF5648807900F00C000028F9D17047F0
:10051000524A127802F0C002002A67D14F4A52793B
:1005200002F04002002A51D14C4A127802F0040233
:10053000C2B94A4A127B02F001020AB9494801E0F5
:100540004FF40040454A1278C2F3C20301229A4098
:10055000D1B2B0FBF1F0414A527802F030021AB148
:10056000400901E04FF400403C4AD27802F0E0023A
:1005700002F01F0343BB5211082A25D2DFE802F024
:1005800004080C1014181C2000EB8002D0011CE0A1
:1005900000EB8002100218E0C0EB0012D00114E062
:1005A00000EB8002500210E04FF4377250430CE031
:1005B0004FF4B762504308E040F69502504304E020
:1005C00040F67132504300E000BF38E0234A127910
:1005D00002F01F02511C234AB2FBF1F01F4A52796C
:1005E00002F01F0202F11801484328E01B4A12786A
:1005F00002F0C002402A11D1184A527802F00102DA
:1006000012B94FF400401AE0144A127AC2F34203BE
:1006100001229A40144BB3FBF2F010E00F4A12781B
:1006200002F0C002802A09D10C4A127B02F00102BA
:100630000AB90C4803E04FF4004000E07047064A56
:10064000526C012303EB1272B0FBF2F2074B1A60FB
:1006500000BFF3E700200540008004400040064052
:100660000000130180F0FA0200093D0000000020A4
:100670000948804709480047FEE7FEE7FEE7FEE736
:10068000FEE7FEE7FEE7FEE7FEE7FEE70448054972
:10069000054A064B70470000B50400080104000835
:1006A00078010020781500207805002078050020CA
:1006B00070B5644C207900F0200018B1E579284627
:1006C00000F07EFD207900F0080020B1E579207966
:1006D00040F00800207170BD10B504468822214604
:1006E000594800F0EAFE01205849087010BDA6B034
:1006F00000F0F5F90A2000F012FA4FF4E13148F663
:10070000D84000F0E6FB52A000F0EAFD4FF4E131E2
:100710004BF2E40000F0DDFBAFF2430104A800F06F
:100720004AFD01221146042000F05FFC83E04748A7
:10073000007801287FD144480079902803D14248AD
:1007400040794849087040488079A02806D1464938
:100750003D48C01D02680A60808888803A48407B16
:10076000B02806D141493848D0F80E200A60408AA6
:1007700088803548007DC02806D13D493248153073
:1007800002680A60808888802F48C07ED0282BD1DC
:100790002D490A7F497F02EB012108B201F074FF65
:1007A0000446344901F0AEFE3349086026498A7F89
:1007B000C97F02EB012108B201F066FF04462D4912
:1007C00001F0A0FE2C4948601F4991F8202091F8C3
:1007D000211002EB012108B201F056FF044627491F
:1007E00001F090FE24498860174890F82200F02814
:1007F00004D123491448D0F8230008601E498868B2
:1008000001F054FE04460D461B49486801F04EFEB7
:1008100006460F461849086801F048FE80464246E1
:100820000B4618A0CDE90067CDE9024500F058FD60
:100830000020064908707AE71AA000F051FD00BFB9
:10084000FEE7000000A00E4084000020040000200D
:10085000494D5520726563656976652064656D6FE5
:100860000D0A000005000020060000200C000020FA
:10087000120000200000C8420C01002000002041AE
:1008800018000020416E676C653A2020202025303A
:100890002E32662025302E32662025302E32660D0F
:1008A0000A000000486172644661756C745F4861BB
:1008B0006E646C65720D0A000146F84A10680020EB
:1008C000022908D1F64A526C012303EB1272F34B52
:1008D0001B6802FB03F0F14A1068012907D1F04AB6
:1008E000526CC2F30362521CB0FBF2F000E000BF96
:1008F00000BF704730B500EB4003EA4C54F823309A
:100900001B6800EB4004E74D05EB84046468234357
:1009100000EB400455F824402360E34B53F82030AB
:1009200053F8213023F4E063DF4C54F8204044F8BE
:100930002130DD4B53F8203053F821304FF4E06480
:1009400004EA02242343D84C54F8204044F82130D0
:1009500030BD30B500EB4003D24C54F823301B6857
:1009600000EB4004CF4D05EB84046468234300EBA7
:10097000400455F82440236062B1CB4B53F820303B
:1009800053F8213043F02003C74C54F8204044F87A
:1009900021300BE0C44B53F8203053F8213023F0C2
:1009A0002003C14C54F8204044F8213030BD10B52C
:1009B00062B1BD4B53F8203053F8213043F010039F
:1009C000B94C54F8204044F821300BE0B64B53F8B2
:1009D000203053F8213023F01003B34C54F820405A
:1009E00044F8213010BD10B562B1AF4B53F8203040
:1009F00053F8213043F04003AB4C54F8204044F806
:100A000021300BE0A84B53F8203053F8213023F06D
:100A10004003A54C54F8204044F8213010BD30B5B7
:100A200000EB40039F4C54F823301B6800EB40045C
:100A30009C4D05EB84046468234300EB400455F8A7
:100A40002440236012B1012A32D118E0964B53F8AA
:100A5000203053F8213043F00203934C54F82040E7
:100A600044F82130904B53F8203053F8213023F0D4
:100A700001038D4C54F8204044F8213025E08A4B86
:100A800053F8203053F8213043F00203864C54F8D9
:100A9000204044F82130844B53F8203053F8213063
:100AA00043F00103804C54F8204044F821300CE01E
:100AB0007D4B53F8203053F8213023F002037A4C59
:100AC00054F8204044F8213000BF00BF30BD01463B
:100AD0000868704703B5684602680A600CBD00B537
:100AE0004FF0E020006940F004004FF0E021086181
:100AF0006FF07F4048610020FFF7DEFE6B49086021
:100B0000084600686A49B0FBF1F068490860084689
:100B100000684FF47A7148436649086000BD08B523
:100B2000644A12684FF0E0235A611A46126942F093
:100B300005021A6100229A6100210EE000BF4FF009
:100B4000E02212690092009A02F0010222B1009A9A
:100B500002F48032002AF2D0491C8142EED308BD53
:100B6000524909684143B1F1807F05D36FF07F415D
:100B70004FF0E022516105E04C49096841434FF0D4
:100B8000E022516100214FF0E02291611146096994
:100B900041F0050111617047012808D14FF0E021B3
:100BA000096941F002014FF0E022116107E04FF0C6
:100BB000E021096921F002014FF0E0221161704744
:100BC0003D4A51601060704770B504460D463A4882
:100BD000006818B1E0B2384A11688847204670BDF5
:100BE00010B504463448406820B13349486880470E
:100BF000C0B210BD0020FCE700BFBFF34F8F2F48ED
:100C0000006800F4E0602E490843001D2B4908608D
:100C1000BFF34F8F00BF00BFFEE72A480078704740
:100C200070B504460D460120FFF779FFFF202649E5
:100C3000087000204870202C04D0222C07D0242CCF
:100C40001DD10BE0204840781F49487018E01E482D
:100C5000407840F002001C49487011E01A48407882
:100C600040F00300184948700846807820F00700DB
:100C700088700846807840F00300887000E000BF6C
:100C800000BF04F0200040B10C48001D006840F097
:100C900004000A49091D08601EE017E0000000205A
:100CA0000080044054270008902700081C00002002
:100CB00040420F0020000020240000200CED00E046
:100CC0000000FA0500F0074000E007404A480068CD
:100CD00020F004004849086035B14748006840F0FA
:100CE00002004549086005E04348006820F0020022
:100CF0004149086004F0300000B130BF70BD3F488A
:100D0000006E3E49C96D48403C49896D4840704776
:100D100010B50022002320F00F00CC1CA408A10075
:100D200006E0002302E0001D521C5B1C042BFADBD2
:100D30008A42F6D310BD30B502460B461446002158
:100D400002E004F8011B491C9942FAD31446002121
:100D500007E02078CDB2A84201D0012030BD641C4C
:100D6000491C9942F5D31446002102E024F8021BE5
:100D7000491CB1EB530FF9D31446002107E020883A
:100D80008DB2A84201D00120E8E7A41C491CB1EBB8
:100D9000530FF4D31446002101E002C4491CB1EB07
:100DA000930FFAD31446002106E02068884201D050
:100DB0000120D3E7241D491CB1EB930FF5D3144652
:100DC000002102E0246001CC491CB1EB930FF9D360
:100DD0001446002106E02068A04201D00120BDE7B2
:100DE000241D491CB1EB930FF5D30020B6E77047E3
:100DF00010B5FFF7FCFF10BD10ED00E000800440CF
:100E000010B502460B46B34850F82210087900F09E
:100E1000200018B1C8791870002010BD087900F0C2
:100E2000080028B1081D047844F00804047000BFCD
:100E30000120F2E7A74B53F8202000BF137903F0FD
:100E40008003002BFAD0D171704770B504460E466E
:100E50000CB1012C04D10020FFF72EFD054603E064
:100E60000120FFF729FD0546284670BD2DE9F04712
:100E700007460D46974850F8274000213846FFF7AF
:100E8000E4FF8046E07820F00C00E0702801B8FB19
:100E9000F0F6207820F01F0020702078C6F304219F
:100EA0000843207066704FEA4800B0FBF5F020213F
:100EB00001FB1609A07A20F01F00A072A07A09F0A9
:100EC0001F010843A072E07840F00C00E070BDE81C
:100ED000F0872DE9F3410F466C46207800F00705B6
:100EE00005EB45007C4951F82000006805EB450101
:100EF000794A02EB81014968084305EB450152F844
:100F000021100860217801F007003946FFF7AEFF95
:100F100000BF00260BE02388C3F38212C3F34423EF
:100F200099192378C3F3C200FFF7E4FC761C20680C
:100F3000C0F38430B042EEDC00BF6848007840B1B6
:100F400067490D7067496848FFF73AFE002063491A
:100F50000870207800F00700BDE8FC8101B56A4602
:100F6000107800F007005B4B53F820100020087049
:100F700048708870C8708871887208BD10B50346C3
:100F80000C46544850F8231014B1012C2AD114E017
:100F900022B1C87840F08000C87003E0C87820F023
:100FA0008000C87022B1C87A40F08000C87203E0A7
:100FB000C87A20F08000C87214E022B1C87840F0EE
:100FC0002000C87003E0C87820F02000C87022B16B
:100FD000C87A40F02000C87203E0C87A20F02000F0
:100FE000C87200BF00BF002010BD70B503460C469C
:100FF00003EB4300384D55F82000006803EB430530
:10100000354E06EB85056D68284303EB430556F81E
:10101000255028602F4850F82310344DE85600F032
:101020001F060125B5404609B60006F1E026C6F8C0
:10103000005100BF24B1012C0DD0022C21D115E0AC
:1010400022B1C87840F08000C87003E0C87820F072
:101050008000C87016E022B1C87840F02000C87047
:1010600003E0C87820F02000C8700BE022B1C878F7
:1010700040F01000C87003E0C87820F01000C8707D
:1010800000E000BF00BF002070BD0246114B53F8C6
:10109000220021B1037C43F08003037403E0037C4E
:1010A00023F080030374704708B500BF69460C48FD
:1010B0000078FFF7A5FE0028F8D19DF8000008BDD4
:1010C00010B50446214606480078FFF7B3FE2046D7
:1010D00010BD00003C000020A42700082C000020C8
:1010E00038000020A9100008C1100008EC270008F3
:1010F000F0B503460C461888002113E0675C80EACF
:10110000072000250BE0460000F4004CBCF1000F66
:1011100003D041F2210C86EA0C0630466D1C082DE6
:10112000F1D3491C9142E9D31880F0BD10B50446B3
:10113000062020608021201D00F0F1F95A20207146
:10114000A5216171002010BD70B504460E461546FC
:10115000211D226850182A46314600F069F920689E
:1011600028442060002070BD38B504462088801FC8
:10117000A4F884002088A4F8860094F88410A17153
:10118000B4F88400010AE171002000900422211DBE
:101190006846FFF7ADFFB4F8842004F10A01684601
:1011A000FFF7A6FFBDF800002072BDF80000010A9D
:1011B0006172002038BD444A1160444A1060704793
:1011C00010B5044642480078072879D2DFE800F0DD
:1011D000040A101A2A3040005A2C02D101203C493E
:1011E00008706EE0A52C02D102203949087068E031
:1011F00036480068A0F8844036488470032034499B
:1012000008705EE031480068B0F8840040EA0420CD
:101210002E490968A1F884002E48C47004202C4986
:1012200008704EE02C48048005202949087048E0E9
:101230002948008840EA04202749088000202349E3
:10124000096808602549088006202149087038E0AF
:101250001E48006801681D4800680068401C1B4A61
:101260001268106019480068001D4454174800684F
:10127000006816490968B1F8841088421ED3042218
:1012800014491648FFF734FF1048006802680F48F9
:101290000168091D1148FFF72BFF104800880E490F
:1012A0000988884207D10848006820B107480068CB
:1012B00005490968884700200549087001E0FFE7F3
:1012C00000BF00BF002010BD70000020740000208F
:1012D0007C0000207D000020780000207A000020A3
:1012E0000FB4044910B503AA029800F04FFB10BCDC
:1012F0005DF814FB300000202DE9F05F89460446BC
:101300004FF0000ADFF824B1FB44C0F820A02046CB
:10131000E168884700287DD0252806D0D4E901213E
:101320009047206A401C2062F1E700255F46204676
:10133000E16888472028064607DB312E05D2B81918
:1013400010F8200C08B10543F1E7A80701D525F0F6
:101350000405C4F81CA00027C4F818A02A2E09D040
:10136000304601F07FF838B304EB8708303EC8F808
:10137000186019E059F8041B204604EB87029161BC
:10138000E1688847012F064618D1E069002820DA75
:1013900025F020051DE0D8F8180000EB800006EBD2
:1013A00040003038C8F818002046E16888470646F3
:1013B00001F058F80028EED1012F0AD02E2E08D1C6
:1013C0002046E16888477F1C0646022F45F020052D
:1013D000C4DBA069002803DA404245F00105A061A2
:1013E000E80701D025F01005A6B1A6F141001928A3
:1013F00002D8203645F400654A463146204625602D
:101400004D46FFF737F860B1012807D0ED1D25F0F4
:10141000070000E007E000F1080978E705F104099A
:1014200075E730467AE7206ABDE8F09FE6140000D1
:10143000032A40F2308010F0030C00F0158011F800
:10144000013BBCF1020F624498BF11F801CB00F8D8
:10145000013B38BF11F8013BA2F1040298BF00F82C
:1014600001CB38BF00F8013B11F0030300F02580E9
:10147000083AC0F0088051F8043B083A51F804CB10
:10148000A0E80810F5E7121D5CBF51F8043B40F8D6
:10149000043BAFF30080D20724BF11F8013B11F8E1
:1014A00001CB48BF11F8012B24BF00F8013B00F825
:1014B00001CB48BF00F8012B704710B5203AC0F0AF
:1014C0000B80B1E81850203AA0E81850B1E8185045
:1014D000A0E81850BFF4F5AF5FEA027C24BFB1E882
:1014E0001850A0E8185044BF18C918C0BDE81040F3
:1014F0005FEA827C24BF51F8043B40F8043B08BFFC
:101500007047D20728BF31F8023B48BF11F8012BC2
:1015100028BF20F8023B48BF00F8012B70474FF06E
:10152000000200B5134694469646203922BFA0E833
:101530000C50A0E80C50B1F12001BFF4F7AF09073F
:1015400028BFA0E80C5048BF0CC05DF804EB890030
:1015500028BF40F8042B08BF704748BF20F8022B73
:1015600011F0804F18BF00F8012B7047704770478B
:10157000704770472DE9FF4F0C461E464FF0FF376E
:101580008BB0D2E90001DDF860800A908A46C1F391
:101590000A5505B93D46002108464FF00000BAF152
:1015A000000F00F4400005DA00EB80004FF440012A
:1015B00001EA50004FEA9059B9F1010F00DDB94638
:1015C0000A9850EA4A000ED044F61050A5F2FF35B2
:1015D00045432F14B8F1000F1ED07542291E1EDDA1
:1015E000C9F100021CE0B8F1010F4FF0000001D07A
:1015F000302103E0F24305E02154401CB042FBDB04
:1016000030460022002121540B99C1F80880C1E91D
:1016100000200FB0BDE8F08FBD1B6D1CDEE74A4611
:1016200000DA694206A800F065FA06AB93E8070005
:1016300003AB83E8070050460A9900F044FB8DE8AD
:101640000700A0F500501F3800900398002D09DD19
:1016500042F21F014A46084403A90390684600F07D
:10166000A3FD08E0A0F500504A461F3803A90390E7
:10167000684600F0ADFD8DE807000004000C03D0C3
:101680004FF0FF30410800E01046B8F1000F03D0E2
:101690000022009215461EE0751E05D400F08CF95C
:1016A000303262556D1EF9D5B3460122084302D08F
:1016B00000227F1C04E02078302801D100227F1E08
:1016C000002A099786D01DE0112D07DA00F074F981
:1016D000303262556D1C50EA0102F5D1084302D048
:1016E0000098C8B10EE00021681E05E0235C625C32
:1016F00063542254401E491C8142F7DBAB46A81BB1
:10170000401E0990002004F80B000B98099AC0F8BD
:101710000880C0E9002B7CE711264FF0000859E74C
:101720002DE9F04F88460446D21D22F0070191B002
:10173000D1E90001CDE90A0100F080FE02460B98D4
:10174000C00F01D02D2007E02068810701D52B2094
:1017500002E0202101EAC000032A099001D0072AF3
:1017600005DB03464146204600F084F90BE1207872
:10177000800601D5E06900E00620B8F1650F8146DA
:1017800006D0B8F1660F18D0B8F1670F70D131E00C
:101790000020B9F1110F009001DB112301E009F1E4
:1017A00001030AAA01A90CA8FFF7E4FEDDE90C7009
:1017B000002609F10105834647E001204B460090D1
:1017C0004FF000470AAA01A90CA8FFF7D3FEDDE9F4
:1017D0000DB00C995D46002610B909F101000D18F5
:1017E000B9EB050003D4C0F1FF3609F10105A5EB03
:1017F00009002BE0B9F1010F01DA4FF001090020D7
:10180000B9F1110F0090484601DD112300E00346B5
:101810000AAA01A90CA8FFF7ADFEDDE90C704D4640
:1018200000268346207800070AD4AB4500DA5D46DF
:1018300001A8012D04DD411911F8011C302907D040
:101840004F4502DA17F1040F04DA012082460FE057
:101850006D1EEEE7002F02DCED1B3E4403E0781C1A
:10186000A84200DD7D1CB81B00F1010A4FF00047C3
:101870002078000703D4AA4501DB4FF0FF3A00218E
:10188000B7F1004F0DF143088DF8431024D002202A
:101890002B23002F01DA7F422D230A21021EA0F103
:1018A000010000DC5FB197FBF1FC97FBF1F201FB5B
:1018B0001C7C17460CF1300C08F801CDEEE7A8F1BE
:1018C000010003702188090501D5452100E065214B
:1018D000A0F1010800F8011C09980FA9A1EB080765
:1018E000FF1D00B10120411901EBEA70A1693844E4
:1018F000081A401EA0612078C00602D42046AFF32B
:101900000080099828B1D4E901219047206A401C41
:1019100020622078C00622D52046AFF300801EE06A
:10192000002E04DBB34502DD01A8805D00E030201D
:10193000D4E901219047206A401C2062761CAAF15C
:1019400001005FEA000A0AD100F032F8C0680168BD
:10195000405CD4E901219047206A401C2062281E87
:10196000A5F10105DCDC07E0D4E9012118F8010B41
:101970009047206A401C2062381EA7F10107F3DC63
:101980002046AFF30080032011B043E6074B70B54B
:101990000D467B4400F05BF80446284600F018F939
:1019A00010B14FF0FF3070BD204670BD33F2FFFF25
:1019B000004870473801002030B5B0F10A024FEA04
:1019C000900E71F100034EEA817EB0EB0E0061EBE8
:1019D00091014FEA101E4EEA017E10EB0E0041EB22
:1019E00011114FEA102E4EEA016E10EB0E0041EB82
:1019F00011214FEA104E4EEA014E10EB0E0041EB62
:101A00001141401841F100014FEAD00040EA417015
:101A10004FEAD10110EB80054FEA810444EA90744B
:101A200044EB01046D1944EB0404521BA3414FF035
:101A3000000348BF0A3200D530BD401C41F100010F
:101A400030BD000001694A1C02610878704700B58A
:101A50008FB0CDE901310021059105497944CDE9E7
:101A6000031011466846FFF747FC0FB000BD0000A9
:101A7000E5FFFFFF2DE9F0411F46044603260168FC
:101A8000072A01F4006004DB08B116A505E016A5DD
:101A900003E008B115A500E015A521F010002060B5
:101AA000A069C01EA0610FB1401EA0612046AFF327
:101AB00000804FB1D4E9012138469047206A401C8C
:101AC0002062C01C206206E0206AFAE7D4E9012106
:101AD00015F8010B9047761EF8D22046AFF3008030
:101AE000BDE8F0814E414E006E616E00494E4600E9
:101AF000696E66002DE9F047814616468AB0334884
:101B000078440DC88DE80D0030487844801C03AC43
:101B10000DC884E80D0041F69B300844372190FB46
:101B2000F1F290FBF1F5A5F1800501FB12041B3CDD
:101B300002D56442012000E00020DFF890A080463A
:101B40000027FA44AAF1BE0A0DE0E00709D03246A8
:101B5000684607EB47010AEB810100F039FB8DE88D
:101B6000070064107F1C002CEFD1184F7F44AC3F5E
:101B700018E0E80714D007EB04100DF1180A90E8FC
:101B80000E008AE80E00C068F04201D19819089052
:101B9000324606A903A800F01BFB03AB83E807004D
:101BA0006D10641C002DE4D132466946B8F1000F77
:101BB00003A802D000F0F8FA01E000F009FBC9E93F
:101BC0000001C9F808200AB0BDE8F0877C0D0000CC
:101BD000007B00F08000704700487047180100202B
:101BE0007546FFF7F9FFAE4605006946534620F0FB
:101BF0000700854618B020B5FEF748FDBDE8204037
:101C00004FF000064FF000074FF000084FF0000BB8
:101C100021F00701AC46ACE8C009ACE8C009ACE86B
:101C2000C009ACE8C0098D4670470446AFF3008098
:101C30002046FEF739FC00004FF0013C50F8042B21
:101C400051F8043B9A4221D1A2EB0C03934313EACF
:101C5000CC1317D150F8042B51F8043B9A4215D1FC
:101C6000A2EB0C03934313EACC130BD150F8042BD3
:101C700051F8043B9A4209D1A2EB0C03934313EAB7
:101C8000CC13DBD04FF00000704700BFD01A01BA70
:101C9000B1FA81F101F0180122FA01F0CB40C1F153
:101CA0002001DBB2C0B2C01A2CFA01F3D11A914361
:101CB00011EAC311E6D1704701491820ABBEFEE717
:101CC0002600020070475FEA400C08BF91F0000F49
:101CD0004FEA8C234FEAC12243EA51514FEA1C508C
:101CE00018BF00F5F0404FEA300018BF41F0004146
:101CF0005FEA6C5C00F02980BCF1FF3F08BF40F058
:101D000080407047130C06BF12044FF0100C4FF0C8
:101D1000000C130E04BF12020CF1080C130F04BFC9
:101D200012010CF1040C930F04BF92000CF1020C91
:101D3000D30F04BF52000CF1010C11464FF000020A
:101D4000A0F11F00A0EB0C00704711F0004F08BF7E
:101D5000704731F000413FF4D5AF0B0C06BF0904CA
:101D60004FF0100C4FF0000C0B0E04BF09020CF1E9
:101D7000080C0B0F04BF09010CF1040C8B0F04BFFE
:101D800089000CF1020CCB0F04BF49000CF1010CCF
:101D9000CCF12003A0EB0C0022FA03F302FA0CF2C0
:101DA00041EA030100F10100704720F07F4C80EA16
:101DB000030023F07F47ACEB070303F57C5300F0EF
:101DC000004003F1FF032DE980494FEA154B09B4A8
:101DD0004FEA144325EA0B4E24EA03480FF2042687
:101DE00006EB132749083E785FEA320203FB0667D9
:101DF000C7F5000707FB06F64FEA54374FEAD64609
:101E000006F1020607FB066CCCF1005C4FEA1C47AA
:101E10002CEA074C07FB06F40CFB06F504EB154611
:101E20004FEA961634BF00204FF000404FEAD137FA
:101E300006FB07FC4FEA1C4C0CFB0BF7D21B03FB09
:101E40000CF761EB07010CFB0EF7B0EB074072EBF0
:101E500017420CFB08F734BFA2EB0742B2EB074274
:101E600061EB17414FEA0C444FEA910706FB07FC70
:101E70004FEA1C4C0CFB0BF7B0EBC74072EB573230
:101E800003FB0CF734BFA2EBC742B2EBC74261EBD6
:101E900057310CFB0EF7B0EBC70072EB57720CFB1F
:101EA00008F734BFA2EBC702B2EBC70261EB577170
:101EB000039F4FEA816141EA921104EBCC044FEA9F
:101EC000D1374FEA826206FB07FC42EA90124FEAE2
:101ED00080604FEA1C4C0CFB0BF7D21B03FB0CF78A
:101EE00061EB07010CFB0EF7B0EB074072EB1742FA
:101EF0000CFB08F734BFA2EB0742B2EB074261EBE1
:101F000017414FEA8C554FEA910704EB9C2406FBDE
:101F100007FC4FEA1C4C0CFB0BF7B0EBC74072EB15
:101F2000573203FB0CF734BFA2EBC742B2EBC742F8
:101F300061EB57310CFB0EF7B0EBC70072EB577239
:101F40000CFB08F734BFA2EBC702B2EBC70261EB90
:101F5000577115EB4C254FEA816141EA92114FEA26
:101F600082624FEAD13742EA901206FB07FC44F145
:101F700000044FEA80604FEA1C4C0CFB0BF7D21BAD
:101F800003FB0CF761EB07010CFB0EF7B0EB07400E
:101F900072EB17420CFB08F734BFA2EB0742B2EB1F
:101FA000074261EB174115EB1C154FEA813141EAFD
:101FB00092414FEA823242EA90424FEA80304FEA41
:101FC0000C7644F1000448EA03434EEA0B484FF014
:101FD000000EB2EB080C71EB030724BF62463946D2
:101FE0004EEB0E0E4FF0000B0018524149414BEBE7
:101FF0000B0BB2EB080C71EB03077BF1000B24BF5A
:10200000624639464EEB0E0E4FF0000B001852415F
:1020100049414BEB0B0BB2EB080C71EB03077BF167
:10202000000B24BF624639464EEB0E0E51EA020702
:1020300018BF46F0010616EB0E7655F1000254F17A
:10204000000103D5BDE88901BDE80088BDE889012C
:10205000BDE80048B619524141EB0101A3F101036B
:10206000704780807F7E7D7C7B7A79787776767505
:102070007473727171706F6E6E6D6C6C6B6A6A697D
:102080006868676666656464636362616160605F17
:102090005F5E5E5D5D5C5C5B5B5A5A595958585790
:1020A00057565655555554545353525252515150F8
:1020B00050504F4F4F4E4E4D4D4D4C4C4C4B4B4B4B
:1020C0004A4A4A4949494848484747474746464691
:1020D00045454544444444434343434242424241CC
:1020E0004141002B26D4770021D01CB54FEA370799
:1020F00003B44FF010004FF010014FF000000FBC80
:10210000BDE810400BF1010BBBF1010F08BF5FEA06
:10211000170722BF12F1010211F101014FF0004136
:1021200043F1000300F0004043EA00007047F9D398
:102130005708DAE746EA064613F1400F4FEA16461B
:102140001FDD13F1200FDFBF16430A4600212033A5
:102150005B42C8D0C3F1200746EA064602FA07F7F9
:102160004FEA164646EA0706C3F1200722FA03F2B1
:1021700001FA07F721FA03F14FF0000342EA0702E0
:10218000B1E746EA020646EA06464FEA164646EA3E
:102190000106BCBF46EA0646360C4FF000034FF07E
:1021A00000024FF000019EE72DE9C048934630B48D
:1021B00091E8380007C831EA400C48BF34EA430CC4
:1021C00003D5FFF7F2FDFFF78CFFF0BCBDE80088F8
:1021D0002DE9C048934630B491E8380007C810F0A4
:1021E000804F08BF13F0804F03D100F005F8FFF7D0
:1021F00078FFF0BCBDE8008820F07F4780EA03004C
:1022000023F07F4C07EB0C03A3F57C5300F0004058
:10221000A3F1FE0392F0000F00F0B38095F0000FE1
:1022200000F077802DE901494FEA11404FEA14464A
:1022300021EA004800FB06FC24EA064708FB06F6F4
:1022400007FB08F800FB07F718EB06484CEB164CA9
:102250004FEA124B18EB07484FEA15464CEB174074
:1022600022EA0B4E0BFB06FC25EA06470EFB06F6A0
:1022700007FB0EFE0BFB07F71EEB064E4CEB164C56
:102280004FF000061EEB074E4CEB174B18EB0B08FC
:1022900040F1000018EB0E0B58EB000840F1000075
:1022A0008F1A4FF000013CBFC943661B14BFB5EB4A
:1022B000040C00213CBFC943F61B4FEA17444EEA09
:1022C0008E0E27EA04454FEA1C4704FB07622CEAFE
:1022D000074C05FB07F70CFB05F604FB0CFC16EBA3
:1022E000074642EB174216EB0C4642EB1C421BEB37
:1022F000060658EB0202414146EA9E0601D5BDE8BA
:102300000189B619524141EB0101A3F10103BDE876
:1023100001894FEA14454FEA114724EA054621EAAC
:10232000074C05FB07F406FB07F70CFB06F105FB62
:102330000CFC11EB074144EB17444FEA124711EB39
:102340000C4144EB1C4422EA074C05FB07F206FB58
:1023500007F70CFB06F605FB0CFC16EB074642EBF9
:10236000174216EB0C4642EB1C456A1854F100016B
:1023700048BF7047B619524141EB0101A3F1010377
:10238000704795F0000F37D04FEA11424FEA1447DB
:1023900021EA024624EA074C02FB07F106FB07F795
:1023A0000CFB06F402FB0CFC14EB074441EB174159
:1023B0004FEA154714EB0C4441EB1C4125EA074C4E
:1023C00002FB07F506FB07F70CFB06F602FB0CFC0D
:1023D00016EB074645EB174516EB0C4645EB1C4242
:1023E000121951F1000148BF7047B619524141EB33
:1023F0000101A3F1010370474FEA14454FEA114769
:1024000024EA054621EA074C05FB07F106FB07F71E
:102410000CFB06F24FF0000605FB0CFC12EB07422A
:1024200041EB174112EB0C4251EB1C4148BF704786
:10243000921841EB0101A3F101037047490050EAF2
:10244000C12018BF04204A0D18BF40F0010040F21F
:10245000FF72B2EB515F08BF40F00200012808BFD5
:102460000520704730380A2801D20120704700202B
:102470007047000010B500290AD00878002807D05E
:1024800005487844FFF7D8FB002801D0002010BD94
:102490000248784410BD0000360400002E040000FD
:1024A0000808A0F500114FEA3101704743004FEAD8
:1024B000D30C4FEA3C0C43401FBF40070CF1605166
:1024C00013F0FE4F70471CF0006F03D100200CF09A
:1024D000004170470CF0004343EA507010B540EAE9
:1024E000CC0000F0E9F800BF000000924FEA0001C4
:1024F000FFF7D6BF4FF000414FF00000A1F50021DB
:10250000704700004FF47F0C1CEAD0121EBF1CEA7B
:10251000D11392EA0C0F93EA0C0F00F0858090EA39
:10252000010F48BF42F4807240F4000C41F40000F7
:102530002CF07F4120F07F4000B58142A2EB0302E6
:102540000FF2081CACEB504EC0F100009EF800E00A
:102550004FEA4E0E00FB0EFC38BF49004FEA2C1C20
:1025600002F5FA020CFB0EF34FEACE1E4FEA112CD5
:102570004FEAC1210EEB635E42EB22420EFB0CFCE4
:102580004FEA1C5300FB03114FEA112C4FEA0131B3
:102590000EFB0CFC4FEADC4C00FB0C11C14228BFC7
:1025A00009184CEB03335DF804EB10EB410143EBEE
:1025B000C250B2F57C0F38BF704729D512F0F00F2A
:1025C0001CBF00F1C04000F00040704700818283D2
:1025D0008485868788898B8C8D8E8F919293959632
:1025E00097999A9C9D9FA0A2A3A5A7A8AAACAEB0BC
:1025F000B2B3B5B7B9BCBEC0C2C5C7C9CCCED1D4C1
:10260000D7D9DCDFE2E6E9ECF0F3F7FAFE000000F0
:102610004FEA400C0CF1807CBCF17E4F28BF704724
:10262000B0F1C04000F08EB890EA010F0CEAD1136F
:1026300048BF42F48072624538BF634507D213F445
:102640007F0F16D080EA010000F00040704710B5FF
:1026500000F032F8097EFC3E00F005B880EA010087
:1026600000F00040704780EA010000F0004000F0F8
:1026700069B812F47F0F04BF0248704780EA010076
:1026800000F060B80000C07F10F0004148BF404239
:10269000B0FA80F310FA03F2C3F19D030BD051EAB4
:1026A000C35101EB1220530638BF704700F10100FF
:1026B00008BF20F0010070470EF1020E2EF0030E4D
:1026C0005EF8044B244204D44FEA4102B2F17F4F3A
:1026D00011D84FEA4003B3F17F4F0CD80ED14FEA27
:1026E000D07CB2F17F4F0CEB4C0C0CF1020C08BF0C
:1026F0004CEBD17C04E04FF0080C01E04FEAD17CB8
:102700000CEB4C0324FA03F404F00704B4F1040CBA
:1027100006D20EEB840CBDE810404CF0010C604773
:10272000DFE80CF0070802024FF00040A0F580003F
:1027300010BD0846420018BFD2F1807288BF00F079
:10274000004010BDFF2141EAD050C0057047FEF7A0
:10275000E7BF0000388004400002000000000000D5
:10276000388004400004000000000000388004406D
:102770000008000000000000388004400010000045
:10278000000000003880044000200000000000002D
:102790000090044000A0044000B0044000C0044089
:1027A00000D0044034800440000400000A0000000F
:1027B00034800440000800000B0000003480044016
:1027C000001000000C0000003480044000200000D5
:1027D0000D00000028800440000400000A000000F2
:1027E00028800440000800000B0000002D2F31332A
:1027F000353704000008000000000000000200015E
:102800000000100002400000000000A000000000D6
:1028100005400000000000C8000000000C4000005F
:102820000000409C00000000194000000020BCBED9
:102830000000000034400000BFC91B8E00000004EF
:10284000B5400000504BCFD06607E2CF010000003A
:102850006C4100003E8251AADFEEA7340100000067
:10286000D9420000DCB5A0E23A301F97FFFFFFFF1E
:10287000B4450000FD25A0C8E9A3C14FFFFFFFFF3D
:10288000FF3F00000000008000000000FF3F00004C
:102890000000008000000000D42800080000002094
:1028A000840000003C04000858290008840000202F
:1028B000F4140000580400081C000000430000004D
:1028C000F8FFFFFF0C0000000E0000000F000000EA
:1028D0002E00000000D8B805000000000000000035
:1028E00000000000000000000000000000000000E8
:1028F00000000000000000000000000000000000D8
:1029000001000000000000000000000000000000C6
:1029100000A0064000B0064000C0064000D00640BF
:1029200000A00E4000B00E4090019204A006A10647
:10293000B006B106C006C106D006D110E004F0040E
:10294000FF00000000000000000000000000000088
:08295000005AA5000000000080
:0400000508000401EA
:00000001FF
