:020000040800F2
:10000000400D002065010008590700083D04000864
:1000100055070008D1010008910E000800000000FB
:100020000000000000000000000000002F09000890
:10003000D5010008000000005B070008190D00084A
:100040007F0100087F0100087F0100087F01000890
:100050007F0100087F0100087F0100087F01000880
:100060007F0100087F0100087F0100087F01000870
:100070007F0100087F0100087F0100087F01000860
:100080007F0100087F0100087F0100087F01000850
:100090007F0100087F0100087F0100087F01000840
:1000A0007F0100087F0100087F0100087F01000830
:1000B0007F0100087F0100087F0100087F01000820
:1000C0007F0100087F0100087F0100087F01000810
:1000D0007F0100087F0100087F0100087F01000800
:1000E0007F0100087F0100087F0100087F010008F0
:1000F0007F0100087F0100087F0100087F010008E0
:100100007F0100087F0100087F0100087F010008CF
:100110007F0100087F0100087F0100087F010008BF
:100120007F0100087F0100087F0100087F010008AF
:10013000DFF80CD000F03AF8004800471111000831
:10014000400D0020EFF30980704780F30988704765
:10015000EFF30880704780F30888704740BA704713
:10016000C0BA70470648804706480047FEE7FEE7EA
:10017000FEE7FEE7FEE7FEE7FEE7FEE7FEE7FEE757
:100180001D0D00083101000840EA01039B0703D060
:1001900009E008C9121F08C0042AFAD203E011F8C6
:1001A000013B00F8013B521EF9D27047064C074D47
:1001B00006E0E06840F0010394E807009847103437
:1001C000AC42F6D3FFF7B8FFA4130008C41300082D
:1001D00000BFFEE77047000030B5044604254FF429
:1001E000302000F08DF80546042D17D10C48006929
:1001F00040F002000A49086108464461006940F085
:10020000400008614FF4302000F07AF805460448B9
:10021000006941F6FD71084001490861284630BD7A
:100220000020024004200B49C96801F0010109B116
:1002300001200EE00749C96801F0040109B102205C
:1002400007E00449C96801F0100109B1032000E08A
:1002500004207047002002400148006A70470000F7
:100260000020024001B500200099C1F30A021AB132
:10027000012202EBD12000E0C80A08BD78B506468D
:100280000C46042500200090E80200F039F80546ED
:10029000042D24D11348006940F001001149086180
:1002A0003480E80200F02CF80546042D10D1B01C73
:1002B0000090200C00990880E80200F021F8054623
:1002C0000848006941F6FE7108400649086106E0E9
:1002D0000448006941F6FE71084002490861284659
:1002E00078BD0000002002400248034948600348EE
:1002F000486070472301674500200240AB89EFCD7D
:1003000000B502460423FFF78DFF034603E0FFF725
:1003100089FF0346521E012B01D1002AF7D102B9F1
:100320000523184600BD2DE9F041024600250026B0
:10033000002000230024002791F803C00CF00F05D3
:1003400091F803C00CF0100CBCF1000F03D091F831
:1003500002C04CEA050591F800C0BCF1000F31D095
:10036000146800202BE04FF0010C0CFA00F3B1F8F8
:1003700000C00CEA03069E4220D183004FF00F0C10
:100380000CFA03F7BC4305FA03FC4CEA040491F8A9
:1003900003C0BCF1280F06D14FF0010C0CFA00FC91
:1003A000C2F814C00AE091F803C0BCF1480F05D1AF
:1003B0004FF0010C0CFA00FCC2F810C0401C0828D9
:1003C000D1D31460B1F800C0BCF1FF0F34DD546824
:1003D00000202EE000F1080C4FF0010808FA0CF3A1
:1003E000B1F800C00CEA03069E4221D183004FF011
:1003F0000F0C0CFA03F7BC4305FA03FC4CEA0404A7
:1004000091F803C0BCF1280F05D100F1080C08FADF
:100410000CF8C2F8148091F803C0BCF1480F07D162
:1004200000F1080C4FF0010808FA0CF8C2F810802F
:10043000401C0828CED35460BDE8F08100BFFEE721
:1004400000B585B00121052000F088F9012188035D
:1004500000F084F94FF4E13001900020ADF808007D
:10046000ADF80A00ADF80C00ADF810000C20ADF8A6
:100470000E0018208DF803004FF40070ADF8000056
:1004800003208DF8020069460B48FFF74CFF04205B
:100490008DF803000002ADF8000069460648FFF73A
:1004A00042FF01A9054800F083FC0121034800F048
:1004B00065FC05B000BD00000008014000380140A7
:1004C000F0B5144A00250024002320E0B1FBF2F629
:1004D000303606F0FF0C2E466D1C00F806C0B1FB4E
:1004E000F2F602FB16110A26B2FBF6F26E1E865DCC
:1004F000302E01D1012600E000260CB9012700E0D2
:1005000000273E400EB1002500E0641C5B1C0A2B56
:10051000DCD3F0BD00CA9A3B27480068A0F1006018
:10052000000B26490860084600683E2808D20846A5
:10053000017801208840401EC0432149086003E043
:100540004FF000401E490860FFF786FE1C4909680D
:1005500008401B490968884203D0012019490860F6
:1005600002E000201749086025E017A000F0D2FA49
:1005700025A000F0CFFA34A000F0CCFA42A000F0A1
:10058000C9FA1048006810B14FA000F0C3FA5EA08D
:1005900000F0C0FA00F0D4F96B4840686B4908607D
:1005A000084600686A49086067490868FFF7D3FD94
:1005B000674800688047D8E7140000200800002042
:1005C0000C000020100000200D0A3D3D3D3D3D3D4A
:1005D0003D3D3D3D3D3D3D3D3D3D3D3D204D616908
:1005E0006E204D656E75203D3D3D3D3D3D3D3D3DA3
:1005F0003D3D3D3D3D3D3D3D3D3D3D3D3D3D3D3D2B
:100600003D3D3D0D0A0A00002020446F776E6C6F5F
:10061000616420496D61676520546F2074686520AE
:1006200053544D33324631307820496E7465726EC2
:10063000616C20466C617368202D2D2D2D2D2D2D84
:1006400020310D0A0A000000202055706C6F616493
:1006500020496D6167652046726F6D207468652062
:1006600053544D33324631307820496E7465726E82
:10067000616C20466C617368202D2D2D2D2D2D2D44
:1006800020320D0A0A000000202045786563757449
:100690006520546865204E65772050726F677261DF
:1006A0006D202D2D2D2D2D2D2D2D2D2D2D2D2D2D47
:1006B0002D2D2D2D2D2D2D2D2D2D2D2D2D2D2D2D6A
:1006C00020330D0A0A000000202044697361626C27
:1006D00065207468652077726974652070726F7424
:1006E000656374696F6E202D2D2D2D2D2D2D2D2DD3
:1006F0002D2D2D2D2D2D2D2D2D2D2D2D2D2D2D2D2A
:1007000020340D0A0A0000003D3D3D3D3D3D3D3D8C
:100710003D3D3D3D3D3D3D3D3D3D3D3D3D3D3D3D09
:100720003D3D3D3D3D3D3D3D3D3D3D3D3D3D3D3DF9
:100730003D3D3D3D3D3D3D3D3D3D3D3D3D3D3D3DE9
:100740003D3D0D0A0A0000000030000804000020B2
:100750000000002000BFFEE77047704729B1064A3D
:1007600092690243044B9A6104E0034A926982430E
:10077000014B9A61704700000010024030B5002123
:100780000022002400232D4D6D6805F00C0121B1DD
:10079000042905D0082923D105E0294D056022E070
:1007A000274D05601FE0254D6D6805F47012234D3F
:1007B0006D6805F48034022505EB92421CB9214D89
:1007C000554305600BE01D4D6D6805F400351DB106
:1007D0001C4D5543056002E0194D5543056002E08C
:1007E000174D056000BF00BF144D6D6805F0F001A6
:1007F0000909154D6B5C0568DD4045600F4D6D685E
:1008000005F4E061090A104D6B5C4568DD408560C8
:100810000A4D6D6805F46051C90A0B4D6B5C456863
:10082000DD40C560054D6D6805F44041890B074DFD
:100830006B5CC568B5FBF3F5056130BD0010024087
:1008400000127A0000093D002C0000203C0000202E
:1008500070B505460C4606E0284600F039F9012837
:1008600001D1002070BD2000A4F10104F4D1401E8C
:10087000F8E72DE9F84304460D469046002028602D
:1008800041466846FFF7E4FF18B14FF0FF30BDE87E
:10089000F8839DF80000182813D006DC012809D041
:1008A000022809D0042820D109E041281AD0612863
:1008B0001BD118E080271BE04FF4806718E0002070
:1008C000E5E741466846FFF7C3FF40B99DF80000E1
:1008D000182804D14FF0FF3028600020D7E74FF0F0
:1008E000FF30D4E700BF0120D1E74FF0FF30CEE763
:1008F00000BF9DF800002070012609E0A0194146C4
:10090000FFF7A6FF10B14FF0FF30C0E7701C86B2B2
:10091000781D8642F2DB6178A07880F0FF0081428A
:1009200002D04FF0FF30B2E72F600020AFE77047F2
:1009300010B50446204600F0DDF8002010BD000090
:100940003EB51DA207CA8DE8070000241DA000F0D7
:10095000E1F82B4800F09EFA0446002C16DD2948E9
:1009600000F0D8F8284800F0D5F821466846FFF78F
:10097000A7FD26A000F0CEF8684600F0CBF826A030
:1009800000F0C8F827A000F0C5F814E0601C18B902
:100990002AA000F0BFF80EE0A01C18B937A000F0A4
:1009A000B9F808E0E01C18B93BA000F0B3F802E089
:1009B0003FA000F0AFF83EBD2020202020202020C6
:1009C0002020000057616974696E6720666F72208D
:1009D0007468652066696C6520746F206265207399
:1009E000656E74202E2E2E2028707265737320275A
:1009F000612720746F2061626F7274290A0D0000F4
:100A000040000020D4110008400400200A0D2053AB
:100A1000697A653A200000002042797465730D0AF6
:100A2000000000002D2D2D2D2D2D2D2D2D2D2D2DAA
:100A30002D2D2D2D2D2D2D0A000000000A0A0D54FC
:100A4000686520696D6167652073697A65206973DF
:100A500020686967686572207468616E20746865D3
:100A600020616C6C6F776564207370616365206DC5
:100A7000656D6F7279210A0D000000000A0A0D569B
:100A80006572696669636174696F6E206661696C1D
:100A90006564210A0D0000000D0A0A41626F72743C
:100AA000656420627920757365722E0A0D0000005E
:100AB0000A0D4661696C656420746F207265636518
:100AC000697665207468652066696C65210A0D0089
:100AD00010B504462021064800F05CF928B104480E
:100AE000001D00882070012010BD0020FCE70000E0
:100AF0000038014010B504462146054800F0C4F90D
:100B000000BF8021024800F045F90028F9D010BD4F
:100B10000038014010B5044603E02078FFF7EAFFF3
:100B2000641C20780028F8D110BD10B500F002F840
:100B300010BD00000CB50020019000903348006803
:100B400040F480303149086000BF3048006800F44C
:100B5000003000900198401C0190009818B901984D
:100B6000B0F5A06FF1D12948006800F4003010B151
:100B70000120009001E0002000900098012843D15E
:100B80002348006840F010002149086008460068CA
:100B900020F0030008600846006840F0020008608A
:100BA0001A48406819494860084640684860084645
:100BB000406840F4806048600846406820F47C103B
:100BC00048600846406840F4E810486008460068FD
:100BD00040F08070086000BF0C48006800F00070B2
:100BE0000028F9D00948406820F003000749486010
:100BF0000846406840F00200486000BF0348406873
:100C000000F00C000828F9D10CBD000000100240D3
:100C10000020024070B502460C460021002500234A
:100C20001078302843D15078782802D0507858284E
:100C30003DD1907808B9002070BD022130E0505CB1
:100C400010B9236001252DE0505C412802DB505C87
:100C500046280BDD505C612802DB505C662805DD10
:100C6000505C302819DB505C392816DC505C302889
:100C700005DB505C392802DC505C30380AE0505CFF
:100C8000412805DB505C462802DC505C373801E027
:100C9000505C573800EB031301E0002502E0491CCB
:100CA0000B29CCD300BF0B2934D3002532E000211F
:100CB0002AE0505C10B92360012527E0505C6B28C6
:100CC00002D0505C4B2804D119B19B02236001254E
:100CD0001CE0505C6D2802D0505C4D2804D119B145
:100CE0001B052360012511E0505C302809DB505CB6
:100CF000392806DC505C303803EB830600EB4603F2
:100D000001E0002502E0491C0B29D2D300BF0B29CA
:100D100000D3002528468FE77047000010B5134820
:100D2000006840F001001149086008464068104919
:100D300008400E494860084600680E4908400B49C3
:100D400008600846006820F4802008600846406873
:100D500020F4FE0048604FF41F008860FFF7E5FEB6
:100D60004FF000600449086010BD00000010024010
:100D70000000FFF8FFFFF6FE08ED00E021B18289D8
:100D800042F40052828104E082894DF6FF731A40DA
:100D90008281704702460020B1F5007F00D100BF7C
:100DA00013880B400BB1012000E0002070470000C9
:100DB0002DE9F04786B005460E460024A24600BF46
:100DC000A1460027B08900B100BF2F462C8A4CF6FF
:100DD000FF700440F08804432C82AC894EF6F31077
:100DE0000440B08831890843718908430443AC81C9
:100DF000AC8A4FF6FF400440B0890443AC8201A89E
:100E0000FFF7BCFC1F48874202D1DDF810A001E0CB
:100E1000DDF80CA0A88900F4004040B10AEBCA003C
:100E200000EB0A1031684900B0FBF1F807E00AEB6B
:100E3000CA0000EB0A1031688900B0FBF1F86420A9
:100E4000B8FBF0F004012009642101FB1089A88996
:100E500000F4004040B1322000EBC900B0FBF1F0DB
:100E600000F00700044308E0322000EB0910642181
:100E7000B0FBF1F000F00F0004432C8106B0BDE898
:100E8000F087000000380140C1F3080282807047FB
:100E900000BFFEE72DE9F04FADF22C4D06460020D5
:100EA00001908B488B4908604FF0000B4FF0000A0F
:100EB0000020029000BF002700200390B04600BF32
:100EC0004FF4801204A909A8FFF7D3FC10B1012840
:100ED0007ED1D0E04FF0000A0498B0F1FF3F01D07E
:100EE00070B907E00620FFF723FD00200DF22C4D1E
:100EF000BDE8F08F0620FFF71BFD01200390B8E04E
:100F00009DF82500F9B2884203D01520FFF710FDA7
:100F1000AFE0002F6ED19DF82700002863D0002598
:100F20000DF1270405E014F8012B28466D1C6A49D1
:100F30000A54207808B1FF2DF5DD002228466D1CEB
:100F400065490A540025641C05E014F8012B284665
:100F50006D1C05A90A542078202801D0102DF4DB3F
:100F6000002228466D1C05A90A5401A905A8FFF70F
:100F700051FE0198B0F5002F08DB1820FFF7D8FCD0
:100F80001820FFF7D5FC4FF0FF30AFE70198FFF7CF
:100F900069F95249086000205149086010E04D4944
:100FA0000968504A12884E4B1B6802FB0310FFF77A
:100FB00013F94D4908704A480068401C48490860C8
:100FC0004748006845490968884205D2464800E01C
:100FD0005AE000780428E2D00620FFF7A9FC43205D
:100FE000FFF7A6FC42E00620FFF7A2FC01200390D9
:100FF00083463EE00DF127014046049AFFF7C4F80E
:101000003A4806604FF0000923E03848006801685C
:1010100030480068FFF732F92E480068006833490D
:1010200009680968884208D01820FFF781FC182059
:10103000FFF77EFC6FF0010058E726480068001DAE
:101040002449086029480068001D2849086009F102
:1010500004090498814506DA1D49019808441D4990
:1010600009688842D1D80620FFF762FC7F1C012066
:10107000029000BF1CE01820FFF75AFC1820FFF771
:1010800057FC6FF0020031E70298002801DD0AF1F9
:10109000010ABAF1050F07DD1820FFF749FC1820F7
:1010A000FFF746FC002021E74320FFF741FC00BF8B
:1010B00000BF039800283FF403AF00BF00BFBBF19F
:1010C000000F3FF4F8AE00BF00BF01980EE700002C
:1010D0000030000814000020400400202000002000
:1010E0001C00002018000020240000202800002000
:1010F00002E008C8121F08C1002AFAD170477047E1
:10110000002001E001C1121F002AFBD1704700003E
:1011100038B5002401210420FFF720FB48208DF87A
:10112000030003208DF802000120ADF8000069469D
:101130001C48FFF7F8F8FFF7D7F8FFF781F91A48CE
:10114000FFF7E8FC1948FFF7E5FC1948FFF7E2FC58
:101150001848FFF7DFFC1648FFF7DCFC1648FFF7DE
:10116000D9FC1148FFF7D6FC14A0FFF7D3FCFFF71A
:10117000D3F91448006814490840B0F1005F0ED15B
:101180001048406811490860084600681049086026
:101190000C490868FEF7DFFF0D4800688047002013
:1011A00038BD000000080140581300087412000800
:1011B000281200080C130008C01200080D0A0D0ABE
:1011C00000000000003000080000FE2F0400002096
:1011D000000000200A0A0D2050726F6772616D6D69
:1011E000696E6720436F6D706C657465642053751C
:1011F000636365737366756C6C79210A0D2D2D2DF3
:101200002D2D2D2D2D2D2D2D2D2D2D2D2D2D2D2D0E
:101210002D2D2D2D2D2D2D2D2D2D2D2D2D0D0A204E
:101220004E616D653A2000000D0A3D2020202020EF
:1012300020202020202020202020202020202020AE
:10124000202020202020202020202020202020209E
:10125000202020202020202020202020202020208E
:101260002020202020202020202020202020203D61
:10127000000000000D0A3D202020202020202020FA
:10128000202020202028432920434F5059524947ED
:10129000485420323031302053544D6963726F65A9
:1012A0006C656374726F6E69637320202020202048
:1012B00020202020202020202020203D0000000091
:1012C0000D0A3D202020202020202020202020202A
:1012D000202020202020202020202020202020200E
:1012E0002020202020204279204D4344204170704E
:1012F0006C69636174696F6E205465616D20202094
:10130000202020202020203D000000000D0A3D204C
:1013100020202020496E2D4170706C6963617469D2
:101320006F6E2050726F6772616D6D696E672041DC
:1013300070706C69636174696F6E202028566572E5
:1013400073696F6E20332E332E3029202020202009
:101350002020203D000000000D0A3D3D3D3D3D3D6B
:101360003D3D3D3D3D3D3D3D3D3D3D3D3D3D3D3DAD
:101370003D3D3D3D3D3D3D3D3D3D3D3D3D3D3D3D9D
:101380003D3D3D3D3D3D3D3D3D3D3D3D3D3D3D3D8D
:101390003D3D3D3D3D3D3D3D3D3D3D3D3D3D3D3D7D
:1013A00000000000C41300080000002040000000FE
:1013B000F01000080414000840000020000D000098
:1013C0000011000800000000000000000000000004
:1013D00000000000000000000030000800080000CD
:1013E00000000000000000000400000000000000F9
:1013F00000000000010203040102030406070809BB
:0414000002040608D4
:0400000508000131BD
:00000001FF
